:1000000047C071C449C469C068C067C066C065C0E4
:1000100064C063C062C061C060C05FC05EC05DC0DC
:10002000F1C35BC0BDC397C358C057C056C055C0CD
:1000300054C053C000000000240027002A00000024
:100040000000250028002B00040404040404040418
:10005000020202020202030303030303020203017A
:10006000020408102040800102040810200102044C
:100070000810204080400000000900030200000436
:1000800005080000000000000000000000009A04C5
:1000900011241FBECFEFD4E0DEBFCDBF11E0A0E042
:1000A000B1E0EEE4F2E102C005900D92A63CB1078A
:1000B000D9F722E0A6ECB1E001C01D92A638B20744
:1000C000E1F710E0C8E4D0E003C02197FE01B3D807
:1000D000C734D107D1F78FD4B8C892CFCF92DF926F
:1000E000EF92FF920F931F93CF93DF936C017A01EE
:1000F0008B01C0E0D0E0CE15DF0581F0D8016D9115
:100100008D01D601ED91FC910190F081E02DC601A9
:100110000995892B11F02196EECF7E01C701DF9161
:10012000CF911F910F91FF90EF90DF90CF900895A6
:10013000FC01918D828D981761F0828DDF01A80FEF
:10014000B11D5D968C91928D9F5F9F73928F90E011
:1001500008958FEF9FEF0895FC01918D828D981780
:1001600031F0828DE80FF11D858D90E008958FEFBD
:100170009FEF0895FC01918D228D892F90E0805C86
:100180009F4F821B91098F73992708958BED91E002
:10019000F1DF21E0892B09F420E0822F0895FC0192
:1001A000848DDF01A80FB11DA35ABF4F2C91848D00
:1001B00090E001968F739927848FA689B7892C9335
:1001C000A089B1898C9180648C93938D848D9813D0
:1001D00006C00288F389E02D80818F7D8083089599
:1001E000EF92FF920F931F93CF93DF93EC0181E087
:1001F000888F9B8D8C8D981305C0E889F989808143
:1002000085FD23C0F62E0B8D10E00F5F1F4F0F737F
:100210001127E02E8C8DE8120BC00FB607FCFACF29
:10022000E889F989808185FFF5CFCE01B8DFF2CF6B
:100230008B8DFE01E80FF11DE35AFF4FF0820B8F0B
:10024000EA89FB898081806207C0EE89FF8960832B
:10025000E889F98980818064808381E090E0DF9182
:10026000CF911F910F91FF90EF900895CF93DF935F
:10027000EC01888D8823C1F0EA89FB89808185FDA6
:1002800005C0A889B9898C9186FD0EC00FB607FC00
:10029000F5CF808185FFF2CFA889B9898C9185FF40
:1002A000EDCFCE017CDFE8CFDF91CF91089580E0E4
:1002B00090E0892B19F06ADF8111A2CE089590E0B9
:1002C000FC01EA58FF4F2491FC01E15AFF4F3491A1
:1002D000FC01E85BFF4FE491EE2309F43CC02223CC
:1002E00039F1243091F038F42230A9F0233001F5AF
:1002F00084B58F7D12C0283091F02930A1F02530CF
:10030000B9F4809180008F7D03C0809180008F7749
:10031000809380000DC084B58F7784BD09C0809123
:10032000B0008F7703C08091B0008F7D8093B000C4
:10033000F0E0EE0FFF1FE25CFF4FA591B4919FB775
:10034000F894611104C08C913095382302C0EC916F
:100350003E2B3C939FBF089561E089E0B0DF81E0D0
:1003600090E09093D4018093D3010895CF93DF93CD
:1003700090E0FC01E15AFF4F2491FC01E85BFF4F44
:100380008491882361F190E0880F991FFC01EC5C57
:10039000FF4FC591D491FC01E25CFF4FA591B49150
:1003A000611109C09FB7F8948881209582238883C2
:1003B000EC912E230BC0623061F49FB7F8948881D2
:1003C000322F309583238883EC912E2B2C939FBF63
:1003D00006C08FB7F894E8812E2B28838FBFDF915A
:1003E000CF910895883028F08E3010F08E5001C0E3
:1003F0008FEF8770806480937C0080917A008064A6
:1004000080937A0080917A0086FDFCCF80917800FD
:100410002091790090E0922B08953FB7F894809155
:10042000CB019091CC01A091CD01B091CE0126B528
:10043000A89B05C02F3F19F00196A11DB11D3FBF1C
:10044000BA2FA92F982F8827820F911DA11DB11DAA
:10045000BC01CD0143E0660F771F881F991F4A95A5
:10046000D1F708958F929F92AF92BF92CF92DF9271
:10047000EF92FF926B017C01D0DF4B015C01C11454
:10048000D104E104F104E9F0C8DFDC01CB018819F3
:100490009909AA09BB09883E9340A105B10578F3E3
:1004A00021E0C21AD108E108F10888EE880E83E045
:1004B000981EA11CB11CC114D104E104F10421F760
:1004C000DECFFF90EF90DF90CF90BF90AF909F90E6
:1004D0008F9008950895009761F0FC01019000202D
:1004E000E9F73197AF01481B590BBC018BED91E047
:1004F000F5CD80E090E00895CF93DF93ECDFEC0141
:1005000084E191E0E8DF8C0F9D1FDF91CF9108958A
:100510008F929F92AF92BF920F931F93CF93DF93CF
:10052000CDB7DEB7A1970FB6F894DEBF0FBECDBF33
:1005300019A2423008F44AE08E010F5D1F4F842E4D
:10054000912CA12CB12CA501940153D6E62FB90111
:10055000CA0101501109EA3014F4E05D01C0E95C00
:10056000D801EC93232B242B252B69F7C801B3DF8B
:10057000A1960FB6F894DEBF0FBECDBFDF91CF912D
:100580001F910F91BF90AF909F908F900895A3CF30
:10059000CF92DF92EF92FF92CF93DF936C01990F8E
:1005A000EE08FF08F7FE11C06DE28BED91E018DE5A
:1005B000EC0166277727CB016C197D098E099F090D
:1005C0004AE0A6DFC80FD91F05C04AE0C701B6013F
:1005D0009FDFEC0184E191E07EDF8C0F9D1FDF91B6
:1005E000CF91FF90EF90DF90CF9008954F925F9260
:1005F0006F927F928F929F92AF92BF92CF92DF9233
:10060000EF92FF926B017C019B01AC01EED5882338
:1006100019F087E191E018C046015701E894B7F856
:100620002FEF3FEF4FE75FE7C501B401DED5811142
:100630000EC02FEF3FEF4FE75FE7C501B4018CD449
:1006400018162CF48BE191E046DF7C0171C02FEF8E
:100650003FEF4FE75FE4C701B60160D518161CF401
:100660008FE191E0F1CF2FEF3FEF4FE75FECC70154
:10067000B60172D487FDF4CF20E030E0A901C701B4
:10068000B6016AD487FF0AC06DE28BED91E0A8DD68
:100690005C01F7FAF094F7F8F09402C0A12CB12CA9
:1006A0002AE037ED43EA5BE3C701B601F1D32B0142
:1006B0003C0156D46B017C017FD49B01AC01C3018A
:1006C000B201E5D32B013C014AE0C701B60120DFAE
:1006D0007C01EA0CFB1C6EE28BED91E081DDE80E03
:1006E000F91E20E030E040E251E4C301B2011AD526
:1006F0002B013C0135D44B01A12CB12C4AE0C501A2
:10070000B40106DFE80EF91EC501B40155D49B0102
:10071000AC01C301B201BBD320E030E040E251E4C0
:1007200001D51ED480E090E04AE0F2DEE80EF91E2A
:1007300084E191E0D0DE8E0D9F1DFF90EF90DF9061
:10074000CF90BF90AF909F908F907F906F905F9071
:100750004F90089576D51F920F920FB60F921124E5
:100760002F933F934F935F936F937F938F939F93B9
:10077000AF93BF93EF93FF938BED91E010DDFF916B
:10078000EF91BF91AF919F918F917F916F915F9109
:100790004F913F912F910F900FBE0F901F90189582
:1007A0001F920F920FB60F9211242F938F939F9346
:1007B000EF93FF93E091EB01F091EC018081E091E8
:1007C000F101F091F20182FD12C090818091F4015B
:1007D0008F5F8F732091F501821751F0E091F40142
:1007E000F0E0E552FE4F958F8093F40101C08081C7
:1007F000FF91EF919F918F912F910F900FBE0F90CE
:100800001F9018951F920F920FB60F9211242F93DD
:100810003F938F939F93AF93BF938091C701909124
:10082000C801A091C901B091CA013091C60126E06A
:10083000230F2D3720F40296A11DB11D05C029E814
:10084000230F0396A11DB11D2093C6018093C701FC
:100850009093C801A093C901B093CA018091CB01C4
:100860009091CC01A091CD01B091CE010196A11D36
:10087000B11D8093CB019093CC01A093CD01B09397
:10088000CE01BF91AF919F918F913F912F910F908A
:100890000FBE0F901F9018951F920F920FB60F92D8
:1008A00011242F933F934F935F936F937F938F9375
:1008B0009F93AF93BF93EF93FF93E0910201F09169
:1008C00003010995FF91EF91BF91AF919F918F9196
:1008D0007F916F915F914F913F912F910F900FBE3C
:1008E0000F901F9018951F920F920FB60F92112420
:1008F0002F933F934F935F936F937F938F939F9328
:10090000AF93BF93EF93FF93E0910001F09101014A
:100910000995FF91EF91BF91AF919F918F917F9139
:100920006F915F914F913F912F910F900FBE0F905C
:100930001F901895CF92DF92EF92FF92EBEDF1E0CE
:100940001382128288EE93E0A0E0B0E08483958366
:10095000A683B78388E091E09183808385EC90E063
:100960009587848784EC90E09787868780EC90E079
:10097000918B808B81EC90E0938B828B82EC90E06A
:10098000958B848B86EC90E0978B868B118E128EE4
:10099000138E148E8CE090E09093850280938402F5
:1009A000C0908002D0908102E0908202F090830299
:1009B00023E333E343EF5FE3C701B60168D26093FB
:1009C0007C0270937D0280937E0290937F02A70148
:1009D00096016AE979E989E090E459D26093780256
:1009E0007093790280937A0290937B02FF90EF904C
:1009F000DF90CF900895789484B5826084BD84B5EB
:100A0000816084BD85B5826085BD85B5816085BD09
:100A100080916E00816080936E00109281008091C1
:100A20008100826080938100809181008160809349
:100A30008100809180008160809380008091B1006E
:100A400084608093B1008091B00081608093B00099
:100A500080917A00846080937A0080917A0082602D
:100A600080937A0080917A008E7F80937A008091C3
:100A70007A00806880937A001092C10061E089E07A
:100A800075DC61E083E072DC62E082E06FDC60E0F4
:100A90008EE06CDC60E08FE069DC60E084E166DCC5
:100AA00060E085E163DC60E085E060DC60E086E0DA
:100AB0005DDCE091EB01F091EC0182E08083E0915C
:100AC000E701F091E8011082E091E901F091EA017B
:100AD00087E680831092F301E091EF01F091F0013D
:100AE00086E08083E091ED01F091EE0180818061EC
:100AF0008083E091ED01F091EE0180818860808338
:100B0000E091ED01F091EE01808180688083E091B9
:100B1000ED01F091EE0180818F7D80838CEA91E080
:100B20009093010180930001809169008C7F826025
:100B300080936900E89A83E291E0DEDCEE24E3949E
:100B4000F12CC0918402D09185021C161D06F4F48C
:100B500011E08091D9019091DA01892B09F010E020
:100B6000812F90E09093DA018093D901612F83E087
:100B7000A6DB612F89E0A3DB66E970E080E090E00E
:100B800071DC2197D0938502C09384028EE02ADC29
:100B9000BC01990F880B990B11D220E030E040EA9C
:100BA00050E4C0D220E030E040E85AE3BBD260938A
:100BB000D5017093D6018093D7019093D8018FE02F
:100BC00011DCBC01990F880B990BF8D120E030E0C3
:100BD00040EA50E4A7D220E030E040E85AE3A2D255
:100BE0004B015C01609380027093810280938202CA
:100BF0009093830223E333E343EF5FE348D12B0178
:100C00003C0160937C0270937D0280937E029093FE
:100C10007F02A50194016AE979E989E090E437D17E
:100C20004B015C01609378027093790280937A02A1
:100C300090937B0220E030E0A901C301B2016ED2A3
:100C400018164CF48091D1019091D20101969093A5
:100C5000D2018093D10120E030E0A901C501B401A7
:100C60005DD218164CF48091D1019091D201019778
:100C70009093D2018093D10180E491E088DC80914F
:100C8000D1019091D20184DC8DE491E035DC80913A
:100C9000D1019091D20197FF04C0F092D001E0926F
:100CA000CF018091D1019091D201892B81F460E034
:100CB00086E05CDB60E085E059DB60E085E156DBE7
:100CC00060E084E153DB1092D0011092CF0180915B
:100CD000D1019091D201181619069CF461E086E0CA
:100CE00045DB60E086E0EBDA60E085E03FDB60E07A
:100CF00085E13CDB60E084E139DB1092D0011092A9
:100D0000CF018091D1019091D201029784F061E0EE
:100D100085E02CDB60E085E0D2DA60E085E126DB6F
:100D200060E084E123DB1092D0011092CF0180912A
:100D3000D1019091D20103976CF061E085E116DB5F
:100D400060E085E1BCDA60E084E110DB1092D00164
:100D50001092CF018091D1019091D201049754F06B
:100D600061E084E103DB60E084E1A9DA1092D00164
:100D70001092CF018091D1019091D201059724F07A
:100D8000F092D001E092CF018091CF019091D001FB
:100D9000019789F4C091D901D091DA016C2F83E0D9
:100DA0008EDA81E090E0CD2B11F080E090E090931E
:100DB000DA018093D9018091CF019091D001892BE4
:100DC00039F41092DA011092D90160E083E077DA09
:100DD00082E691E0DCDB8091D3019091D401D8DBF5
:100DE0008DE691E0D4DB6091D5017091D6018091C0
:100DF000D7019091D801FADB80E891E0C8DB6091DF
:100E00008002709181028091820290918302EEDBD8
:100E10008BE891E0BCDB8091D1019091D201B8DBED
:100E20008DE991E0B4DB88E790E0B2DB84EA91E001
:100E3000AEDB60917C0270917D0280917E02909188
:100E40007F02D4DB8EEA91E0A2DB609178027091A0
:100E5000790280917A0290917B02C8DB89EB91E064
:100E600096DB8091CF019091D00192DB8FE491E0ED
:100E700043DB68E770E080E090E0F4DA60E089E06E
:100E80001EDA1092D4011092D30111DA5ACE5058C2
:100E9000BB27AA270ED008C1F9D030F0FED020F031
:100EA00031F49F3F11F41EF4EEC00EF4E095E7FB21
:100EB000E4C0E92F0AD180F3BA17620773078407E9
:100EC000950718F071F49EF522C10EF4E0950B2EF3
:100ED000BA2FA02D0B01B90190010C01CA01A0018C
:100EE0001124FF27591B99F0593F50F4503E68F1E7
:100EF0001A16F040A22F232F342F4427585FF3CF28
:100F0000469537952795A795F0405395C9F77EF4F8
:100F10001F16BA0B620B730B840BBAF09150A1F041
:100F2000FF0FBB1F661F771F881FC2F70EC0BA0FC7
:100F3000621F731F841F48F4879577956795B7954F
:100F4000F7959E3F08F0B3CF9395880F08F0992747
:100F5000EE0F9795879508956CD008F481E0089579
:100F6000BCD088F09F5790F0B92F9927B751A0F0C7
:100F7000D1F0660F771F881F991F1AF0BA95C9F72D
:100F800012C0B13081F0C3D0B1E00895C0C0672F66
:100F9000782F8827B85F39F0B93FCCF386957795DD
:100FA0006795B395D9F73EF49095809570956195C6
:100FB0007F4F8F4F9F4F0895E89409C097FB3EF4F1
:100FC00090958095709561957F4F8F4F9F4F992396
:100FD000A9F0F92F96E9BB279395F6958795779514
:100FE0006795B795F111F8CFFAF4BB0F11F460FFD4
:100FF0001BC06F5F7F4F8F4F9F4F16C0882311F02C
:1010000096E911C0772321F09EE8872F762F05C03F
:10101000662371F096E8862F70E060E02AF09A95DA
:10102000660F771F881FDAF7880F9695879597F9CF
:101030000895990F0008550FAA0BE0E8FEEF161669
:101040001706E807F907C0F012161306E407F507BC
:1010500098F0621B730B840B950B39F40A2661F030
:10106000232B242B252B21F408950A2609F4A140D3
:10107000A6958FEF811D811D089597F99F6780E8E0
:1010800070E060E008959FEF80EC089500240A94DA
:101090001616170618060906089500240A94121653
:1010A0001306140605060895092E0394000C11F486
:1010B000882352F0BB0F40F4BF2B11F460FF04C033
:1010C0006F5F7F4F8F4F9F4F089557FD9058440F8C
:1010D000551F59F05F3F71F04795880F97FB991F97
:1010E00061F09F3F79F08795089512161306140654
:1010F000551FF2CF4695F1DF08C0161617061806E1
:10110000991FF1CF86957105610508940895E894BB
:10111000BB2766277727CB0197F908958ADF08F464
:101120008FEF08950BD0C0CFB1DF28F0B6DF18F0F5
:10113000952309F0A2CFA7CF1124EACFC6DFA0F3F1
:10114000959FD1F3950F50E0551F629FF001729F5C
:10115000BB27F00DB11D639FAA27F00DB11DAA1F7B
:10116000649F6627B00DA11D661F829F2227B00DC8
:10117000A11D621F739FB00DA11D621F839FA00D53
:10118000611D221F749F3327A00D611D231F849FA3
:10119000600D211D822F762F6A2F11249F575040FA
:1011A0008AF0E1F088234AF0EE0FFF1FBB1F661F95
:1011B000771F881F91505040A9F79E3F510570F04E
:1011C0005CCFA6CF5F3FECF3983EDCF38695779536
:1011D0006795B795F795E7959F5FC1F7FE2B880F49
:1011E000911D9695879597F9089523DF880B990BA4
:1011F0000895A1E21A2EAA1BBB1BFD010DC0AA1F58
:10120000BB1FEE1FFF1FA217B307E407F50720F06F
:10121000A21BB30BE40BF50B661F771F881F991FEA
:101220001A9469F760957095809590959B01AC0133
:10123000BD01CF010895EE0FFF1F0590F491E02D41
:0E124000099481E090E0F89400C0F894FFCF8C
:10124E006A02000000000000F0006E00BA00980074
:10125E00AC0036010D0A006E616E00696E66006F9D
:10126E00766600496E697469616C697A696E672089
:10127E005069657A6F2053656E736F722E2E2E0035
:10128E0061646A75737453746174653A002D2D2D03
:10129E002D2D2D2D2D2D2D2D2D2D2D2D2D2D2D2D70
:1012AE002D00505A205374617475733A00566F6C4A
:1012BE0074616765205265666572656E63653A0096
:1012CE00416D702053656E73653A0041646A7573A3
:1012DE00746D656E742053746174653A0044656C68
:1012EE0061793A004C6F7720446966663A00486926
:1012FE00676820446966663A004572726F722053C1
:06130E00746174653A00F1
:00000001FF
