:100000000C94AA000C9474060C944D060C94D20027
:100010000C94D2000C94D2000C94D2000C94D20018
:100020000C94D2000C94D2000C94D2000C94D20008
:100030000C94D2000C94D2000C94D2000C94D200F8
:100040000C9403060C94D2000C94C1060C949B06ED
:100050000C94D2000C94D2000C94D2000C94D200D8
:100060000C94D2000C94D2000C94D2000C94D200C8
:100070000C94D2000C94D2000C94D2000C94D200B8
:100080000C94D2000C94D2000C94D2000C94D200A8
:100090000C94D2000C94D2000C94D2000C94D20098
:1000A0000C94D2000C94D2000C94D2000C94D20088
:1000B0000C94D200FB00FE00F100F5001F011F01AF
:1000C000020106010C0110011F0116011A0197011E
:1000D0009C01A101AB01F401F401B501BD01C50111
:1000E000CF01F401DA01E90100000000240027003B
:1000F0002A002D0000000000250028002B002E0003
:1001000004040404040404040202020202020303BD
:100110000303030302020305050505010204081099
:100120002040800102040810200102040810204031
:100130008040010204080A0D0E09000302000004B9
:1001400005080000000000000000000000000000A2
:100150000000F30611241FBECFEFD8E0DEBFCDBFF5
:1001600023E0A4E1B2E001C01D92AC32B207E1F796
:1001700012E0A0E0B1E0E4E9F9E102C005900D92DF
:10018000A431B107D9F710E0CAEAD0E004C0219742
:10019000FE010E94F70BC93AD107C9F70E94330745
:1001A0000C94C80C0C940000362F90E0FC01EA5C23
:1001B000FE4F4491FC01E55EFE4F2491FC01E050AE
:1001C000FF4F8491882309F44EC04423C1F150E0CD
:1001D000FA013297ED30F10590F5E65AFF4F0C9495
:1001E000F70B909180009F7703C0909180009F7DD6
:1001F0009093800024C094B59F7702C094B59F7DF2
:1002000094BD1DC09091B0009F7703C09091B00045
:100210009F7D9093B00013C0909190009F7703C092
:10022000909190009F7D9093900009C09091A000C4
:100230009F7703C09091A0009F7D9093A000E82F2E
:10024000F0E0EE0FFF1FEC50FF4FA591B4919FB768
:10025000F894311104C08C912095282302C0EC91B0
:100260002E2B2C939FBF0895CF93DF9390E0FC013A
:10027000E55EFE4F2491FC01E050FF4F84918823FE
:1002800061F190E0880F991FFC01E851FF4FC59183
:10029000D491FC01EC50FF4FA591B491611109C0BC
:1002A0009FB7F8948881209582238883EC912E2330
:1002B0000BC0623061F49FB7F8948881322F30957B
:1002C00083238883EC912E2B2C939FBF06C08FB77E
:1002D000F894E8812E2B28838FBFDF91CF9108956A
:1002E0001F93CF93DF93182FEB0161E00E9434013D
:1002F000209711F460E004C0CF3FD10539F461E0EC
:10030000812FDF91CF911F910C94D400E12FF0E069
:10031000EA5CFE4FE4918E2F90E0FC013297ED30C5
:10032000F10508F061C0E959FF4F0C94F70B84B553
:10033000806884BDC7BD5DC084B5806284BDC8BD12
:1003400058C080918000806880938000D09389009D
:10035000C09388004EC080918000806280938000AE
:10036000D0938B00C0938A0044C08091B000806815
:100370008093B000C093B3003CC08091B000806215
:100380008093B000C093B40034C080919000806826
:1003900080939000D0939900C09398002AC05A9AF5
:1003A00080919000806280939000D0939B00C093D6
:1003B0009A001FC08091A00080688093A000809167
:1003C000A0008F7B8093A000D093A900C093A800C9
:1003D00010C05A9A8091A00080628093A000D093B0
:1003E000AB00C093AA0005C0C038D1050CF087CF80
:1003F00081CFDF91CF911F9108953FB7F8948091FD
:10040000810290918202A0918302B091840226B56C
:10041000A89B05C02F3F19F00196A11DB11D3FBF3C
:10042000BA2FA92F982F8827820F911DA11DB11DCA
:10043000BC01CD0142E0660F771F881F991F4A95C6
:10044000D1F708958F929F92AF92BF92CF92DF9291
:10045000EF92FF926B017C010E94FD014B015C0158
:10046000C114D104E104F104F1F00E94FD01DC01AA
:10047000CB0188199909AA09BB09883E9340A105B7
:10048000B10570F321E0C21AD108E108F10888EE45
:10049000880E83E0981EA11CB11CC114D104E10494
:1004A000F10419F7DDCFFF90EF90DF90CF90BF9070
:1004B000AF909F908F9008950895CF92DF92EF9222
:1004C000FF920F931F93CF93DF936C017A018B01FF
:1004D000C0E0D0E0CE15DF0581F0D8016D918D012F
:1004E000D601ED91FC910190F081E02DC6010995B6
:1004F000892B11F02196EECF7E01C701DF91CF91BC
:100500001F910F91FF90EF90DF90CF900895FC0125
:10051000918D828D981761F0828DDF01A80FB11D3A
:100520005D968C91928D9F5F9F73928F90E008955E
:100530008FEF9FEF0895FC01918D828D981731F018
:10054000828DE80FF11D858D90E008958FEF9FEF6C
:100550000895FC01918D228D892F90E0805C9F4F42
:10056000821B91098F739927089585E892E00E9474
:10057000A90221E0892B09F420E0822F0895FC01D3
:10058000848DDF01A80FB11DA35ABF4F2C91848D1C
:1005900090E001968F739927848FA689B7892C9351
:1005A000A089B1898C9180648C93938D848D9813EC
:1005B00006C00288F389E02D80818F7D80830895B5
:1005C000EF92FF920F931F93CF93DF93EC0181E0A3
:1005D000888F9B8D8C8D981305C0E889F98980815F
:1005E00085FD24C0F62E0B8D10E00F5F1F4F0F739B
:1005F0001127E02E8C8DE8120CC00FB607FCFACF45
:10060000E889F989808185FFF5CFCE010E94BF027C
:10061000F1CF8B8DFE01E80FF11DE35AFF4FF08201
:100620000B8FEA89FB898081806207C0EE89FF8990
:100630006083E889F98980818064808381E090E02B
:10064000DF91CF911F910F91FF90EF900895CF937D
:10065000DF93EC01888D8823C9F0EA89FB898081CA
:1006600085FD05C0A889B9898C9186FD0FC00FB69C
:1006700007FCF5CF808185FFF2CFA889B9898C91DD
:1006800085FFEDCFCE010E94BF02E7CFDF91CF9172
:10069000089580E090E0892B21F00E94B50281113D
:1006A0000DC080E090E0892B71F080E090E0892B14
:1006B00051F00E940000811104C008950E940000C2
:1006C000F0CF0C940000089582E090E09093070131
:1006D000809306018AEA95E09093190180931801AE
:1006E00082E29BE0909317018093160182E390E0F1
:1006F000909311018093100184E190E090930501A3
:1007000080930401909309018093080108958091DA
:10071000060190910701009729F460E086E00E94AD
:1007200034010BC018161906A4F461E086E00E949B
:10073000340160E086E00E94D40060E085E00E9421
:10074000340160E085E10E94340160E084E10C94B2
:1007500034010895609118027091190280911A0273
:1007600090911B0224E030E040E050E00E94D80B62
:1007700030931702209316026091160270911702AF
:1007800089E00C94700160911C0270911D028091AF
:100790001E0290911F0224E030E040E050E00E94F1
:1007A000D80B3093150220931402609114027091BB
:1007B000150283E00C947001AF92BF92DF92EF922A
:1007C000FF920F931F93CF93DF93EC017B018B017B
:1007D0005C0182E0A80EB11CF801D1908F01CE011E
:1007E0000E94690BD81621F06D2DCE010E94710B6D
:1007F0002196CA15DB0581F7C701DF91CF911F91C3
:100800000F91FF90EF90DF90BF90AF90089580918F
:1008100020029091210297FD0AC0909305018093D8
:10082000040164E071E080E190E00C94DC03089541
:10083000FF920F931F93CF93DF9302E111E0CCE17E
:10084000D0E0F801F1908F01CE010E94690BF816FB
:1008500021F06F2DCE010E94710B2196C032D1057F
:1008600081F782E191E0DF91CF911F910F91FF908D
:1008700008950E94640366E071E080E090E00E94C9
:10088000DC0368E171E084E090E00E94DC0366E153
:1008900071E088E090E00E94DC0360E171E08CE0B0
:1008A00090E00E94DC0364E071E080E190E00E944F
:1008B000DC0368E071E084E190E00E94DC030C94CA
:1008C00018040F931F93CF93DF938C01EB010E94C9
:1008D000690B8883C80101960E94690B8983CE0148
:1008E000DF91CF911F910F910895009769F0FC015E
:1008F00001900020E9F73197AF01481B590BBC016B
:1009000085E892E00C945D0280E090E00895CF933A
:10091000DF930E947504EC018AE291E00E94750465
:100920008C0F9D1FDF91CF9108958F929F92AF9270
:10093000BF920F931F93CF93DF93CDB7DEB7A197ED
:100940000FB6F894DEBF0FBECDBF19A2423008F437
:100950004AE08E010F5D1F4F842E912CA12CB12CEB
:10096000A50194010E94B60BE62FB901CA010150FE
:100970001109EA3014F4E05D01C0E95CD801EC93A0
:10098000232B242B252B61F7C8010E947504A19607
:100990000FB6F894DEBF0FBECDBFDF91CF911F9190
:1009A0000F91BF90AF909F908F900895CF92DF925C
:1009B000EF92FF92CF93DF936B017C016DE285E8AC
:1009C00092E00E94E002EC0166277727CB016C19C8
:1009D0007D098E099F094AE00E9495048C0F9D1F96
:1009E000DF91CF91FF90EF90DF90CF9008950C941E
:1009F0007504BC01990F880B990B97FD0C94D604D4
:100A00004AE00C949504CF93DF930E94F904EC0123
:100A10008AE291E00E9475048C0F9D1FDF91CF91B7
:100A200008958DE291E00E94F7048FE291E00E9428
:100A3000F70480910A0190910B010E94F90486E36A
:100A400091E00E94F70488E391E00E94F70480910E
:100A50007B0290917C020E94F90486E391E00E945F
:100A6000F70481E491E00E94F7048091790290916B
:100A70007A020E94F90486E391E00E94F70489E477
:100A800091E00E94F70480917702909178020E9491
:100A9000F90480E591E00C94870482E591E00E94DE
:100AA000F70480910601909107010E94F90480915A
:100AB0000601909107018230910599F03CF400976E
:100AC00069F00197A1F48EE591E013C083309105A0
:100AD00059F0049761F48FE691E00BC08AE591E04C
:100AE00008C084E691E005C08BE691E002C084E78F
:100AF00091E00E9487048DE791E00E94F7048091C5
:100B00001801909119010E94030583E891E00E9469
:100B1000F70480911601909117010E9403058AE85D
:100B200091E00E94F70480911001909111010E94C0
:100B3000030582E991E00E94F704809104019091FD
:100B400005010E94030589E991E00E94F704809164
:100B50000801909109010E9403058FE991E00E942C
:100B6000F70460911201709113018091140190912A
:100B7000150197FF03C00E94D60403C04AE00E94FB
:100B800095048AE291E00C9475048BB19BB1807856
:100B900089278BB981E090E090937402809373026F
:100BA00089EA91E00E948704609104017091050137
:100BB000072E000C880B990B0E9422029BB12BB1CF
:100BC000892F90E0809590958078992782278BB91E
:100BD00008950E94B30C67E971E08AE492E00E94F4
:100BE000350BBC0182E292E00E94C10C67E971E022
:100BF00080E090E00E94350B0E94170B9093210239
:100C00008093200208951F920F920FB60F92112425
:100C10002F933F938F939F93AF93BF938091220322
:100C200090912303A0912403B09125033091800279
:100C300023E0230F2D3720F40196A11DB11D05C01F
:100C400026E8230F0296A11DB11D209380028093F8
:100C5000220390932303A0932403B0932503809150
:100C6000810290918202A0918302B0918402019648
:100C7000A11DB11D8093810290938202A0938302F3
:100C8000B0938402BF91AF919F918F913F912F912B
:100C90000F900FBE0F901F9018951F920F920FB6D6
:100CA0000F9211242F933F934F935F936F937F93F2
:100CB0008F939F93AF93BF93EF93FF93E0910201C4
:100CC000F09103010995FF91EF91BF91AF919F9131
:100CD0008F917F916F915F914F913F912F910F90E5
:100CE0000FBE0F901F9018951F920F920FB60F9284
:100CF00011242F933F934F935F936F937F938F9321
:100D00009F93AF93BF93EF93FF93E0910001F09116
:100D100001010995FF91EF91BF91AF919F918F9143
:100D20007F916F915F914F913F912F910F900FBEE7
:100D30000F901F9018951F920F920FB60F921124CB
:100D40002F933F934F935F936F937F938F939F93D3
:100D5000AF93BF93EF93FF9385E892E00E94BF02A9
:100D6000FF91EF91BF91AF919F918F917F916F9183
:100D70005F914F913F912F910F900FBE0F901F9059
:100D800018951F920F920FB60F9211242F938F93E5
:100D90009F93EF93FF93E0919502F09196028081EB
:100DA000E0919B02F0919C0282FD12C090818091A3
:100DB0009E028F5F8F7320919F02821751F0E09106
:100DC0009E02F0E0EB57FD4F958F80939E0201C08D
:100DD0008081FF91EF919F918F912F910F900FBE86
:100DE0000F901F901895E5E8F2E01382128288EECA
:100DF00093E0A0E0B0E084839583A683B7838EE17F
:100E000091E09183808385EC90E09587848784ECE2
:100E100090E09787868780EC90E0918B808B81ECC7
:100E200090E0938B828B82EC90E0958B848B86ECA8
:100E300090E0978B868B118E128E138E148E2FB7A7
:100E4000F8948091220390912303A0912403B09100
:100E500025032FBF8093260390932703A093280395
:100E6000B09329030895CF93DF9300D000D0CDB77E
:100E7000DEB7789484B5826084BD84B5816084BD1A
:100E800085B5826085BD85B5816085BD80916E0028
:100E9000816080936E001092810080918100826059
:100EA0008093810080918100816080938100809196
:100EB00080008160809380008091B1008460809385
:100EC000B1008091B00081608093B000809191006A
:100ED0008260809391008091910081608093910065
:100EE000809190008160809390008091A100826049
:100EF0008093A1008091A10081608093A1008091E6
:100F0000A00081608093A00080917A00846080932B
:100F10007A0080917A00826080937A0080917A00D2
:100F2000816080937A0080917A00806880937A0053
:100F30001092C10061E087E00E94340161E084E02A
:100F40000E94340162E082E00E94340160E08EE0A1
:100F50000E94340160E08FE00E94340160E084E18F
:100F60000E94340160E085E10E94340160E085E088
:100F70000E94340160E086E00E943401E091950215
:100F8000F091960282E08083E0919102F0919202CA
:100F90001082E0919302F09194028FEC8083109282
:100FA0009D02E0919902F0919A0286E08083E0919F
:100FB0009702F0919802808180618083E09197028E
:100FC000F0919802808188608083E0919702F0918F
:100FD0009802808180688083E0919702F091980266
:100FE00080818F7D808385EC95E0909301018093D3
:100FF0000001809169008C7F826080936900E89A8B
:101000008EE480937C0062E070E080E090E00E94DB
:1010100022028FEA91E00E948704BE016F5F7F4F3A
:1010200080E090E00E94610489819A818530910579
:1010300018F00E94390404C09093070180930601C0
:10104000BE016F5F7F4F84E090E00E946104898160
:101050009A81893823E1920718F00E94390404C06C
:101060009093190180931801BE016F5F7F4F88E054
:1010700090E00E94610489819A81893823E1920776
:1010800018F00E94390404C0909317018093160150
:10109000BE016F5F7F4F8CE090E00E946104898108
:1010A0009A819093110180931001BE016F5F7F4F71
:1010B00080E190E00E94610489819A81893E23E069
:1010C000920718F00E94390404C0909305018093A0
:1010D0000401BE016F5F7F4F84E190E00E946104D4
:1010E00089819A81893E23E0920718F00E94390491
:1010F00004C090930901809308010E94870347E28E
:10110000242E4091100150911101052E000C660B08
:10111000770B2FB7F8948091220390912303A0912D
:101120002403B09125032FBF0091260310912703BC
:101130002091280330912903801B910BA20BB30B44
:1011400084179507A607B70708F46EC22FB7F8945F
:101150008091220390912303A0912403B091250351
:101160002FBF8093260390932703A0932803B09367
:10117000290300910E0110910F0110161106ECF4D5
:10118000FF24F39480917E0290917F02892B09F0D5
:10119000F12C8F2D90E090937F0280937E026F2D33
:1011A00084E00E94D4006F2D87E00E94D40001509B
:1011B000110910930F0100930E0185E892E00E943F
:1011C000A902181619061CF585E892E00E9487020C
:1011D000E09172028A3011F08D3061F481E08093E9
:1011E0007D02F0E0E65BFD4F10820E94EB0510925D
:1011F00072020DC0AE2FB0E0A65BBD4F8C93EF5FC7
:10120000E83219F0E093720202C0209272028091DB
:101210007D02882309F4D4C010927D0261ED71E053
:1012200082E292E00E94B80C892B89F4809120021E
:101230009091210297FDC2C090930701809306010F
:101240000E94870366E071E080E090E018C068EDDE
:1012500071E082E292E00E94B80C892B99F48091AF
:1012600020029091210297FDA9C0909319018093CB
:1012700018010E94C30368E171E084E090E00E94DD
:10128000DC039CC06DED71E082E292E00E94B80C3C
:10129000892B89F4809120029091210297FD8EC0C4
:1012A00090931701809316010E94AA0366E171E0F2
:1012B00088E090E0E4CF63EE71E082E292E00E9489
:1012C000B80C892B19F40E94070478C06AEE71E00B
:1012D00082E292E00E94B80C892BA9F360EF71E0E2
:1012E00082E292E00E94B80C892B79F4809120026E
:1012F0009091210297FD62C09093090180930801AB
:1013000068E071E084E190E0BACF65EF71E082E2DD
:1013100092E00E94B80C892BA9F480912002909150
:10132000210297FD4BC0092E000CAA0BBB0B80932A
:10133000120190931301A0931401B09315010E9420
:1013400018043CC06BEF71E082E292E00E94B80C9E
:10135000892BA9F480912002909121021816190678
:101360003CF481E090E0909376028093750226C071
:10137000892B21F510927602109275021FC061E050
:1013800072E082E292E00E94B80C892B51F068E092
:1013900072E082E292E00E94B80C892B29F40E944C
:1013A00064030E944D050AC06EE072E082E292E0A2
:1013B0000E94B80C892B11F40E9411050E94EB05C4
:1013C0000E94870380910A0190910B0190930D0177
:1013D00080930C0180917A00806480937A008091E0
:1013E0007A0086FDFCCF209178008091790030E072
:1013F000382B032E000C440B550B60911201709199
:10140000130180911401909115010E94D80B832E35
:1014100020930A0130930B01A0911801B09119019A
:1014200080911601909117019C838B83322E932E0D
:10143000990C99082FEF33E00E94FD0B2B013C0122
:10144000770C4408542C3201A32CB82CC92CD92C6D
:10145000E92CF92C092D192D9B01AC01642D742D5B
:10146000842D942D0E94060CC901330FAA0BBB0BCF
:1014700080931C0290931D02A0931E02B0931F0242
:101480002FEF33E0AB81BC810E94FD0B2B013C01AF
:10149000770C4408542C3201A32CB82CC92CD92C1D
:1014A000E92CF92C092D192D9B01AC01642D742D0B
:1014B000842D942D0E94060C4901092C000CAA08C9
:1014C000BB088092180290921902A0921A02B09260
:1014D0001B0291E490937C0080917A008064809359
:1014E0007A0080917A0086FDFCCF8091780020916F
:1014F000790090E0922B90937C0280937B0220E411
:1015000020937C0080917A00806480937A0080919F
:101510007A0086FDFCCF809178002091790090E0E0
:10152000922B90937A028093790220910C01309152
:101530000D0180910A0190910B01281B390B8091BC
:101540000801909109018217930734F091958195D4
:101550009109281739075CF40E94C3030E94AA036B
:1015600081E090E0909378028093770204C010921B
:1015700078021092770200910E0110910F0110165F
:101580001106F4F4FF24F39480917E0290917F027F
:10159000892B09F0F12C8F2D90E090937F0280939E
:1015A0007E026F2D84E00E94D4006F2D87E00E94A0
:1015B000D4000150110910930F0100930E0127C0B0
:1015C0008091770290917802019799F400917E02C0
:1015D00010917F02602F84E00E94D40081E090E0AF
:1015E000012B11F080E090E090937F0280937E02C7
:1015F0000EC08091770290917802892B41F410926D
:101600007F0210927E0260E084E00E94D40080910C
:101610007502909176021816190614F40E941105AD
:1016200010927402109273020E9449036ACDFC0169
:1016300088279927E89421912032E9F3293010F086
:101640002E30C8F32B3241F02D3239F4689404C0A7
:101650000E94610B820F911D219120532A30C0F30B
:101660001EF4909581959F4F08954AE253E00E94A1
:101670003A0B0895FA01A191B081009719F41097DF
:10168000E1F0CD01DC01CD010D90002011F4C0018D
:1016900013C0FB012191222319F02015D9F7F3CFB4
:1016A000FB012191201519F41E92119606C02223E8
:1016B000C1F70D900020A1F7D001FA01A193B083EA
:1016C00008957AE0979F902D879F802D910D11248A
:1016D0000895F999FECF92BD81BDF89A992780B5FA
:1016E0000895262FF999FECF1FBA92BD81BD20BD66
:1016F0000FB6F894FA9AF99A0FBE019608952F92B0
:101700003F924F925F926F927F928F929F92AF9291
:10171000BF92CF92DF92EF92FF920F931F93CF93DE
:10172000DF93CDB7DEB7CA1BDB0B0FB6F894DEBF75
:101730000FBECDBF09942A88398848885F846E849B
:101740007D848C849B84AA84B984C884DF80EE80E5
:10175000FD800C811B81AA81B981CE0FD11D0FB6EE
:10176000F894DEBF0FBECDBFED010895A1E21A2EA1
:10177000AA1BBB1BFD010DC0AA1FBB1FEE1FFF1F35
:10178000A217B307E407F50720F0A21BB30BE40B85
:10179000F50B661F771F881F991F1A9469F76095CC
:1017A0007095809590959B01AC01BD01CF01089586
:1017B000052E97FB1EF400940E94EF0B57FD07D0F7
:1017C0000E94B60B07FC03D04EF40C94EF0B50951F
:1017D0004095309521953F4F4F4F5F4F089590951D
:1017E0008095709561957F4F8F4F9F4F0895EE0FB5
:1017F000FF1F0590F491E02D09940E94A40CB7FFFF
:101800000895821B930B0895689401C0E894F92F02
:10181000F12B12F00C94380CA0E0B0E0E2E1FCE017
:101820000C94850B092E059422F40E94940C11232C
:1018300092F4F0E80F26FFEFE094F09400951095F5
:10184000B094C094D094A194BF0ACF0ADF0AEF0AE3
:10185000FF0A0F0B1F0B0E94430C07FC0E94940C05
:10186000CDB7DEB7ECE00C94A10B689401C0E8940E
:101870008F929F92CF93DF930E94430CDF91CF9181
:101880009F908F90089588249924F401E401B0E496
:101890009F93AA279A158B049C04ED05FE05CF059E
:1018A000D007A10798F4AD2FDC2FCF2FFE2FE92D05
:1018B000982C892E982F872F762F652F542F432F02
:1018C000322F2227B85031F7BF9127C01B2EBF916E
:1018D000BB27220F331F441F551F661F771F881F0A
:1018E000991F881C991CEE1FFF1FCC1FDD1FAA1F0C
:1018F000BB1F8A149B04EC05FD05CE05DF05A00780
:10190000B10748F08A189B08EC09FD09CE09DF09E8
:10191000A00BB10B21601A94E1F62EF49401AF01F3
:10192000BE01CD01000C089560957095809590954D
:1019300030954095509521953F4F4F4F5F4F6F4FDA
:101940007F4F8F4F9F4F0895A29FB001B39FC0015B
:10195000A39F700D811D1124911DB29F700D811DDB
:101960001124911D089581E090E0F8940C94C80C26
:10197000FB01DC018D91019080190110D9F3990BC5
:101980000895FB01DC0101900D920020E1F708951C
:04199000F894FFCFF9
:101994005C020000140002001400881388130C0079
:1019A4003200B42B1100220BAA0500000000E00253
:1019B4005D02A90287029B0227030D0A007B002215
:1019C400566363223A002C002256436F6D70223A0C
:1019D400002256466F6C223A0022457272223A0067
:1019E4007D004741494E5F46200020337800203374
:1019F4002E35780020342E333378002036780020BA
:101A04003131780020494E56414C49440056464FE6
:101A14004C200056434F4D5020004C4F4F505F44D4
:101A240020005452475F4420004859535420005624
:101A34004D5F434F4E53542000547269672100494F
:101A44006E697469616C697A696E67205079723065
:101A54002D5069657A6F2053656E736F722E2E2E2A
:101A6400004741494E5F460056464F4C0056434F8F
:101A74004D50004C4F4F505F44005452475F440058
:101A84004859535400434F4E53540044454255471C
:101A940000434F4E46494700524553455400535462
:041AA4004154450064
:00000001FF
