:100000000C94AA000C94A8060C9481060C94D200BF
:100010000C94D2000C94D2000C94D2000C94D20018
:100020000C94D2000C94D2000C94D2000C94D20008
:100030000C94D2000C94D2000C94D2000C94D200F8
:100040000C9437060C94D2000C94F5060C94CF0651
:100050000C94D2000C94D2000C94D2000C94D200D8
:100060000C94D2000C94D2000C94D2000C94D200C8
:100070000C94D2000C94D2000C94D2000C94D200B8
:100080000C94D2000C94D2000C94D2000C94D200A8
:100090000C94D2000C94D2000C94D2000C94D20098
:1000A0000C94D2000C94D2000C94D2000C94D20088
:1000B0000C94D200FB00FE00F100F5001F011F01AF
:1000C000020106010C0110011F0116011A0197011E
:1000D0009C01A101AB01F401F401B501BD01C50111
:1000E000CF01F401DA01E90100000000240027003B
:1000F0002A002D0000000000250028002B002E0003
:1001000004040404040404040202020202020303BD
:100110000303030302020305050505010204081099
:100120002040800102040810200102040810204031
:100130008040010204080A0D0E09000302000004B9
:1001400005080000000000000000000000000000A2
:100150000000270711241FBECFEFD8E0DEBFCDBFC0
:1001600023E0A0E1B2E001C01D92A832B207E1F79E
:1001700012E0A0E0B1E0EEE0FBE102C005900D92DC
:10018000A031B107D9F710E0CAEAD0E004C0219746
:10019000FE010E94AC0CC93AD107C9F70E9467075B
:1001A0000C94850D0C940000362F90E0FC01EA5C65
:1001B000FE4F4491FC01E55EFE4F2491FC01E050AE
:1001C000FF4F8491882309F44EC04423C1F150E0CD
:1001D000FA013297ED30F10590F5E65AFF4F0C9495
:1001E000AC0C909180009F7703C0909180009F7D20
:1001F0009093800024C094B59F7702C094B59F7DF2
:1002000094BD1DC09091B0009F7703C09091B00045
:100210009F7D9093B00013C0909190009F7703C092
:10022000909190009F7D9093900009C09091A000C4
:100230009F7703C09091A0009F7D9093A000E82F2E
:10024000F0E0EE0FFF1FEC50FF4FA591B4919FB768
:10025000F894311104C08C912095282302C0EC91B0
:100260002E2B2C939FBF0895CF93DF9390E0FC013A
:10027000E55EFE4F2491FC01E050FF4F84918823FE
:1002800061F190E0880F991FFC01E851FF4FC59183
:10029000D491FC01EC50FF4FA591B491611109C0BC
:1002A0009FB7F8948881209582238883EC912E2330
:1002B0000BC0623061F49FB7F8948881322F30957B
:1002C00083238883EC912E2B2C939FBF06C08FB77E
:1002D000F894E8812E2B28838FBFDF91CF9108956A
:1002E0001F93CF93DF93182FEB0161E00E9434013D
:1002F000209711F460E004C0CF3FD10539F461E0EC
:10030000812FDF91CF911F910C94D400E12FF0E069
:10031000EA5CFE4FE4918E2F90E0FC013297ED30C5
:10032000F10508F061C0E959FF4F0C94AC0C84B59D
:10033000806884BDC7BD5DC084B5806284BDC8BD12
:1003400058C080918000806880938000D09389009D
:10035000C09388004EC080918000806280938000AE
:10036000D0938B00C0938A0044C08091B000806815
:100370008093B000C093B3003CC08091B000806215
:100380008093B000C093B40034C080919000806826
:1003900080939000D0939900C09398002AC05A9AF5
:1003A00080919000806280939000D0939B00C093D6
:1003B0009A001FC08091A00080688093A000809167
:1003C000A0008F7B8093A000D093A900C093A800C9
:1003D00010C05A9A8091A00080628093A000D093B0
:1003E000AB00C093AA0005C0C038D1050CF087CF80
:1003F00081CFDF91CF911F9108953FB7F8948091FD
:100400007D0290917E02A0917F02B091800226B57C
:10041000A89B05C02F3F19F00196A11DB11D3FBF3C
:10042000BA2FA92F982F8827820F911DA11DB11DCA
:10043000BC01CD0143E0660F771F881F991F4A95C5
:10044000D1F708958F929F92AF92BF92CF92DF9291
:10045000EF92FF926B017C010E94FD014B015C0158
:10046000C114D104E104F104F1F00E94FD01DC01AA
:10047000CB0188199909AA09BB09883E9340A105B7
:10048000B10570F321E0C21AD108E108F10888EE45
:10049000880E83E0981EA11CB11CC114D104E10494
:1004A000F10419F7DDCFFF90EF90DF90CF90BF9070
:1004B000AF909F908F9008950895CF92DF92EF9222
:1004C000FF920F931F93CF93DF936C017A018B01FF
:1004D000C0E0D0E0CE15DF0581F0D8016D918D012F
:1004E000D601ED91FC910190F081E02DC6010995B6
:1004F000892B11F02196EECF7E01C701DF91CF91BC
:100500001F910F91FF90EF90DF90CF900895FC0125
:10051000918D828D981761F0828DDF01A80FB11D3A
:100520005D968C91928D9F5F9F73928F90E008955E
:100530008FEF9FEF0895FC01918D828D981731F018
:10054000828DE80FF11D858D90E008958FEF9FEF6C
:100550000895FC01918D228D892F90E0805C9F4F42
:10056000821B91098F739927089581E892E00E9478
:10057000A90221E0892B09F420E0822F0895FC01D3
:10058000848DDF01A80FB11DA35ABF4F2C91848D1C
:1005900090E001968F739927848FA689B7892C9351
:1005A000A089B1898C9180648C93938D848D9813EC
:1005B00006C00288F389E02D80818F7D80830895B5
:1005C000EF92FF920F931F93CF93DF93EC0181E0A3
:1005D000888F9B8D8C8D981305C0E889F98980815F
:1005E00085FD24C0F62E0B8D10E00F5F1F4F0F739B
:1005F0001127E02E8C8DE8120CC00FB607FCFACF45
:10060000E889F989808185FFF5CFCE010E94BF027C
:10061000F1CF8B8DFE01E80FF11DE35AFF4FF08201
:100620000B8FEA89FB898081806207C0EE89FF8990
:100630006083E889F98980818064808381E090E02B
:10064000DF91CF911F910F91FF90EF900895CF937D
:10065000DF93EC01888D8823C9F0EA89FB898081CA
:1006600085FD05C0A889B9898C9186FD0FC00FB69C
:1006700007FCF5CF808185FFF2CFA889B9898C91DD
:1006800085FFEDCFCE010E94BF02E7CFDF91CF9172
:10069000089580E090E0892B21F00E94B50281113D
:1006A0000DC080E090E0892B71F080E090E0892B14
:1006B00051F00E940000811104C008950E940000C2
:1006C000F0CF0C940000089582E090E09093050133
:1006D000809304018AEA95E090931B0180931A01AC
:1006E00082E29BE0909319018093180189E190E0E8
:1006F000909313018093120184E190E0909307019D
:10070000809306018CE390E090930B0180930A01A3
:1007100084EB9BE2A1E1B0E080931401909315017A
:10072000A0931601B0931701089580910401909150
:100730000501009729F460E086E00E9434010BC0B7
:1007400018161906A4F461E086E00E94340160E006
:1007500086E00E94D40060E085E00E94340160E001
:1007600085E10E94340160E084E10C943401089535
:1007700060911402709115028091160290911702F7
:1007800024E030E040E050E00E948D0C30931302F2
:1007900020931202609112027091130289E00C946E
:1007A0007001609118027091190280911A02909163
:1007B0001B0224E030E040E050E00E948D0C3093BA
:1007C000110220931002609110027091110283E0D7
:1007D0000C947001AF92BF92DF92EF92FF920F9351
:1007E0001F93CF93DF93EC017B018B015C0182E0CF
:1007F000A80EB11CF801D1908F01CE010E941E0CF1
:10080000D81621F06D2DCE010E94260C2196CA1516
:10081000DB0581F7C701DF91CF911F910F91FF9009
:10082000EF90DF90BF90AF900895FF920F931F93CA
:10083000CF93DF9304E111E0CCE1D0E0F801F19037
:100840008F01CE010E941E0CF81621F06F2DCE01F3
:100850000E94260C2196C032D10581F784E191E0F7
:10086000DF91CF911F910F91FF9008950E94640333
:1008700064E071E080E090E00E94EA036AE171E0E8
:1008800084E090E00E94EA0368E171E088E090E093
:100890000E94EA0362E171E08CE090E00E94EA03CA
:1008A00066E071E080E190E00E94EA036AE071E0B6
:1008B00084E190E00E94EA030C9415040F931F93C7
:1008C000CF93DF938C01EB010E941E0C8883C8013B
:1008D00001960E941E0C8983CE01DF91CF911F915A
:1008E0000F910895009769F0FC0101900020E9F74D
:1008F0003197AF01481B590BBC0181E892E00C9481
:100900005D0280E090E008950C947204CF93DF9331
:100910000E947204EC018CE291E00E9472048C0F40
:100920009D1FDF91CF9108958F929F92AF92BF92BA
:10093000CF92DF92EF92FF920F931F93CF93DF93AB
:10094000CDB7DEB7A1970FB6F894DEBF0FBECDBF0F
:100950006B017C0197FF2BC06DE281E892E00E9461
:10096000E0028C0122273327A9012C193D094E09E9
:100970005F0919A2CE0181967C019AE0892E912C03
:10098000A12CB12CCA01B901A50194010E946B0CE4
:10099000605DF70162937F01211531054105510525
:1009A00089F7CF010E947204800F911F1DC09B0127
:1009B000AC0119A28E010F5D1F4F8AE0C82ED12C09
:1009C000E12CF12CCA01B901A70196010E946B0C20
:1009D000605DF80162938F012115310541055105D4
:1009E00089F7CF010E947204A1960FB6F894DEBF7A
:1009F0000FBECDBFDF91CF911F910F91FF90EF9070
:100A0000DF90CF90BF90AF909F908F900895CF933D
:100A1000DF93BC01990F880B990B0E949404EC01A1
:100A20008CE291E00E9472048C0F9D1FDF91CF91A8
:100A30000895CF92DF92EF92FF928FE291E00E94B1
:100A4000840481E391E00E94840460910C01709120
:100A50000D01072E000C880B990B0E94940488E36B
:100A600091E00E9484048AE391E00E948404209132
:100A7000770230917802A0910C01B0910D010E9493
:100A8000B20CCC24CA9423E0D22EE12CF12CA70185
:100A900096010E948D0CCA01B9010E94940488E35A
:100AA00091E00E94840483E491E00E9484042091F8
:100AB000750230917602A0910C01B0910D010E9457
:100AC000B20CA70196010E948D0CCA01B9010E94C7
:100AD000940488E391E00E9484048BE491E00E94F6
:100AE00084046091730270917402072E000C880BCD
:100AF000990B0E94940482E591E0FF90EF90DF90C3
:100B0000CF900C94860484E591E00E948404609167
:100B1000040170910501072E000C880B990B0E94AF
:100B2000940480910401909105018230910599F01F
:100B30003CF4009769F00197A1F480E691E013C0BE
:100B40008330910559F0049761F481E791E00BC07F
:100B50008CE591E008C086E691E005C08DE691E065
:100B600002C086E791E00E9486048FE791E00E9430
:100B7000840480911A0190911B010E94070585E869
:100B800091E00E94840480911801909119010E94C3
:100B900007058CE891E00E948404809112019091F5
:100BA00013010E94070584E991E00E94840480916A
:100BB0000601909107010E9407058BE991E00E94D0
:100BC000840480910A0190910B010E94070581EA3B
:100BD00091E00E948404609114017091150180914C
:100BE0001601909117010E9494048CE291E00C94FC
:100BF00072048BB19BB1807889278BB981E090E03A
:100C000090937202809371026091060170910701C6
:100C1000072E000C880B990B0E9422029BB12BB16E
:100C2000892F90E0809590958078992782278BB9BD
:100C300008950E94700D69E971E088E492E00E94D5
:100C4000DD0BBC0180E292E00E947E0D69E971E05B
:100C500080E090E00E94DD0B0E94B60B60931C02C6
:100C600070931D0280931E0290931F0208951F929D
:100C70000F920FB60F9211242F933F938F939F9350
:100C8000AF93BF9380911E0390911F03A091200307
:100C9000B091210330917C0226E0230F2D3720F400
:100CA0000296A11DB11D05C029E8230F0396A11DC1
:100CB000B11D20937C0280931E0390931F03A09389
:100CC0002003B093210380917D0290917E02A09138
:100CD0007F02B09180020196A11DB11D80937D021B
:100CE00090937E02A0937F02B0938002BF91AF9158
:100CF0009F918F913F912F910F900FBE0F901F905A
:100D000018951F920F920FB60F9211242F933F93B5
:100D10004F935F936F937F938F939F93AF93BF9303
:100D2000EF93FF93E0910201F09103010995FF9188
:100D3000EF91BF91AF919F918F917F916F915F9153
:100D40004F913F912F910F900FBE0F901F901895CC
:100D50001F920F920FB60F9211242F933F934F9330
:100D60005F936F937F938F939F93AF93BF93EF9313
:100D7000FF93E0910001F09101010995FF91EF913E
:100D8000BF91AF919F918F917F916F915F914F91A3
:100D90003F912F910F900FBE0F901F9018951F92AB
:100DA0000F920FB60F9211242F933F934F935F939F
:100DB0006F937F938F939F93AF93BF93EF93FF9323
:100DC00081E892E00E94BF02FF91EF91BF91AF9145
:100DD0009F918F917F916F915F914F913F912F9153
:100DE0000F900FBE0F901F9018951F920F920FB685
:100DF0000F9211242F938F939F93EF93FF93E09182
:100E00009102F09192028081E0919702F091980214
:100E100082FD12C0908180919A028F5F8F73209122
:100E20009B02821751F0E0919A02F0E0EF57FD4FDC
:100E3000958F80939A0201C08081FF91EF919F91DD
:100E40008F912F910F900FBE0F901F901895E1E892
:100E5000F2E01382128288EE93E0A0E0B0E0848397
:100E60009583A683B78380E291E09183808385ECAC
:100E700090E09587848784EC90E09787868780EC64
:100E800090E0918B808B81EC90E0938B828B82EC55
:100E900090E0958B848B86EC90E0978B868B118EFF
:100EA000128E138E148E2FB7F89480911E0390919A
:100EB0001F03A0912003B09121032FBF8093220331
:100EC00090932303A0932403B09325030895CF9315
:100ED000DF93CDB7DEB728970FB6F894DEBF0FBE0D
:100EE000CDBF789484B5826084BD84B5816084BDB3
:100EF00085B5826085BD85B5816085BD80916E00B8
:100F0000816080936E0010928100809181008260E8
:100F10008093810080918100816080938100809125
:100F200080008160809380008091B1008460809314
:100F3000B1008091B00081608093B00080919100F9
:100F400082608093910080919100816080939100F4
:100F5000809190008160809390008091A1008260D8
:100F60008093A1008091A10081608093A100809175
:100F7000A00081608093A00080917A0084608093BB
:100F80007A0080917A00826080937A0080917A0062
:100F90008E7F80937A0080917A00806880937A00B7
:100FA0001092C10061E087E00E94340161E084E0BA
:100FB0000E94340162E082E00E94340160E08EE031
:100FC0000E94340160E08FE00E94340160E084E11F
:100FD0000E94340160E085E10E94340160E085E018
:100FE0000E94340160E086E00E943401E0919102A9
:100FF000F091920282E08083E0918D02F0918E0266
:101000001082E0918F02F091900287E68083109227
:101010009902E0919502F091960286E08083E0913A
:101020009302F0919402808180618083E091930229
:10103000F0919402808188608083E0919302F09126
:101040009402808180688083E0919302F091940201
:1010500080818F7D808389EF95E09093010180935B
:101060000001809169008C7F826080936900E89A1A
:101070008BEA91E00E948604BE016B5F7F4F80E0A7
:1010800090E00E945E048D819E818530910518F06C
:101090000E94360404C09093050180930401BE01B0
:1010A0006B5F7F4F84E090E00E945E048D819E81A3
:1010B000893823E1920718F00E94360404C0909307
:1010C0001B0180931A01BE016B5F7F4F88E090E0A7
:1010D0000E945E048D819E818938E3E19E0718F0AD
:1010E0000E94360404C09093190180931801BE0138
:1010F0006B5F7F4F8CE090E00E945E048D819E814B
:101100009093130180931201BE016B5F7F4F80E1CA
:1011100090E00E945E048D819E81893EF3E09F07EE
:1011200018F00E94360404C09093070180930601D2
:10113000BE016B5F7F4F84E190E00E945E048D8171
:101140009E81893E23E0920740F00E943604CE0142
:1011500001967C0104EB1BE205C090930B01809388
:101160000A01F5CFC8010E941E0CF70181937F018F
:101170000F5F1F4F083BFBE21F07A1F789819A8190
:10118000AB81BC81AC01BD01405452446F40710938
:1011900041345D406340710518F00E94360408C078
:1011A0008093140190931501A0931601B093170139
:1011B0000E94950347E2242E4091120150911301A1
:1011C000052E000C660B770B2FB7F89480911E0349
:1011D00090911F03A0912003B09121032FBF009194
:1011E0002203109123032091240330912503801BB7
:1011F000910BA20BB30B84179507A607B70708F44A
:10120000B2C22FB7F89480911E0390911F03A09152
:101210002003B09121032FBF8093220390932303D7
:10122000A0932403B09325030091100110911101A4
:1012300010161106ECF4FF24F39480917A02909139
:101240007B02892B09F0F12C8F2D90E090937B028B
:1012500080937A026F2D84E00E94D4006F2D87E086
:101260000E94D40001501109109311010093100144
:1012700081E892E00E94A902181619061CF581E87F
:1012800092E00E948702E09170028A3011F08D3066
:1012900061F481E080937902F0E0E85BFD4F108219
:1012A0000E941B06109270020DC0AE2FB0E0A85B2A
:1012B000BD4F8C93EF5FE83219F0E093700202C0EB
:1012C0002092700280917902882309F40FC1109254
:1012D00079026DEC71E080E292E00E94750D892B3D
:1012E000A9F480911C0290911D02A0911E02B09160
:1012F0001F02B7FDF9C090930501809304010E947D
:10130000950364E071E080E090E01CC064ED71E062
:1013100080E292E00E94750D892BB9F480911C0245
:1013200090911D02A0911E02B0911F02B7FDDCC07A
:1013300090931B0180931A010E94D1036AE171E02E
:1013400084E090E00E94EA03CFC069ED71E080E2A2
:1013500092E00E94750D892BA9F480911C02909156
:101360001D02A0911E02B0911F02B7FDBDC0909357
:101370001901809318010E94B80368E171E088E0C8
:1013800090E0E0CF6FED71E080E292E00E94750D99
:10139000892B99F480911C0290911D02A0911E024C
:1013A000B0911F02B7FDA0C090931301809312016A
:1013B00062E171E08CE090E0C5CF66EE71E080E222
:1013C00092E00E94750D892B99F480911C029091F6
:1013D0001D02A0911E02B0911F02B7FD85C090931F
:1013E00007018093060166E071E080E190E0AACFFA
:1013F0006CEE71E080E292E00E94750D892B99F409
:1014000080911C0290911D02A0911E02B0911F02BA
:10141000B7FD6AC090930B0180930A016AE071E006
:1014200084E190E08FCF61EF71E080E292E00E9472
:10143000750D892BA9F480911C0290911D02A09139
:101440001E02B0911F02B7FD4FC08093140190930C
:101450001501A0931601B09317010E94150444C012
:1014600067EF71E080E292E00E94750D892BE9F44C
:1014700080911C0290911D02A0911E02B0911F024A
:10148000181619061A061B063CF4E1E0F0E0F0938A
:101490000901E093080128C0892B8A2B8B2B21F5A9
:1014A00010920901109208011FC06DEF71E080E2F7
:1014B00092E00E94750D892B51F064E072E080E2A9
:1014C00092E00E94750D892B29F40E9464030E940A
:1014D00083050AC06AE072E080E292E00E94750D26
:1014E000892B11F40E9419050E941B060E94950386
:1014F00080910C0190910D0190930F0180930E014A
:10150000FEE4F0937C0062E070E080E090E00E94F6
:10151000220280917A00806480937A0080917A0020
:1015200086FDFCCF209178008091790030E0382B47
:10153000032E000C440B550B6091140170911501A2
:1015400080911601909117010E948D0C832E20939B
:101550000C0130930D01A0911A01B0911B018091F3
:1015600018019091190198878F83322E932E990C30
:1015700099082FEF33E00E94C90C2B013C01770C36
:101580004408542C3201A32CB82CC92CD92CE92C9A
:10159000F92C092D192D9B01AC01642D742D842D7E
:1015A000942D0E94D20CC901330FAA0BBB0B809360
:1015B000180290931902A0931A02B0931B022FEF06
:1015C00033E0AF81B8850E94C90C2B013C01770C38
:1015D0004408542C3201A32CB82CC92CD92CE92C4A
:1015E000F92C092D192D9B01AC01642D742D842D2E
:1015F000942D0E94D20C4901092C000CAA08BB08AA
:101600008092140290921502A0921602B0921702D4
:1016100091E490937C0080917A00806480937A00BA
:1016200080917A0086FDFCCF80917800209179002E
:1016300090E0922B9093780280937702E0E4E0931D
:101640007C0080917A00806480937A0080917A0097
:1016500086FDFCCF809178002091790090E0922B5C
:10166000909376028093750220910E0130910F01C4
:1016700080910C0190910D01281B390B80910A017A
:1016800090910B018217930734F091958195910900
:10169000281739075CF40E94D1030E94B80381E047
:1016A00090E0909374028093730204C010927402CD
:1016B0001092730200911001109111011016110681
:1016C000F4F4FF24F39480917A0290917B02892BA9
:1016D00009F0F12C8F2D90E090937B0280937A0299
:1016E0006F2D84E00E94D4006F2D87E00E94D4000B
:1016F00001501109109311010093100127C080912E
:10170000730290917402019799F400917A021091FA
:101710007B02602F84E00E94D40081E090E0012BE6
:1017200011F080E090E090937B0280937A020EC0EB
:101730008091730290917402892B41F410927B0284
:1017400010927A0260E084E00E94D4008091080147
:10175000909109011816190614F40E9419051092A7
:101760007202109271020E94490326CD1F93FC0160
:1017700099278827BC01E89411911032E9F31930B8
:1017800010F01E30C8F31B3251F01D3249F468943A
:1017900006C00E94090C610F711D811D911D1191E0
:1017A00010531A30B0F33EF4909580957095619582
:1017B0007F4F8F4F9F4F1F91089546E253E00E9445
:1017C000E20B0895FA01A191B081009719F41097E6
:1017D000E1F0CD01DC01CD010D90002011F4C0013C
:1017E00013C0FB012191222319F02015D9F7F3CF63
:1017F000FB012191201519F41E92119606C0222397
:10180000C1F70D900020A1F7D001FA01A193B08398
:101810000895592F482F372F262F660F771F881FBF
:10182000991F660F771F881F991F620F731F841FF0
:10183000951F660F771F881F991F0895F999FECF8E
:1018400092BD81BDF89A992780B50895262FF99900
:10185000FECF1FBA92BD81BD20BD0FB6F894FA9A93
:10186000F99A0FBE019608952F923F924F925F9280
:101870006F927F928F929F92AF92BF92CF92DF92A0
:10188000EF92FF920F931F93CF93DF93CDB7DEB705
:10189000CA1BDB0B0FB6F894DEBF0FBECDBF099499
:1018A0002A88398848885F846E847D848C849B84F0
:1018B000AA84B984C884DF80EE80FD800C811B81FE
:1018C000AA81B981CE0FD11D0FB6F894DEBF0FBE2D
:1018D000CDBFED010895A1E21A2EAA1BBB1BFD018D
:1018E0000DC0AA1FBB1FEE1FFF1FA217B307E407FF
:1018F000F50720F0A21BB30BE40BF50B661F771F57
:10190000881F991F1A9469F7609570958095909536
:101910009B01AC01BD01CF010895052E97FB1EF47C
:1019200000940E94A40C57FD07D00E946B0C07FC8A
:1019300003D04EF40C94A40C50954095309521950D
:101940003F4F4F4F5F4F08959095809570956195EB
:101950007F4F8F4F9F4F0895EE0FFF1F0590F4911B
:10196000E02D09940E94BA0C332312F48A1B9B0BBE
:101970000C94CB0CA29FB001B39FC001A39F700D2C
:10198000811D1124911DB29F700D811D1124911D87
:1019900008950E94BA0CB7FF0895821B930B089517
:1019A000689401C0E894F92FF12B12F00C94040D07
:1019B000A0E0B0E0EEEDFCE00C943A0C092E0594AA
:1019C00022F40E94600D112392F4F0E80F26FFEF3D
:1019D000E094F09400951095B094C094D094A194A4
:1019E000BF0ACF0ADF0AEF0AFF0A0F0B1F0B0E9484
:1019F0000F0D07FC0E94600DCDB7DEB7ECE00C9434
:101A0000560C689401C0E8948F929F92CF93DF9315
:101A10000E940F0DDF91CF919F908F9008958824A1
:101A20009924F401E401B0E49F93AA279A158B044A
:101A30009C04ED05FE05CF05D007A10798F4AD2F56
:101A4000DC2FCF2FFE2FE92D982C892E982F872F52
:101A5000762F652F542F432F322F2227B85031F77E
:101A6000BF9127C01B2EBF91BB27220F331F441FDE
:101A7000551F661F771F881F991F881C991CEE1F12
:101A8000FF1FCC1FDD1FAA1FBB1F8A149B04EC0580
:101A9000FD05CE05DF05A007B10748F08A189B08B1
:101AA000EC09FD09CE09DF09A00BB10B21601A94E6
:101AB000E1F62EF49401AF01BE01CD01000C0895B2
:101AC00060957095809590953095409550952195AD
:101AD0003F4F4F4F5F4F6F4F7F4F8F4F9F4F089537
:101AE00081E090E0F8940C94850DFB01DC018D9170
:101AF000019080190110D9F3990B0895FB01DC01C5
:0E1B000001900D920020E1F70895F894FFCFB8
:101B0E005C0200000200140001003C0088138813E0
:101B1E000C001900B42B1100220BAA0500000000C6
:101B2E00E0025D02A90287029B0227030D0A007BD9
:101B3E000022566363223A002C002256436F6D70CA
:101B4E00223A002256466F6C223A002245727222C9
:101B5E003A007D004741494E5F4620002033780011
:101B6E0020332E35780020342E333378002036780B
:101B7E0000203131780020494E56414C49440056E0
:101B8E00464F4C200056434F4D5020004C4F4F5067
:101B9E005F4420005452475F44200048595354205C
:101BAE0000564D5F434F4E53542000496E69746981
:101BBE00616C697A696E6720507972302D50696553
:101BCE007A6F2053656E736F722E2E2E0047414929
:101BDE004E5F460056464F4C0056434F4D50004CFC
:101BEE004F4F505F44005452475F4400485953547E
:101BFE0000434F4E535400444542554700434F4E09
:101C0E0046494700524553455400535441544500EC
:00000001FF
