:100000000C94AA000C94A6060C947F060C94D200C3
:100010000C94D2000C94D2000C94D2000C94D20018
:100020000C94D2000C94D2000C94D2000C94D20008
:100030000C94D2000C94D2000C94D2000C94D200F8
:100040000C9435060C94D2000C94F3060C94CD0657
:100050000C94D2000C94D2000C94D2000C94D200D8
:100060000C94D2000C94D2000C94D2000C94D200C8
:100070000C94D2000C94D2000C94D2000C94D200B8
:100080000C94D2000C94D2000C94D2000C94D200A8
:100090000C94D2000C94D2000C94D2000C94D20098
:1000A0000C94D2000C94D2000C94D2000C94D20088
:1000B0000C94D200FB00FE00F100F5001F011F01AF
:1000C000020106010C0110011F0116011A0197011E
:1000D0009C01A101AB01F401F401B501BD01C50111
:1000E000CF01F401DA01E90100000000240027003B
:1000F0002A002D0000000000250028002B002E0003
:1001000004040404040404040202020202020303BD
:100110000303030302020305050505010204081099
:100120002040800102040810200102040810204031
:100130008040010204080A0D0E09000302000004B9
:1001400005080000000000000000000000000000A2
:100150000000250711241FBECFEFD8E0DEBFCDBFC2
:1001600023E0AEE0B2E001C01D92A832B207E1F791
:1001700012E0A0E0B1E0EAE0FBE102C005900D92E0
:10018000AE30B107D9F710E0CAEAD0E004C0219739
:10019000FE010E94AA0CC93AD107C9F70E9465075F
:1001A0000C94830D0C940000362F90E0FC01EA5C67
:1001B000FE4F4491FC01E55EFE4F2491FC01E050AE
:1001C000FF4F8491882309F44EC04423C1F150E0CD
:1001D000FA013297ED30F10590F5E65AFF4F0C9495
:1001E000AA0C909180009F7703C0909180009F7D22
:1001F0009093800024C094B59F7702C094B59F7DF2
:1002000094BD1DC09091B0009F7703C09091B00045
:100210009F7D9093B00013C0909190009F7703C092
:10022000909190009F7D9093900009C09091A000C4
:100230009F7703C09091A0009F7D9093A000E82F2E
:10024000F0E0EE0FFF1FEC50FF4FA591B4919FB768
:10025000F894311104C08C912095282302C0EC91B0
:100260002E2B2C939FBF0895CF93DF9390E0FC013A
:10027000E55EFE4F2491FC01E050FF4F84918823FE
:1002800061F190E0880F991FFC01E851FF4FC59183
:10029000D491FC01EC50FF4FA591B491611109C0BC
:1002A0009FB7F8948881209582238883EC912E2330
:1002B0000BC0623061F49FB7F8948881322F30957B
:1002C00083238883EC912E2B2C939FBF06C08FB77E
:1002D000F894E8812E2B28838FBFDF91CF9108956A
:1002E0001F93CF93DF93182FEB0161E00E9434013D
:1002F000209711F460E004C0CF3FD10539F461E0EC
:10030000812FDF91CF911F910C94D400E12FF0E069
:10031000EA5CFE4FE4918E2F90E0FC013297ED30C5
:10032000F10508F061C0E959FF4F0C94AA0C84B59F
:10033000806884BDC7BD5DC084B5806284BDC8BD12
:1003400058C080918000806880938000D09389009D
:10035000C09388004EC080918000806280938000AE
:10036000D0938B00C0938A0044C08091B000806815
:100370008093B000C093B3003CC08091B000806215
:100380008093B000C093B40034C080919000806826
:1003900080939000D0939900C09398002AC05A9AF5
:1003A00080919000806280939000D0939B00C093D6
:1003B0009A001FC08091A00080688093A000809167
:1003C000A0008F7B8093A000D093A900C093A800C9
:1003D00010C05A9A8091A00080628093A000D093B0
:1003E000AB00C093AA0005C0C038D1050CF087CF80
:1003F00081CFDF91CF911F9108953FB7F8948091FD
:100400007D0290917E02A0917F02B091800226B57C
:10041000A89B05C02F3F19F00196A11DB11D3FBF3C
:10042000BA2FA92F982F8827820F911DA11DB11DCA
:10043000BC01CD0143E0660F771F881F991F4A95C5
:10044000D1F708958F929F92AF92BF92CF92DF9291
:10045000EF92FF926B017C010E94FD014B015C0158
:10046000C114D104E104F104F1F00E94FD01DC01AA
:10047000CB0188199909AA09BB09883E9340A105B7
:10048000B10570F321E0C21AD108E108F10888EE45
:10049000880E83E0981EA11CB11CC114D104E10494
:1004A000F10419F7DDCFFF90EF90DF90CF90BF9070
:1004B000AF909F908F9008950895CF92DF92EF9222
:1004C000FF920F931F93CF93DF936C017A018B01FF
:1004D000C0E0D0E0CE15DF0581F0D8016D918D012F
:1004E000D601ED91FC910190F081E02DC6010995B6
:1004F000892B11F02196EECF7E01C701DF91CF91BC
:100500001F910F91FF90EF90DF90CF900895FC0125
:10051000918D828D981761F0828DDF01A80FB11D3A
:100520005D968C91928D9F5F9F73928F90E008955E
:100530008FEF9FEF0895FC01918D828D981731F018
:10054000828DE80FF11D858D90E008958FEF9FEF6C
:100550000895FC01918D228D892F90E0805C9F4F42
:10056000821B91098F739927089581E892E00E9478
:10057000A90221E0892B09F420E0822F0895FC01D3
:10058000848DDF01A80FB11DA35ABF4F2C91848D1C
:1005900090E001968F739927848FA689B7892C9351
:1005A000A089B1898C9180648C93938D848D9813EC
:1005B00006C00288F389E02D80818F7D80830895B5
:1005C000EF92FF920F931F93CF93DF93EC0181E0A3
:1005D000888F9B8D8C8D981305C0E889F98980815F
:1005E00085FD24C0F62E0B8D10E00F5F1F4F0F739B
:1005F0001127E02E8C8DE8120CC00FB607FCFACF45
:10060000E889F989808185FFF5CFCE010E94BF027C
:10061000F1CF8B8DFE01E80FF11DE35AFF4FF08201
:100620000B8FEA89FB898081806207C0EE89FF8990
:100630006083E889F98980818064808381E090E02B
:10064000DF91CF911F910F91FF90EF900895CF937D
:10065000DF93EC01888D8823C9F0EA89FB898081CA
:1006600085FD05C0A889B9898C9186FD0FC00FB69C
:1006700007FCF5CF808185FFF2CFA889B9898C91DD
:1006800085FFEDCFCE010E94BF02E7CFDF91CF9172
:10069000089580E090E0892B21F00E94B50281113D
:1006A0000DC080E090E0892B71F080E090E0892B14
:1006B00051F00E940000811104C008950E940000C2
:1006C000F0CF0C940000089582E090E09093050133
:1006D000809304018AEA95E09093190180931801B0
:1006E00082E29BE0909317018093160182E390E0F1
:1006F000909311018093100184E190E090930701A1
:1007000080930601909309018093080184EB9BE29A
:10071000A1E1B0E08093120190931301A093140122
:10072000B0931501089580910401909105010097FF
:1007300029F460E086E00E9434010BC01816190607
:10074000A4F461E086E00E94340160E086E00E944B
:10075000D40060E085E00E94340160E085E10E9401
:10076000340160E084E10C94340108956091120238
:1007700070911302809114029091150224E030E0F0
:1007800040E050E00E948B0C309311022093100245
:10079000609110027091110289E00C9470016091D7
:1007A000160270911702809118029091190224E0AC
:1007B00030E040E050E00E948B0C30930F02209319
:1007C0000E0260910E0270910F0283E00C94700192
:1007D000AF92BF92DF92EF92FF920F931F93CF934E
:1007E000DF93EC017B018B015C0182E0A80EB11C60
:1007F000F801D1908F01CE010E941C0CD81621F077
:100800006D2DCE010E94240C2196CA15DB0581F7BF
:10081000C701DF91CF911F910F91FF90EF90DF9073
:10082000BF90AF900895FF920F931F93CF93DF93E4
:1008300002E111E0CCE1D0E0F801F1908F01CE01AE
:100840000E941C0CF81621F06F2DCE010E94240C82
:100850002196C032D10581F782E191E0DF91CF91FD
:100860001F910F91FF9008950E94640364E071E06E
:1008700080E090E00E94E80368E171E084E090E0AD
:100880000E94E80366E171E088E090E00E94E803DE
:1008900060E171E08CE090E00E94E80366E071E0C6
:1008A00080E190E00E94E80368E071E084E190E07C
:1008B0000E94E8030C9413040F931F93CF93DF93CC
:1008C0008C01EB010E941C0C8883C80101960E94D8
:1008D0001C0C8983CE01DF91CF911F910F91089558
:1008E000009769F0FC0101900020E9F73197AF0112
:1008F000481B590BBC0181E892E00C945D0280E03A
:1009000090E008950C947004CF93DF930E947004DC
:10091000EC018AE291E00E9470048C0F9D1FDF9130
:10092000CF9108958F929F92AF92BF92CF92DF9214
:10093000EF92FF920F931F93CF93DF93CDB7DEB764
:10094000A1970FB6F894DEBF0FBECDBF6B017C013F
:1009500097FF2BC06DE281E892E00E94E0028C01DB
:1009600022273327A9012C193D094E095F0919A235
:10097000CE0181967C019AE0892E912CA12CB12C7C
:10098000CA01B901A50194010E94690C605DF701DB
:1009900062937F01211531054105510589F7CF018A
:1009A0000E947004800F911F1DC09B01AC0119A211
:1009B0008E010F5D1F4F8AE0C82ED12CE12CF12C47
:1009C000CA01B901A70196010E94690C605DF80196
:1009D00062938F01211531054105510589F7CF013A
:1009E0000E947004A1960FB6F894DEBF0FBECDBF73
:1009F000DF91CF911F910F91FF90EF90DF90CF90FB
:100A0000BF90AF909F908F900895CF93DF93BC01DC
:100A1000990F880B990B0E949204EC018AE291E0F5
:100A20000E9470048C0F9D1FDF91CF910895CF928B
:100A3000DF92EF92FF928DE291E00E9482048FE2BA
:100A400091E00E94820460910A0170910B01072ECF
:100A5000000C880B990B0E94920486E391E00E949F
:100A6000820488E391E00E94820420917702309111
:100A70007802A0910A01B0910B010E94B00CCC2425
:100A8000CA9423E0D22EE12CF12CA70196010E94FA
:100A90008B0CCA01B9010E94920486E391E00E9486
:100AA000820481E491E00E948204209175023091D9
:100AB0007602A0910A01B0910B010E94B00CA7012F
:100AC00096010E948B0CCA01B9010E94920486E330
:100AD00091E00E94820489E491E00E948204609186
:100AE000730270917402072E000C880B990B0E9400
:100AF000920480E591E0FF90EF90DF90CF900C940E
:100B0000840482E591E00E94820460910401709166
:100B10000501072E000C880B990B0E94920480910E
:100B20000401909105018230910599F03CF4009701
:100B300069F00197A1F48EE591E013C0833091052F
:100B400059F0049761F48FE691E00BC08AE591E0DB
:100B500008C084E691E005C08BE691E002C084E71E
:100B600091E00E9484048DE791E00E9482048091CC
:100B70001801909119010E94050583E891E00E94F7
:100B8000820480911601909117010E9405058AE860
:100B900091E00E94820480911001909111010E94C5
:100BA000050582E991E00E948204809106019091FE
:100BB00007010E94050589E991E00E948204809165
:100BC0000801909109010E9405058FE991E00E94BA
:100BD000820460911201709113018091140190912F
:100BE00015010E9492048AE291E00C9470048BB18A
:100BF0009BB1807889278BB981E090E09093700257
:100C000080936F026091060170910701072E000C1E
:100C1000880B990B0E9422029BB12BB1892F90E087
:100C2000809590958078992782278BB908950E94A6
:100C30006E0D67E971E086E492E00E94DB0BBC0177
:100C40008EE192E00E947C0D67E971E080E090E027
:100C50000E94DB0B0E94B40B60931A0270931B027C
:100C600080931C0290931D0208951F920F920FB65D
:100C70000F9211242F933F938F939F93AF93BF9322
:100C800080911E0390911F03A0912003B091210336
:100C900030917C0226E0230F2D3720F40296A11D0F
:100CA000B11D05C029E8230F0396A11DB11D209396
:100CB0007C0280931E0390931F03A0932003B093A4
:100CC000210380917D0290917E02A0917F02B091DC
:100CD00080020196A11DB11D80937D0290937E023A
:100CE000A0937F02B0938002BF91AF919F918F91AB
:100CF0003F912F910F900FBE0F901F9018951F924C
:100D00000F920FB60F9211242F933F934F935F933F
:100D10006F937F938F939F93AF93BF93EF93FF93C3
:100D2000E0910201F09103010995FF91EF91BF91CC
:100D3000AF919F918F917F916F915F914F913F9173
:100D40002F910F900FBE0F901F9018951F920F922A
:100D50000FB60F9211242F933F934F935F936F938E
:100D60007F938F939F93AF93BF93EF93FF93E09104
:100D70000001F09101010995FF91EF91BF91AF91B1
:100D80009F918F917F916F915F914F913F912F91A3
:100D90000F900FBE0F901F9018951F920F920FB6D5
:100DA0000F9211242F933F934F935F936F937F93F1
:100DB0008F939F93AF93BF93EF93FF9381E892E05C
:100DC0000E94BF02FF91EF91BF91AF919F918F91D0
:100DD0007F916F915F914F913F912F910F900FBE37
:100DE0000F901F9018951F920F920FB60F9211241B
:100DF0002F938F939F93EF93FF93E0919102F09144
:100E000092028081E0919702F091980282FD12C0D7
:100E1000908180919A028F5F8F7320919B0282173D
:100E200051F0E0919A02F0E0EF57FD4F958F8093DB
:100E30009A0201C08081FF91EF919F918F912F9134
:100E40000F900FBE0F901F901895E1E8F2E013820B
:100E5000128288EE93E0A0E0B0E084839583A683BD
:100E6000B7838EE191E09183808385EC90E0958754
:100E7000848784EC90E09787868780EC90E0918B64
:100E8000808B81EC90E0938B828B82EC90E0958B51
:100E9000848B86EC90E0978B868B118E128E138E4E
:100EA000148E2FB7F89480911E0390911F03A09188
:100EB0002003B09121032FBF80932203909323033B
:100EC000A0932403B09325030895CF93DF93CDB768
:100ED000DEB728970FB6F894DEBF0FBECDBF78946B
:100EE00084B5826084BD84B5816084BD85B582602F
:100EF00085BD85B5816085BD80916E0081608093E0
:100F00006E00109281008091810082608093810048
:100F10008091810081608093810080918000816058
:100F2000809380008091B10084608093B1008091B3
:100F3000B00081608093B0008091910082608093C6
:100F40009100809191008160809391008091900048
:100F50008160809390008091A10082608093A100C5
:100F60008091A10081608093A1008091A0008160A8
:100F70008093A00080917A00846080937A008091B1
:100F80007A00826080937A0080917A008E7F8093CD
:100F90007A0080917A00806880937A001092C10074
:100FA00061E087E00E94340161E084E00E94340146
:100FB00062E082E00E94340160E08EE00E94340131
:100FC00060E08FE00E94340160E084E10E9434011F
:100FD00060E085E10E94340160E085E00E94340118
:100FE00060E086E00E943401E0919102F09192026B
:100FF00082E08083E0918D02F0918E021082E09178
:101000008F02F091900287E6808310929902E0911E
:101010009502F091960286E08083E0919302F09130
:101020009402808180618083E0919302F091940228
:10103000808188608083E0919302F09194028081A6
:1010400080688083E0919302F091940280818F7D8B
:10105000808387EF95E09093010180930001809158
:1010600069008C7F826080936900E89A89EA91E048
:101070000E948404BE016B5F7F4F80E090E00E947D
:101080005C048D819E818530910518F00E943404A6
:1010900004C09093050180930401BE016B5F7F4FF4
:1010A00084E090E00E945C048D819E81893823E178
:1010B000920718F00E94340404C0909319018093A1
:1010C0001801BE016B5F7F4F88E090E00E945C04D6
:1010D0008D819E818938E3E19E0718F00E943404D7
:1010E00004C09093170180931601BE016B5F7F4F80
:1010F0008CE090E00E945C048D819E8190931101B0
:1011000080931001BE016B5F7F4F80E190E00E94F1
:101110005C048D819E81893EF3E09F0718F00E9458
:10112000340404C09093070180930601BE016B5FF5
:101130007F4F84E190E00E945C048D819E81893E16
:1011400023E0920740F00E943404CE0101967C0116
:1011500004EB1BE205C09093090180930801F5CFD1
:10116000C8010E941C0CF70181937F010F5F1F4F84
:10117000083BFBE21F07A1F789819A81AB81BC8103
:10118000AC01BD01405452446F40710941345D408F
:101190006340710518F00E94340408C08093120166
:1011A00090931301A0931401B09315010E9493032F
:1011B00047E2242E4091100150911101052E000CA0
:1011C000660B770B2FB7F89480911E0390911F0345
:1011D000A0912003B09121032FBF00912203109111
:1011E00023032091240330912503801B910BA20B34
:1011F000B30B84179507A607B70708F4B2C22FB739
:10120000F89480911E0390911F03A0912003B09148
:1012100021032FBF8093220390932303A0932403E1
:10122000B093250300910E0110910F0110161106C5
:10123000ECF4FF24F39480917A0290917B02892B45
:1012400009F0F12C8F2D90E090937B0280937A022D
:101250006F2D84E00E94D4006F2D87E00E94D4009F
:101260000150110910930F0100930E0181E892E0E3
:101270000E94A902181619061CF581E892E00E9446
:101280008702E0916E028A3011F08D3061F481E0C6
:1012900080937902F0E0EA5BFD4F10820E9419060C
:1012A00010926E020DC0AE2FB0E0AA5BBD4F8C93C2
:1012B000EF5FE83219F0E0936E0202C020926E02F6
:1012C00080917902882309F40FC1109279026BECA6
:1012D00071E08EE192E00E94730D892BA9F4809158
:1012E0001A0290911B02A0911C02B0911D02B7FD41
:1012F000F9C090930501809304010E94930364E078
:1013000071E080E090E01CC062ED71E08EE192E05F
:101310000E94730D892BB9F480911A0290911B02DF
:10132000A0911C02B0911D02B7FDDCC09093190181
:10133000809318010E94CF0368E171E084E090E09F
:101340000E94E803CFC067ED71E08EE192E00E9459
:10135000730D892BA9F480911A0290911B02A09120
:101360001C02B0911D02B7FDBDC090931701809380
:1013700016010E94B60366E171E088E090E0E0CFDC
:101380006DED71E08EE192E00E94730D892B99F46E
:1013900080911A0290911B02A0911C02B0911D0233
:1013A000B7FDA0C0909311018093100160E171E03E
:1013B0008CE090E0C5CF64EE71E08EE192E00E9497
:1013C000730D892B99F480911A0290911B02A091C0
:1013D0001C02B0911D02B7FD85C090930701809358
:1013E000060166E071E080E190E0AACF6AEE71E06C
:1013F0008EE192E00E94730D892B99F480911A027C
:1014000090911B02A0911C02B0911D02B7FD6AC011
:10141000909309018093080168E071E084E190E015
:101420008FCF6FEE71E08EE192E00E94730D892BF9
:10143000A9F480911A0290911B02A0911C02B09114
:101440001D02B7FD4FC08093120190931301A0932A
:101450001401B09315010E94130444C065EF71E0BC
:101460008EE192E00E94730D892BE9F480911A02BB
:1014700090911B02A0911C02B0911D021816190632
:101480001A061B063CF4E1E0F0E0F0937202E093F0
:10149000710228C0892B8A2B8B2B21F510927202A6
:1014A000109271021FC06BEF71E08EE192E00E941A
:1014B000730D892B51F062E072E08EE192E00E94A0
:1014C000730D892B29F40E9464030E9481050AC0D0
:1014D00068E072E08EE192E00E94730D892B11F4B6
:1014E0000E9417050E9419060E94930380910A0129
:1014F00090910B0190930D0180930C01FEE4F09309
:101500007C0062E070E080E090E00E942202809126
:101510007A00806480937A0080917A0086FDFCCF07
:10152000209178008091790030E0382B032E000C58
:10153000440B550B609112017091130180911401BD
:10154000909115010E948B0C832E20930A013093F9
:101550000B01A0911801B091190180911601909191
:10156000170198878F83322E932E990C99082FEFAD
:1015700033E00E94C70C2B013C01770C4408542C2B
:101580003201A32CB82CC92CD92CE92CF92C092D0B
:10159000192D9B01AC01642D742D842D942D0E9476
:1015A000D00CC901330FAA0BBB0B8093160290938A
:1015B0001702A0931802B09319022FEF33E0AF8106
:1015C000B8850E94C70C2B013C01770C4408542CB1
:1015D0003201A32CB82CC92CD92CE92CF92C092DBB
:1015E000192D9B01AC01642D742D842D942D0E9426
:1015F000D00C4901092C000CAA08BB0880921202E9
:1016000090921302A0921402B092150291E490936A
:101610007C0080917A00806480937A0080917A00C7
:1016200086FDFCCF809178002091790090E0922B8C
:101630009093780280937702E0E4E0937C008091BD
:101640007A00806480937A0080917A0086FDFCCFD6
:10165000809178002091790090E0922B909376020F
:101660008093750220910C0130910D0180910A0147
:1016700090910B01281B390B809108019091090171
:101680008217930734F091958195910928173907AE
:101690005CF40E94CF030E94B60381E090E0909337
:1016A00074028093730204C0109274021092730249
:1016B00000910E0110910F0110161106F4F4FF2491
:1016C000F39480917A0290917B02892B09F0F12C9E
:1016D0008F2D90E090937B0280937A026F2D84E0AF
:1016E0000E94D4006F2D87E00E94D40001501109A0
:1016F00010930F0100930E0127C080917302909107
:101700007402019799F400917A0210917B02602F84
:1017100084E00E94D40081E090E0012B11F080E091
:1017200090E090937B0280937A020EC080917302C6
:1017300090917402892B41F410927B0210927A02EC
:1017400060E084E00E94D400809171029091720266
:101750001816190614F40E941705109270021092C0
:101760006F020E94490326CD1F93FC019927882709
:10177000BC01E89411911032E9F3193010F01E30D9
:10178000C8F31B3251F01D3249F4689406C00E9420
:10179000070C610F711D811D911D119110531A309D
:1017A000B0F33EF490958095709561957F4F8F4F83
:1017B0009F4F1F91089546E253E00E94E00B089569
:1017C000FA01A191B081009719F41097E1F0CD01D1
:1017D000DC01CD010D90002011F4C00113C0FB010C
:1017E0002191222319F02015D9F7F3CFFB01219184
:1017F000201519F41E92119606C02223C1F70D90F0
:101800000020A1F7D001FA01A193B0830895592FC8
:10181000482F372F262F660F771F881F991F660FB7
:10182000771F881F991F620F731F841F951F660FF4
:10183000771F881F991F0895F999FECF92BD81BD2A
:10184000F89A992780B50895262FF999FECF1FBAE7
:1018500092BD81BD20BD0FB6F894FA9AF99A0FBED9
:10186000019608952F923F924F925F926F927F92CE
:101870008F929F92AF92BF92CF92DF92EF92FF92A0
:101880000F931F93CF93DF93CDB7DEB7CA1BDB0B4C
:101890000FB6F894DEBF0FBECDBF09942A883988F1
:1018A00048885F846E847D848C849B84AA84B984F8
:1018B000C884DF80EE80FD800C811B81AA81B98104
:1018C000CE0FD11D0FB6F894DEBF0FBECDBFED0118
:1018D0000895A1E21A2EAA1BBB1BFD010DC0AA1F71
:1018E000BB1FEE1FFF1FA217B307E407F50720F089
:1018F000A21BB30BE40BF50B661F771F881F991F04
:101900001A9469F760957095809590959B01AC014C
:10191000BD01CF010895052E97FB1EF400940E948F
:10192000A20C57FD07D00E94690C07FC03D04EF4AF
:101930000C94A20C50954095309521953F4F4F4FF8
:101940005F4F089590958095709561957F4F8F4F6B
:101950009F4F0895EE0FFF1F0590F491E02D09941D
:101960000E94B80C332312F48A1B9B0B0C94C90CF5
:10197000A29FB001B39FC001A39F700D811D1124D0
:10198000911DB29F700D811D1124911D08950E941B
:10199000B80CB7FF0895821B930B0895689401C09B
:1019A000E894F92FF12B12F00C94020DA0E0B0E0B6
:1019B000ECEDFCE00C94380C092E059422F40E9406
:1019C0005E0D112392F4F0E80F26FFEFE094F094FF
:1019D00000951095B094C094D094A194BF0ACF0AFA
:1019E000DF0AEF0AFF0A0F0B1F0B0E940D0D07FC09
:1019F0000E945E0DCDB7DEB7ECE00C94540C6894F9
:101A000001C0E8948F929F92CF93DF930E940D0DB7
:101A1000DF91CF919F908F90089588249924F401AD
:101A2000E401B0E49F93AA279A158B049C04ED056A
:101A3000FE05CF05D007A10798F4AD2FDC2FCF2FDF
:101A4000FE2FE92D982C892E982F872F762F652F22
:101A5000542F432F322F2227B85031F7BF9127C080
:101A60001B2EBF91BB27220F331F441F551F661F1C
:101A7000771F881F991F881C991CEE1FFF1FCC1F02
:101A8000DD1FAA1FBB1F8A149B04EC05FD05CE05B4
:101A9000DF05A007B10748F08A189B08EC09FD098B
:101AA000CE09DF09A00BB10B21601A94E1F62EF4E8
:101AB0009401AF01BE01CD01000C089560957095B1
:101AC0008095909530954095509521953F4F4F4F7B
:101AD0005F4F6F4F7F4F8F4F9F4F089581E090E092
:101AE000F8940C94830DFB01DC018D910190801919
:101AF0000110D9F3990B0895FB01DC0101900D92BF
:0A1B00000020E1F70895F894FFCFEC
:101B0A005C020000020014001400881388130C0001
:101B1A003200B42B1100220BAA0500000000E002DB
:101B2A005D02A90287029B0227030D0A007B00229D
:101B3A00566363223A002C002256436F6D70223A94
:101B4A00002256466F6C223A0022457272223A00EF
:101B5A007D004741494E5F462000203378002033FC
:101B6A002E35780020342E33337800203678002042
:101B7A003131780020494E56414C49440056464F6F
:101B8A004C200056434F4D5020004C4F4F505F445D
:101B9A0020005452475F44200048595354200056AD
:101BAA004D5F434F4E53542000496E697469616C0E
:101BBA00697A696E6720507972302D5069657A6F3B
:101BCA002053656E736F722E2E2E004741494E5F69
:101BDA00460056464F4C0056434F4D50004C4F4F0F
:101BEA00505F44005452475F4400485953540043DD
:101BFA004F4E535400444542554700434F4E4649C1
:0E1C0A00470052455345540053544154450081
:00000001FF
