:1000000047C0B4C58CC569C068C067C066C065C05C
:1000100064C063C062C061C060C05FC05EC05DC0DC
:1000200034C55BC0EFC5C9C558C057C056C055C020
:1000300054C053C000000000240027002A00000024
:100040000000250028002B00040404040404040418
:10005000020202020202030303030303020203017A
:10006000020408102040800102040810200102044C
:100070000810204080400000000900030200000436
:100080000508000000000000000000000000340629
:1000900011241FBECFEFD4E0DEBFCDBF23E0AEE022
:1000A000B2E001C01D92A832B207E1F712E0A0E071
:1000B000B1E0E0EEF7E102C005900D92AE30B1077D
:1000C000D9F710E0C8E4D0E003C02197FE016CDB53
:1000D000C734D107D1F708D681CB92CF90E0FC018D
:1000E000EA58FF4F2491FC01E15AFF4F3491FC0183
:1000F000E85BFF4FE491EE2309F43CC0222339F181
:10010000243091F038F42230A9F0233001F584B581
:100110008F7D12C0283091F02930A1F02530B9F43C
:10012000809180008F7D03C0809180008F778093C5
:1001300080000DC084B58F7784BD09C08091B00068
:100140008F7703C08091B0008F7D8093B000F0E086
:10015000EE0FFF1FE25CFF4FA591B4919FB7F8949B
:10016000611104C08C913095382302C0EC913E2B74
:100170003C939FBF0895CF93DF9390E0FC01E15A39
:10018000FF4F2491FC01E85BFF4F8491882361F1CC
:1001900090E0880F991FFC01EC5CFF4FC591D49152
:1001A000FC01E25CFF4FA591B491611109C09FB7BA
:1001B000F8948881209582238883EC912E230BC0AC
:1001C000623061F49FB7F8948881322F3095832391
:1001D0008883EC912E2B2C939FBF06C08FB7F89489
:1001E000E8812E2B28838FBFDF91CF9108951F9335
:1001F000CF93DF93182FEB0161E0BDDF209711F45F
:1002000060E004C0CF3FD10531F461E0812FDF9180
:10021000CF911F9163CFE12FF0E0EA58FF4FE491B7
:10022000E430F9F048F4E230B9F0E330A1F584B5F8
:10023000806284BDC8BD34C0E830E9F0E93019F10E
:10024000E53049F580918000806280938000D093F2
:100250008B00C0938A0024C084B5806884BDC7BD6C
:100260001FC080918000806880938000D0938900B7
:10027000C093880015C08091B00080688093B00062
:10028000C093B3000DC08091B00080628093B00035
:10029000C093B40005C0C038D1050CF0B6CFB0CFC4
:1002A000DF91CF911F910895883028F08E3010F0A3
:1002B0008E5001C08FEF8770806480937C008091A6
:1002C0007A00806480937A0080917A0086FDFCCF6A
:1002D000809178002091790090E0922B08953FB7AB
:1002E000F89480917D0290917E02A0917F02B0915E
:1002F000800226B5A89B05C02F3F19F00196A11DCD
:10030000B11D3FBFBA2FA92F982F8827820F911DAB
:10031000A11DB11DBC01CD0143E0660F771F881FF1
:10032000991F4A95D1F708958F929F92AF92BF92ED
:10033000CF92DF92EF92FF926B017C01D0DF4B01F5
:100340005C01C114D104E104F104E9F0C8DFDC016F
:10035000CB0188199909AA09BB09883E9340A105D8
:10036000B10578F321E0C21AD108E108F10888EE5E
:10037000880E83E0981EA11CB11CC114D104E104B5
:10038000F10421F7DECFFF90EF90DF90CF90BF9088
:10039000AF909F908F9008950895CF92DF92EF9243
:1003A000FF920F931F93CF93DF936C017A018B0120
:1003B000C0E0D0E0CE15DF0581F0D8016D918D0150
:1003C000D601ED91FC910190F081E02DC6010995D7
:1003D000892B11F02196EECF7E01C701DF91CF91DD
:1003E0001F910F91FF90EF90DF90CF900895FC0147
:1003F000918D828D981761F0828DDF01A80FB11D5C
:100400005D968C91928D9F5F9F73928F90E008957F
:100410008FEF9FEF0895FC01918D828D981731F039
:10042000828DE80FF11D858D90E008958FEF9FEF8D
:100430000895FC01918D228D892F90E0805C9F4F63
:10044000821B91098F739927089581E892E0F1DF6B
:1004500021E0892B09F420E0822F0895FC01848D8E
:10046000DF01A80FB11DA35ABF4F2C91848D90E0DE
:1004700001968F739927848FA689B7892C93A089B9
:10048000B1898C9180648C93938D848D981306C070
:100490000288F389E02D80818F7D80830895EF921B
:1004A000FF920F931F93CF93DF93EC0181E0888F2E
:1004B0009B8D8C8D981305C0E889F989808185FD15
:1004C00023C0F62E0B8D10E00F5F1F4F0F73112707
:1004D000E02E8C8DE8120BC00FB607FCFACFE8892E
:1004E000F989808185FFF5CFCE01B8DFF2CF8B8D02
:1004F000FE01E80FF11DE35AFF4FF0820B8FEA89EE
:10050000FB898081806207C0EE89FF896083E8896A
:10051000F98980818064808381E090E0DF91CF91D0
:100520001F910F91FF90EF900895CF93DF93EC010F
:10053000888D8823C1F0EA89FB89808185FD05C00B
:10054000A889B9898C9186FD0EC00FB607FCF5CF3E
:10055000808185FFF2CFA889B9898C9185FFEDCF85
:10056000CE017CDFE8CFDF91CF91089580E090E06D
:10057000892B19F06ADF811143CD089582E090E064
:1005800090930501809304018AEA95E09093190104
:100590008093180182E29BE09093170180931601EB
:1005A00082E390E0909311018093100184E190E048
:1005B00090930701809306019093090180930801AD
:1005C00084EB9BE2A1E1B0E08093120190931301D0
:1005D000A0931401B09315010895809104019091A6
:1005E0000501009721F460E086E0C5DD09C018161A
:1005F00019067CF461E086E0BEDD60E086E06EDD39
:1006000060E085E0B8DD60E085E1B5DD60E084E1D3
:10061000B2CD08956091120270911302809114027C
:100620009091150224E030E040E050E002D8309391
:10063000110220931002609110027091110289E062
:10064000D6CD609116027091170280911802909198
:10065000190224E030E040E050E0EBD730930F0285
:1006600020930E0260910E0270910F0283E0BFCDC5
:10067000AF92BF92DF92EF92FF920F931F93CF93AF
:10068000DF93EC017B018B015C0182E0A80EB11CC1
:10069000F801D1908F01CE015DD7D81619F06D2DDC
:1006A000CE0160D72196CA15DB0591F7C701DF910E
:1006B000CF911F910F91FF90EF90DF90BF90AF907F
:1006C0000895FF920F931F93CF93DF9302E111E000
:1006D000CCE1D0E0F801F1908F01CE013BD7F816C4
:1006E00019F06F2DCE013ED72196C032D10591F77A
:1006F00082E191E0DF91CF911F910F91FF900895DA
:100700003DDF64E071E080E090E0B2DF68E171E03D
:1007100084E090E0ADDF66E171E088E090E0A8DF82
:1007200060E171E08CE090E0A3DF66E071E080E1E1
:1007300090E09EDF68E071E084E190E099DFC1CF56
:100740000F931F93CF93DF938C01EB0103D7888323
:10075000C8010196FFD68983CE01DF91CF911F9109
:100760000F910895009761F0FC0101900020E9F7D6
:100770003197AF01481B590BBC0181E892E00DCEC7
:1007800080E090E00895EECFCF93DF93EBDFEC01B4
:100790008AE291E0E7DF8C0F9D1FDF91CF910895F2
:1007A0008F929F92AF92BF92CF92DF92EF92FF9281
:1007B0000F931F93CF93DF93CDB7DEB7A1970FB6FB
:1007C000F894DEBF0FBECDBF6B017C0197FF28C040
:1007D0006DE281E892E063DE8C0122273327A901D4
:1007E0002C193D094E095F0919A2CE0181967C01A1
:1007F0009AE0892E912CA12CB12CCA01B901A50136
:100800009401F5D6605DF70162937F0121153105F2
:100810004105510591F7CF01A5DF800F911F1BC046
:100820009B01AC0119A28E010F5D1F4F8AE0C82EFB
:10083000D12CE12CF12CCA01B901A7019601D7D620
:10084000605DF80162938F01211531054105510565
:1008500091F7CF0187DFA1960FB6F894DEBF0FBEE8
:10086000CDBFDF91CF911F910F91FF90EF90DF905F
:10087000CF90BF90AF909F908F900895CF93DF93CC
:10088000BC01990F880B990B8BDFEC018AE291E098
:1008900069DF8C0F9D1FDF91CF910895CF92DF927A
:1008A000EF92FF928DE291E06EDF8FE291E06BDFDD
:1008B00060910A0170910B01072E000C880B990BB7
:1008C0006FDF86E391E05FDF88E391E05CDF2091FA
:1008D000770230917802A0910A01B0910B01C5D640
:1008E000CC24CA9423E0D22EE12CF12CA70196014E
:1008F000A0D6CA01B90154DF86E391E044DF81E468
:1009000091E041DF2091750230917602A0910A01B9
:10091000B0910B01AAD6A70196018BD6CA01B901E5
:100920003FDF86E391E02FDF89E491E02CDF6091E7
:10093000730270917402072E000C880B990B30DF44
:1009400080E591E0FF90EF90DF90CF901DCF82E5A2
:1009500091E019DF6091040170910501072E000CF0
:10096000880B990B1DDF8091040190910501823065
:10097000910599F03CF4009769F00197A1F48EE598
:1009800091E013C08330910559F0049761F48FE62C
:1009900091E00BC08AE591E008C084E691E005C0D3
:1009A0008BE691E002C084E791E0EEDE8DE791E016
:1009B000EADE809118019091190160DF83E891E0EF
:1009C000E2DE809116019091170158DF8AE891E0EC
:1009D000DADE809110019091110150DF82E991E0FF
:1009E000D2DE809106019091070148DF89E991E00C
:1009F000CADE809108019091090140DF8FE991E002
:100A0000C2DE6091120170911301809114019091E6
:100A10001501C6DE8AE291E0A5CE8BB19BB180784C
:100A200089278BB981E090E09093700280936F02E8
:100A30006091060170910701072E000C880B990B3D
:100A400073DC9BB12BB1892F90E0809590958078D5
:100A5000992782278BB90895ADD667E971E086E4BE
:100A600092E038D5BC018EE192E0B1D667E971E041
:100A700080E090E02FD508D560931A0270931B0296
:100A800080931C0290931D0208951F920F920FB63F
:100A90000F9211242F933F938F939F93AF93BF9304
:100AA00080911E0390911F03A0912003B091210318
:100AB00030917C0226E0230F2D3720F40296A11DF1
:100AC000B11D05C029E8230F0396A11DB11D209378
:100AD0007C0280931E0390931F03A0932003B09386
:100AE000210380917D0290917E02A0917F02B091BE
:100AF00080020196A11DB11D80937D0290937E021C
:100B0000A0937F02B0938002BF91AF919F918F918C
:100B10003F912F910F900FBE0F901F9018951F922D
:100B20000F920FB60F9211242F933F934F935F9321
:100B30006F937F938F939F93AF93BF93EF93FF93A5
:100B4000E0910201F09103010995FF91EF91BF91AE
:100B5000AF919F918F917F916F915F914F913F9155
:100B60002F910F900FBE0F901F9018951F920F920C
:100B70000FB60F9211242F933F934F935F936F9370
:100B80007F938F939F93AF93BF93EF93FF93E091E6
:100B90000001F09101010995FF91EF91BF91AF9193
:100BA0009F918F917F916F915F914F913F912F9185
:100BB0000F900FBE0F901F9018951F920F920FB6B7
:100BC0000F9211242F933F934F935F936F937F93D3
:100BD0008F939F93AF93BF93EF93FF9381E892E03E
:100BE0003DDCFF91EF91BF91AF919F918F917F91EC
:100BF0006F915F914F913F912F910F900FBE0F908A
:100C00001F9018951F920F920FB60F9211242F93D9
:100C10008F939F93EF93FF93E0919102F091920253
:100C20008081E0919702F091980282FD12C090813C
:100C300080919A028F5F8F7320919B02821751F0EF
:100C4000E0919A02F0E0EF57FD4F958F80939A0262
:100C500001C08081FF91EF919F918F912F910F9013
:100C60000FBE0F901F901895E1E8F2E013821282F8
:100C700088EE93E0A0E0B0E084839583A683B783F9
:100C80008EE191E09183808385EC90E09587848765
:100C900084EC90E09787868780EC90E0918B808B46
:100CA00081EC90E0938B828B82EC90E0958B848B2F
:100CB00086EC90E0978B868B118E128E138E148E9D
:100CC0002FB7F89480911E0390911F03A0912003E9
:100CD000B09121032FBF8093220390932303A0930D
:100CE0002403B09325030895CF93DF93CDB7DEB7E8
:100CF0002C970FB6F894DEBF0FBECDBF789484B5A5
:100D0000826084BD84B5816084BD85B5826085BD07
:100D100085B5816085BD80916E00816080936E0095
:100D20001092810080918100826080938100809187
:100D30008100816080938100809180008160809338
:100D400080008091B10084608093B1008091B000F8
:100D500081608093B00080917A00846080937A00F3
:100D600080917A00826080937A0080917A008E7FF1
:100D700080937A0080917A00806880937A00109244
:100D8000C10061E087E0F7D961E084E0F4D962E076
:100D900082E0F1D960E08EE0EED960E08FE0EBD93F
:100DA00060E084E1E8D960E085E1E5D960E085E0D4
:100DB000E2D960E086E0DFD9E0919102F091920201
:100DC00082E08083E0918D02F0918E021082E091AA
:100DD0008F02F091900287E6808310929902E09151
:100DE0009502F091960286E08083E0919302F09163
:100DF0009402808180618083E0919302F09194025B
:100E0000808188608083E0919302F09194028081D8
:100E100080688083E0919302F091940280818F7DBD
:100E200080838DE095E09093010180930001809193
:100E300069008C7F826080936900E89A89EA91E07A
:100E4000A3DCBE016B5F7F4F80E090E079DC8D8199
:100E50009E818530910510F053DC04C0909305010C
:100E600080930401BE016B5F7F4F84E090E068DCFB
:100E70008D819E81893823E1920710F041DC04C006
:100E80009093190180931801BE016B5F7F4F88E03A
:100E900090E056DC8D819E81893833E1930710F014
:100EA0002FDC04C09093170180931601BE016B5F85
:100EB0007F4F8CE090E044DC8D819E819093110106
:100EC00080931001BE016B5F7F4F80E190E038DCC2
:100ED0008D819E81893E43E0940710F011DC04C0AF
:100EE0009093070180930601BE016B5F7F4F84E101
:100EF00090E026DC8D819E81893E53E0950738F095
:100F0000FFDBCE0101967C0104EB1BE205C0909350
:100F1000090180930801F5CFC8011CD3F701819323
:100F20007F010F5F1F4F083BFBE21F07A9F7898175
:100F30009A81AB81BC81AC01BD01405452446F40E9
:100F4000710941345D406340710510F0D9DB08C080
:100F50008093120190931301A0931401B093150193
:100F60003CDB66246394712C409110015091110177
:100F7000052E000C660B770B2FB7F89480911E039B
:100F800090911F03A0912003B09121032FBF0091E6
:100F90002203109123032091240330912503801B09
:100FA000910BA20BB30B84179507A607B70708F49C
:100FB00069C22FB7F89480911E0390911F03A091EE
:100FC0002003B09121032FBF80932203909323032A
:100FD000A0932403B093250300910E0110910F01FB
:100FE00010161106DCF4FF24F39480917A0290919C
:100FF0007B02892B09F0F12C8F2D90E090937B02DE
:1010000080937A026F2D84E069D86F2D87E066D8CF
:101010000150110910930F0100930E0181E892E035
:1010200008DA1816190614F581E892E0E0D9E09183
:101030006E028A3011F08D3059F431E0309379022C
:10104000F0E0EA5BFD4F108208DD10926E020EC0E8
:10105000AE2FB0E0AA5BBD4F8C93EF5FE83219F082
:10106000E0936E0203C047E240936E0280917902E2
:10107000882309F4F9C0109279026BEC71E08EE1DB
:1010800092E09CD3892BA1F480911A0290911B02CB
:10109000A0911C02B0911D02B7FDE5C0909305011F
:1010A000809304019ADA64E071E080E090E01AC075
:1010B00062ED71E08EE192E081D3892BA9F48091F9
:1010C0001A0290911B02A0911C02B0911D02B7FD63
:1010D000CAC09093190180931801B3DA68E171E0F6
:1010E00084E090E0C5DABFC067ED71E08EE192E088
:1010F00065D3892BA1F480911A0290911B02A091D3
:101100001C02B0911D02B7FDAEC0909317018093F1
:10111000160180DA66E171E088E090E0E3CF6DEDE2
:1011200071E08EE192E04AD3892B99F480911A0202
:1011300090911B02A0911C02B0911D02B7FD93C0BB
:10114000909311018093100160E171E08CE090E0D8
:10115000C9CF64EE71E08EE192E030D3892B99F42F
:1011600080911A0290911B02A0911C02B0911D0265
:10117000B7FD79C0909307018093060166E071E0A6
:1011800080E190E0AFCF6AEE71E08EE192E016D39D
:10119000892B99F480911A0290911B02A0911C0254
:1011A000B0911D02B7FD5FC09093090180930801C3
:1011B00068E071E084E190E095CF6FEE71E08EE140
:1011C00092E0FCD2892BA1F480911A0290911B022B
:1011D000A0911C02B0911D02B7FD45C08093120181
:1011E00090931301A0931401B09315016ADA3BC0E8
:1011F00065EF71E08EE192E0E1D2892BD9F4809124
:101200001A0290911B02A0911C02B0911D021816A7
:1012100019061A061B062CF4709272026092710273
:1012200022C0892B8A2B8B2BF1F410927202109220
:10123000710219C06BEF71E08EE192E0BFD2892B91
:1012400041F062E072E08EE192E0B8D2892B19F4AD
:1012500095D97DDB08C068E072E08EE192E0AED205
:10126000892B09F41BDBF9DBB8D980910A01909135
:101270000B0190930D0180930C015EE450937C0070
:1012800062E070E080E090E04FD880917A00806466
:1012900080937A0080917A0086FDFCCF20917800BF
:1012A0008091790030E0382B032E000C440B550B55
:1012B00060911201709113018091140190911501B8
:1012C000B8D119012A0130930B0120930A01A09192
:1012D0001801B091190180911601909117019C8716
:1012E0008B87932C990C99082FEF33E0D0D19B0179
:1012F000AC01550F220B322FA9012F833887498764
:101300005A875101C92CD92CE92CF92C092D192DFA
:101310009B01AC016F81762F862F962FC0D1C9011A
:10132000330FAA0BBB0B8093160290931702A09366
:101330001802B09319022FEF33E0AB85BC85A7D11B
:101340009B01AC01550F220B322FA9012F83388747
:1013500049875A875101C92CD92CE92CF92C092D20
:10136000192D9B01AC016F81762F862F962F97D177
:10137000C901330FAA0BBB0B809312029093130287
:10138000A0931402B09315028FE08ED79093780249
:10139000809377028EE088D79093760280937502CF
:1013A00020910C0130910D0122193309809108011F
:1013B000909109018217930734F0919581959109D5
:1013C000281739073CF43DD925D9709274026092F0
:1013D000730204C0109274021092730200910E0105
:1013E00010910F0110161106E4F4FF24F39480917C
:1013F0007A0290917B02892B09F0F12C8F2D90E0DD
:1014000090937B0280937A026F2D84E067D66F2DD4
:1014100087E064D60150110910930F0100930E016B
:1014200025C08091730290917402019791F400910C
:101430007A0210917B02602F84E050D681E090E028
:10144000012B11F080E090E090937B0280937A0270
:101450000DC08091730290917402892B39F410921F
:101460007B0210927A0260E084E038D680917102AB
:1014700090917202181619060CF410DA109270028C
:1014800010926F0273D870CD1F93FC0199278827A3
:10149000BC01E89411911032E9F3193010F01E30BC
:1014A000C8F31B3249F01D3241F4689405C03DD0A9
:1014B000610F711D811D911D119110531A30B8F3E8
:1014C0003EF490958095709561957F4F8F4F9F4F1B
:1014D0001F91089546E253E001D00895FA01A191C9
:1014E000B081009719F41097E1F0CD01DC01CD0136
:1014F0000D90002011F4C00113C0FB0121912223A3
:1015000019F02015D9F7F3CFFB012191201519F41B
:101510001E92119606C02223C1F70D900020A1F75C
:10152000D001FA01A193B0830895592F482F372F86
:10153000262F660F771F881F991F660F771F881F3A
:10154000991F620F731F841F951F660F771F881FD7
:10155000991F0895F999FECF92BD81BDF89A9927F8
:1015600080B50895262FF999FECF1FBA92BD81BD8F
:1015700020BD0FB6F894FA9AF99A0FBE0196089515
:101580002F923F924F925F926F927F928F929F9293
:10159000AF92BF92CF92DF92EF92FF920F931F9381
:1015A000CF93DF93CDB7DEB7CA1BDB0B0FB6F89432
:1015B000DEBF0FBECDBF09942A88398848885F8472
:1015C0006E847D848C849B84AA84B984C884DF80E3
:1015D000EE80FD800C811B81AA81B981CE0FD11DC7
:1015E0000FB6F894DEBF0FBECDBFED010895A1E2A6
:1015F0001A2EAA1BBB1BFD010DC0AA1FBB1FEE1F8D
:10160000FF1FA217B307E407F50720F0A21BB30BD7
:10161000E40BF50B661F771F881F991F1A9469F753
:1016200060957095809590959B01AC01BD01CF01AF
:101630000895052E97FB16F400940FD057FD05D0A2
:10164000D6DF07FC02D046F408C05095409530958F
:1016500021953F4F4F4F5F4F08959095809570951E
:1016600061957F4F8F4F9F4F089505D0332312F41C
:101670008A1B9B0B0DC0A29FB001B39FC001A39F0B
:1016800001D0B29F700D811D1124911D0895F3DFCB
:10169000B7FF0895821B930B0895689401C0E894E6
:1016A000F92FF12B0AF027C0A0E0B0E0E9E5FBE05C
:1016B0006DCF092E05941AF467D0112392F4F0E847
:1016C0000F26FFEFE094F09400951095B094C0942D
:1016D000D094A194BF0ACF0ADF0AEF0AFF0A0F0BCA
:1016E0001F0B13D007FC50D0CDB7DEB7ECE06ACFAC
:1016F000689401C0E8948F929F92CF93DF9305D0B6
:10170000DF91CF919F908F90089588249924F401C0
:10171000E401B0E41B2ED4019D158E049F04E00764
:10172000F10738F4FC014B01CA01B901AD019E017A
:101730001694220F331F441F551F661F771F881FE3
:10174000991F881C991CEE1FFF1FCC1FDD1FAA1FAD
:10175000BB1F8A149B04EC05FD05CE05DF05A00721
:10176000B10748F08A189B08EC09FD09CE09DF098A
:10177000A00BB10B21601A94E1F62EF49401AF0195
:10178000BE01CD01000C08956095709580959095EF
:1017900030954095509521953F4F4F4F5F4F6F4F7C
:1017A0007F4F8F4F9F4F0895EE0FFF1F0590F491CD
:1017B000E02D099481E090E0F89410C0FB01DC0179
:1017C0008D91019080190110D9F3990B0895FB01B7
:1017D000DC0101900D920020E1F70895F894FFCF0D
:1017E000CC010000020014001400881388130C00C0
:1017F0003200B42B1100220BAA05000000004F029A
:10180000CD011902F7010B0295020D0A007B00229F
:10181000566363223A002C002256436F6D70223AC1
:10182000002256466F6C223A0022457272223A001C
:101830007D004741494E5F46200020337800203329
:101840002E35780020342E3333780020367800206F
:101850003131780020494E56414C49440056464F9C
:101860004C200056434F4D5020004C4F4F505F448A
:1018700020005452475F44200048595354200056DA
:101880004D5F434F4E53542000496E697469616C3B
:10189000697A696E6720507972302D5069657A6F68
:1018A0002053656E736F722E2E2E004741494E5F96
:1018B000460056464F4C0056434F4D50004C4F4F3C
:1018C000505F44005452475F44004859535400430A
:1018D0004F4E535400444542554700434F4E4649EE
:0E18E0004700524553455400535441544500AF
:00000001FF
