:100000000C94B1000C9489090C9462090C94D900E9
:100010000C94D9000C94D9000C94D9000C94D900FC
:100020000C94D9000C94D9000C94D9000C94D900EC
:100030000C94D9000C94D9000C94D9000C94D900DC
:100040000C94CC0B0C94D9000C94D6090C94B009E8
:100050000C94D9000C94D9000C94D9000C94D900BC
:100060000C94D9000C94D9000C94D9000C94D900AC
:100070000C94D9000C94D9000C94D9000C94D9009C
:100080000C94D9000C94D9000C94D9000C94D9008C
:100090000C94D9000C94D9000C94D9000C94D9007C
:1000A0000C9418030C94D9000C94D9000C94D9002A
:1000B0000C94D900D006E106FB060C071B072A07A3
:1000C000390753076207A5077E07A5078807970723
:1000D0000B0B0E0B010B050B2F0B2F0B120B160B23
:1000E0001C0B200B2F0B260B2A0B000000002300FB
:1000F000260029002C0000000000240027002A0010
:100100002D0000000000250028002B002E00040414
:1001100004040404040402020202020203030303AF
:10012000030302020305050505010204081020402F
:1001300080010204081020010204081020408040C1
:10014000010204080A0D0E0900030200000405085C
:10015000000000000000000000000000000000009F
:100160006B1111241FBECFEFD8E0DEBFCDBF28E05A
:10017000AAE9B6E001C01D92AB36B207E1F716E07E
:10018000A0E0B1E0EAE6FAE202C005900D92AA39D9
:10019000B107D9F710E0C1EBD0E004C02197FE0110
:1001A0000E94B712C03BD107C9F70E94160C0C94ED
:1001B00033150C940000FC01538D448D252F30E045
:1001C000842F90E0821B930B541710F0CF96089564
:1001D00001970895FC01918D828D981761F0828DB1
:1001E000DF01A80FB11D5D968C91928D9F5F9F736B
:1001F000928F90E008958FEF9FEF0895FC01918D0D
:10020000828D981731F0828DE80FF11D858D90E079
:1002100008958FEF9FEF0895FC01918D228D892F16
:1002200090E0805C9F4F821B91098F7399270895FE
:1002300080E090E0892B21F00E940F0981110DC010
:1002400080E090E0892B71F080E090E0892B51F004
:100250000E940000811104C008950E940000F0CFA8
:100260000C940000089585ED8093DC008091DC0003
:1002700084FDFCCF1092300708954091E306262FAD
:1002800030E0240F311D21323105DCF4209130079C
:100290002430C9F4FC0180E090E0861758F43091D6
:1002A000E3062191DC01AD53B94FA30FB11D2C938F
:1002B0000196F3CF8091E306680F6093E30680E038
:1002C000089581E0089582E00895E0913507F09166
:1002D0003607309729F010923207109231070994AF
:1002E0000895CF93DF93AC01E0913707F091380781
:1002F0003097F1F090913407809133079817C0F050
:1003000090E0292F30E02617370754F4D901AD5576
:10031000B94FEA01C20FD31F28812C939F5FF1CF01
:100320001092340760933307CB01DF91CF9109948A
:10033000DF91CF9108950895E091340780913307BC
:10034000E81730F4F0E0ED55F94F808190E0089522
:100350008FEF9FEF0895909134078091330798179E
:1003600050F4E92FF0E0ED55F94F208130E09F5F28
:100370009093340702C02FEF3FEFC9010895809199
:10038000330790E020913407821B91090895CF93A1
:10039000DF93CB01EA01642F0E943D01CE01DF9182
:1003A000CF910895CF93DF931F92CDB7DEB76983C6
:1003B00061E0CE0101960E943D0181E090E00F9046
:1003C000DF91CF910895089580E090E0089595B170
:1003D00045B1262F30E03195219531092927582F35
:1003E000577081E090E002C0880F991F5A95E2F79C
:1003F000B90168237923642765B908958F929F9284
:10040000AF92BF92EF92FF920F931F93CF93DF9320
:10041000CDB7DEB72A970FB6F894DEBF0FBECDBFBB
:10042000EDB6FEB68091A206893008F4A8C08B30E4
:1004300008F43FC08B3009F0A2C000910A0110916E
:100440000B0119830A832091A3073091A407D801D7
:100450000E94BD1288248A9423E0922EA12CB12CF4
:10046000A50194010E9498123B832C83A091A107BF
:10047000B091A20798010E94BD12A50194010E94AB
:1004800098123D832E8380919F079091A0079F83B0
:1004900088878091390790913A0799878A874AE03F
:1004A00050E0BE016F5F7F4F88E498E00E94C70173
:1004B00066C08DB79EB780970FB6F8949EBF0FBEEB
:1004C0008DBF6DB77EB76F5F7F4F809104019091B4
:1004D0000501EDB7FEB79183FB018183809118017F
:1004E0009091190192838383809116019091170155
:1004F0009483858380911001909111019683878365
:100500008091060190910701908781878091080171
:1005100090910901928783878091430790914407C6
:1005200094878587809145079091460796878787AE
:100530008091470790914807908B818B80911201A1
:10054000909113012091140130911501328B238B6E
:10055000948B858BADB7BEB757968AE0EEE3F1E09A
:1005600001900D928A95E1F740E250E088E498E02E
:100570000E94C7010FB6F894FEBE0FBEEDBE0FB6C7
:10058000F894FEBE0FBEEDBE2A960FB6F894DEBFFD
:100590000FBECDBFDF91CF911F910F91FF90EF90D4
:1005A000BF90AF909F908F900895FC01848DDF01E4
:1005B000A80FB11DA35ABF4F2C91848D90E00196D6
:1005C0008F739927848FA689B7892C93A089B189C5
:1005D0008C9180648C93938D848D981306C00288CF
:1005E000F389E02D80818F7D80830895CF93DF9301
:1005F000EC01888D8823C9F0EA89FB89808185FD1B
:1006000005C0A889B9898C9186FD0FC00FB607FC7B
:10061000F5CF808185FFF2CFA889B9898C9185FFBC
:10062000EDCFCE010E94D502E7CFDF91CF910895A3
:100630001F920F920FB60F9211242F933F934F9357
:100640005F936F937F938F939F93AF93BF93EF933A
:10065000FF938091D900887F803609F49CC068F5AB
:10066000883209F45BC090F4803109F454C038F446
:10067000882309F4F6C0883009F44DC0F6C08831EB
:1006800009F44CC0803209F45DC0EFC0803409F435
:1006900068C048F4803309F455C0883309F0E5C0D8
:1006A00080930607D8C0803509F44FC0883509F417
:1006B0005DC0883409F0D9C0D6C0883909F4C7C0F4
:1006C000A8F4883709F467C038F4883609F463C0A1
:1006D000803709F460C0C9C0883809F4B8C08039CF
:1006E00009F45FC0803809F0C0C05BC0803B09F4EA
:1006F00086C038F4803A09F466C0883A09F47FC0AD
:10070000B4C0803C09F4A7C0883C09F4A4C0883B6D
:1007100009F48AC0AAC08091290710C090912807C7
:1007200080912707981770F5E091280781E08E0FD8
:1007300080932807F0E0E95FF84F80818093DB0029
:1007400085EC86C0809306078EC0E091280781E083
:100750008E0F809328078091DB00F0E0E95FF84F6F
:10076000808390912807809127076EC0E091280729
:1007700081E08E0F809328078091DB00F0E0E95F35
:10078000F84F808380912F0781116DC081E08093A5
:100790002E0784EA61C083E080933007109205073A
:1007A000CFCF80910507803208F051C0E091050756
:1007B00081E08E0F809305078091DB00F0E0EB5124
:1007C000F94F8083BDCF85EC8093DC001092300719
:1007D00080910507803230F4E0910507F0E0EB519D
:1007E000F94F10826091050770E0E0912A07F091BF
:1007F0002B0785EE96E009951092050736C084E038
:10080000809330071092E4061092E306E0912C07E3
:10081000F0912D0709958091E306811105C081E0D3
:100820008093E3061092C306E091E40681E08E0F08
:100830008093E406F0E0ED53F94F80818093DB0074
:100840009091E4068091E306981708F479CF85E843
:100850008093DC000AC085EC8093DC0010923007A6
:1008600004C0109206070E943301FF91EF91BF91DF
:10087000AF919F918F917F916F915F914F913F9138
:100880002F910F900FBE0F901F90189580914707E2
:1008900090914807892B41F461E088E00E94560B53
:1008A00060E088E00C94E70160E088E00C94560B6F
:1008B0004F925F926F927F92AF92BF92CF92DF92F0
:1008C000EF92FF920F931F93A0911601B091170121
:1008D0002FEF33E00E94D4122B013C01770C440827
:1008E000542C3201B0900B01A0900A011B2D110F66
:1008F000110BC12ED12EE12EF12E012F9B01AC0147
:10090000642D742D842D942D0E94DD123093890066
:10091000209388001F910F91FF90EF90DF90CF9070
:10092000BF90AF907F906F905F904F9008954F92DF
:100930005F926F927F928F929F92AF92BF92CF926F
:10094000DF92EF92FF920F931F93A0911801B09145
:1009500019012FEF33E00E94D4122B013C01770CD8
:100960004408542C3201B0900B01A0900A011B2DB9
:10097000110F110BC12ED12EE12EF12E012F9B0153
:10098000AC01642D742D842D942D0E94DD12B901CB
:10099000330F880B990B24E030E040E050E00E94D8
:1009A000981230939D0620939C0680919C0690910E
:1009B0009D068093B4001F910F91FF90EF90DF9000
:1009C000CF90BF90AF909F908F907F906F905F90EF
:1009D0004F900895883010F00C94E7019BB14BB113
:1009E00070E0719561957109692721E030E0F901A6
:1009F00002C0EE0FFF1F8A95E2F76E237F23642764
:100A00006BB90895809104019091050182309105A0
:100A100011F15CF4019741F561E086E00E94560B0C
:100A200060E086E00E94EA0423C08330910551F023
:100A30000497D1F461E084E10E94560B60E084E108
:100A40000C94E70161E085E10E94560B60E085E1CE
:100A50000E94E70115C061E085E00E94560B60E04E
:100A600085E00E94EA0408C060E086E00E94560B20
:100A700060E085E00E94560B60E085E10E94560B25
:100A800060E084E10C94560B6091430787E00E947C
:100A9000EA0481E090E090939E0780939D07609127
:100AA000060170910701072E000C880B990B0E941C
:100AB000920B61E08091430790914407892B09F0E4
:100AC00060E087E00E94EA048BE491E00E943F0A24
:100AD00084E090E090930F0180930E0108950F93AE
:100AE0001F93CF93DF938C01EB010E94291288831F
:100AF000C80101960E9429128983CE01DF91CF910E
:100B00001F910F910895AF92BF92DF92EF92FF92E3
:100B10000F931F93CF93DF93EC017B018B015C015B
:100B200082E0A80EB11CF801D1908F01CE010E9485
:100B30002912D81621F06D2DCE010E943112219676
:100B4000CA15DB0581F7C701DF91CF911F910F9186
:100B5000FF90EF90DF90BF90AF90089582E090E01B
:100B600090930501809304018AEA95E0909319011E
:100B70008093180182E29BE0909317018093160105
:100B800082E390E0909311018093100184E190E062
:100B900090930701809306019093090180930801C7
:100BA000109246071092450710924407109243078F
:100BB000109248071092470784EB9BE2A1E1B0E056
:100BC0008093120190931301A0931401B093150127
:100BD0000E9497040E94580464E071E080E090E075
:100BE0000E94830568E171E084E090E00E94830543
:100BF00066E171E088E090E00E94830560E171E0C9
:100C00008CE090E00E94830566E071E080E190E076
:100C10000E94830568E071E084E190E00E94830512
:100C200065E477E08AE190E00E94830563E477E081
:100C300080E290E00E94830567E477E08CE190E039
:100C40000E9483050C94D60ACF92DF92EF92FF9216
:100C5000CF93DF93181619060CF040C0C0910A011B
:100C6000D0910B011C161D06CCF5BC01072E000C03
:100C7000880B990B0E9425142DEC3CEC4CE85FE3AB
:100C80000E94B1146B017C01BE01DD0F880B990B32
:100C90000E9425149B01AC01C701B6010E947B1381
:100CA00020E030EC4FE754E40E94B11420E030E043
:100CB0004AE754E40E94B1140E94ED1360931201BC
:100CC000709313018093140190931501DF91CF91DC
:100CD000FF90EF90DF90CF900C94D60ADF91CF91E8
:100CE000FF90EF90DF90CF900895CF92DF92EF9238
:100CF000FF920F931F93CF93DF938C01C0E0D0E05E
:100D0000C017D1070CF03FC0209739F488E498E071
:100D10000E94AB018093A20634C0C130D10589F492
:100D200088E498E00E94AB01092E000CAA0BBB0BD3
:100D300080939E0690939F06A093A006B093A10671
:100D400020C0C0909E06D0909F06E090A006F09034
:100D5000A106FE2CED2CDC2CCC2488E498E00E942B
:100D6000AB01092E000CAA0BBB0BC82AD92AEA2A10
:100D7000FB2AC0929E06D0929F06E092A006F092B7
:100D8000A1062196BDCFE091A2068E2F90E08E3075
:100D9000910508F0DAC0FC01E65AFF4F0C94B71237
:100DA00080919E0690919F0697FDCFC0909305017C
:100DB000809304010E94020564E071E080E090E00D
:100DC00010C080919E0690919F0697FDBEC09093A3
:100DD0001901809318010E94970468E171E084E092
:100DE00090E0DF91CF911F910F91FF90EF90DF90F6
:100DF000CF900C94830580919E0690919F0697FD5D
:100E0000A4C090931701809316010E94580466E1D4
:100E100071E088E090E0E5CF80919E0690919F067A
:100E200097FD93C0909311018093100160E171E0F0
:100E30008CE090E0D6CF80919E0690919F0697FD22
:100E400084C0909307018093060166E071E080E121
:100E500090E0C7CF80919E0690919F0697FD75C048
:100E6000909309018093080168E071E084E190E0CB
:100E7000B8CF80919E0690919F0697FD66C0909393
:100E800044078093430763E477E080E290E00E94A8
:100E90008305DF91CF911F910F91FF90EF90DF902D
:100EA000CF900C94440580919E0690919F0697FDEB
:100EB0004CC0909346078093450765E477E08AE14C
:100EC00090E08FCF80919E0690919F06A091A00602
:100ED000B091A106B7FD39C0809312019093130120
:100EE000A0931401B0931501DF91CF911F910F9141
:100EF000FF90EF90DF90CF900C94D60ADF91CF91C6
:100F00001F910F91FF90EF90DF90CF900C94AE0562
:100F100080919E0690919F0697FD17C09093480779
:100F20008093470767E477E08CE190E05ACF8091A7
:100F30009E0690919F06DF91CF911F910F91FF9098
:100F4000EF90DF90CF900C942406DF91CF911F910A
:100F50000F91FF90EF90DF90CF900895CF92DF92A6
:100F6000EF92FF9283E591E00E944D0A85E591E0C2
:100F70000E944D0A80910A0190910B010E94C20AC1
:100F80008CE591E00E944D0A8EE591E00E944D0AA9
:100F90002091A3073091A407A0910A01B0910B0101
:100FA0000E94BD12CC24CA9423E0D22EE12CF12C55
:100FB000A70196010E949812CA01B9010E944F0A26
:100FC0008CE591E00E944D0A87E691E00E944D0A6F
:100FD0002091A1073091A207A0910A01B0910B01C5
:100FE0000E94BD12A70196010E949812CA01B90180
:100FF0000E944F0A8CE591E00E944D0A8FE691E035
:101000000E944D0A80919F079091A0070E94C20AFA
:101010008CE591E00E944D0A86E791E00E944D0A1E
:101020008091390790913A070E94C20A8FE791E0B8
:10103000FF90EF90DF90CF900C943F0A81E891E011
:101040000E944D0A80910401909105010E94C20AFC
:1010500080910401909105018230910599F03CF452
:10106000009769F00197A1F48DE891E013C08330F7
:10107000910559F0049761F48EE991E00BC089E87D
:1010800091E008C083E991E005C08AE991E002C0DF
:1010900083EA91E00E943F0A8CEA91E00E944D0AA7
:1010A00080911801909119010E94C80A82EB91E089
:1010B0000E944D0A80911601909117010E94C80A62
:1010C00089EB91E00E944D0A8091100190911101ED
:1010D0000E94C80A81EC91E00E944D0A80910601AD
:1010E000909107010E94C80A88EC91E00E944D0A85
:1010F00080910801909109010E94C80A8EEC91E04C
:101100000E944D0A80914307909144070E94C80AAB
:1011100085ED91E00E944D0A809145079091460728
:101120000E94C80A8CED91E00E944D0A8091470709
:10113000909148070E94C20A809147079091480702
:10114000009729F0019731F489EE91E005C083EE14
:1011500091E002C083EA91E00E943F0A8DEE91E0A7
:101160000E944D0A60911201709113018091140147
:10117000909115010E944F0A87EF91E00E942D0A7D
:101180008AEF91E00E944D0A8EE391E00C943F0AB1
:1011900063ED71E085E797E00E94DE11BC018DE40C
:1011A00097E00E942C1563ED71E080E090E00E94D2
:1011B000DE110E94B7116093490770934A0780932C
:1011C0004B0790934C0708950895CF92DF92EF92CA
:1011D000FF920F931F93CF93DF936C017A018B01E2
:1011E000C0E0D0E0CE15DF0581F0D8016D918D0112
:1011F000D601ED91FC910190F081E02DC601099599
:10120000892B11F02196EECF7E01C701DF91CF919E
:101210001F910F91FF90EF90DF90CF9008958BEA90
:1012200097E00E940C0121E0892B09F420E0822F35
:1012300008950E941E15EF92FF920F931F93CF9374
:10124000DF93EC0181E0888F9B8D8C8D981305C016
:10125000E889F989808185FD24C0F62E0B8D10E088
:101260000F5F1F4F0F731127E02E8C8DE8120CC0FB
:101270000FB607FCFACFE889F989808185FFF5CFA1
:10128000CE010E94D502F1CF8B8DFE01E80FF11D3A
:10129000E35AFF4FF0820B8FEA89FB8980818062DD
:1012A00007C0EE89FF896083E889F98980818064BD
:1012B000808381E090E0DF91CF911F910F91FF90AB
:1012C000EF9008951F920F920FB60F9211242F9353
:1012D0003F934F935F936F937F938F939F93AF93BE
:1012E000BF93EF93FF93E0910201F0910301099501
:1012F000FF91EF91BF91AF919F918F917F916F91EE
:101300005F914F913F912F910F900FBE0F901F90C3
:1013100018951F920F920FB60F9211242F933F939F
:101320004F935F936F937F938F939F93AF93BF93ED
:10133000EF93FF93E0910001F09101010995FF9176
:10134000EF91BF91AF919F918F917F916F915F913D
:101350004F913F912F910F900FBE0F901F901895B6
:101360001F920F920FB60F9211242F933F934F931A
:101370005F936F937F938F939F93AF93BF93EF93FD
:10138000FF938BEA97E00E94D502FF91EF91BF9106
:10139000AF919F918F917F916F915F914F913F910D
:1013A0002F910F900FBE0F901F9018951F920F92C4
:1013B0000FB60F9211242F938F939F93EF93FF9368
:1013C000E091BB07F091BC078081E091C107F091EB
:1013D000C20782FD12C090818091C4078F5F8F7316
:1013E0002091C507821751F0E091C407F0E0E55560
:1013F000F84F958F8093C40701C08081FF91EF91D2
:101400009F918F912F910F900FBE0F901F90189565
:101410003FB7F8948091650890916608A09167089D
:10142000B091680826B5A89B05C02F3F19F001961A
:10143000A11DB11D3FBFBA2FA92F982F8827820F5A
:10144000911DA11DB11DBC01CD0143E0660F771FA9
:10145000881F991F4A95D1F70895009769F0FC01FC
:1014600001900020E9F73197AF01481B590BBC01EF
:101470008BEA97E00C94E50880E090E00895CF9324
:10148000DF930E942D0AEC0187EF91E00E942D0A64
:101490008C0F9D1FDF91CF9108950C942D0A8F9290
:1014A0009F92AF92BF92CF92DF92EF92FF920F93F3
:1014B0001F93CF93DF93CDB7DEB7A1970FB6F89404
:1014C000DEBF0FBECDBF6B017C0197FF2BC06DE26D
:1014D0008BEA97E00E941B098C0122273327A90180
:1014E0002C193D094E095F0919A2CE0181967C0194
:1014F0009AE0892E912CA12CB12CCA01B901A50129
:1015000094010E947612605DF70162937F012115BC
:1015100031054105510589F7CF010E942D0A800F41
:10152000911F1DC09B01AC0119A28E010F5D1F4FC1
:101530008AE0C82ED12CE12CF12CCA01B901A701F7
:1015400096010E947612605DF80162938F01211569
:1015500031054105510589F7CF010E942D0AA19659
:101560000FB6F894DEBF0FBECDBFDF91CF911F91B4
:101570000F91FF90EF90DF90CF90BF90AF909F9032
:101580008F900895BC01990F880B990B0C944F0A0A
:10159000CF93DF930E94C20AEC0187EF91E00E9493
:1015A0002D0A8C0F9D1FDF91CF910895FF920F930D
:1015B0001F93CF93DF9302E111E0CEE1D0E0F80179
:1015C000F1908F01CE010E942912F81621F06F2DA3
:1015D000CE010E9431122196C232D10581F782E1FB
:1015E00091E0DF91CF911F910F91FF90089590E0CE
:1015F000FC013297ED30F10590F5E859FF4F0C945E
:10160000B712809180008F7703C0809180008F7D1A
:1016100080938000089584B58F7702C084B58F7D54
:1016200084BD08958091B0008F7703C08091B00091
:101630008F7D8093B0000895809190008F7703C0D4
:10164000809190008F7D8093900008958091A000FC
:101650008F7703C08091A0008F7D8093A0000895B4
:10166000CF93DF93282F30E0F901EC5BFE4F84919C
:10167000F901E75DFE4FD491F901E25FFE4FC4919D
:10168000CC2389F081110E94F70AEC2FF0E0EE0FD5
:10169000FF1FEE5FFE4FA591B4918FB7F894EC91C8
:1016A000ED2BEC938FBFDF91CF910895CF93DF9314
:1016B00090E0FC01E75DFE4F2491FC01E25FFE4FEC
:1016C0008491882361F190E0880F991FFC01EA5012
:1016D000FF4FC591D491FC01EE5FFE4FA591B491EF
:1016E000611109C09FB7F89488812095822388836F
:1016F000EC912E230BC0623061F49FB7F89488817F
:10170000322F309583238883EC912E2B2C939FBF0F
:1017100006C08FB7F894E8812E2B28838FBFDF9106
:10172000CF9108958F929F92AF92BF92CF92DF9206
:10173000EF92FF926B017C010E94080A4B015C0151
:10174000C114D104E104F104F1F00E94080ADC01A3
:10175000CB0188199909AA09BB09883E9340A105C4
:10176000B10570F321E0C21AD108E108F10888EE52
:10177000880E83E0981EA11CB11CC114D104E104A1
:10178000F10419F7DDCFFF90EF90DF90CF90BF907D
:10179000AF909F908F9008951F920F920FB60F9267
:1017A00011242F933F938F939F93AF93BF93809177
:1017B000540890915508A0915608B091570830915F
:1017C000640826E0230F2D3720F40296A11DB11DD9
:1017D00005C029E8230F0396A11DB11D20936408BD
:1017E0008093540890935508A0935608B0935708D7
:1017F0008091650890916608A0916708B09168088B
:101800000196A11DB11D8093650890936608A09371
:101810006708B0936808BF91AF919F918F913F91F6
:101820002F910F900FBE0F901F901895CF93DF93BD
:1018300000D000D000D0CDB7DEB7789484B58260F8
:1018400084BD84B5816084BD85B5826085BD85B564
:10185000816085BD80916E00816080936E001092E2
:10186000810080918100826080938100809181005D
:1018700081608093810080918000816080938000EE
:101880008091B10084608093B1008091B00081604C
:101890008093B0008091910082608093910080914C
:1018A000910081608093910080919000816080938D
:1018B00090008091A10082608093A1008091A1009E
:1018C00081608093A1008091A00081608093A0003E
:1018D00080917A00846080937A0080917A0082609F
:1018E00080937A0080917A008E7F80937A00809135
:1018F0007A00806880937A001092C10081E2809320
:10190000B00011E01093B100539A83E880938000F7
:1019100010938100219A61E087E00E94560B61E0FC
:1019200084E00E94560B62E080E10E94560B62E068
:1019300082E00E94560B60E08EE00E94560B60E051
:101940008FE00E94560B60E084E10E94560B60E03D
:1019500085E10E94560B60E085E00E94560B60E036
:1019600086E00E94560B84E495E0909301018093F9
:101970000001809169008C7F826080936900E89A01
:10198000E091BB07F091BC0782E08083E091B7074C
:10199000F091B8071082E091B907F091BA0787E695
:1019A00080831092C307E091BF07F091C00786E0E3
:1019B0008083E091BD07F091BE07808180618083C4
:1019C000E091BD07F091BE07808188608083E0913F
:1019D000BD07F091BE07808180688083E091BD07DC
:1019E000F091BE0780818F7D80838CE092E00E9421
:1019F0003F0A109234071092330710923207109268
:101A000031071092300710932F0710922E0787E1AD
:101A10000E94300B88E10E94300B8091D9008E7FAC
:101A20008093D9008091D9008D7F8093D90080E286
:101A30008093D80095E49093DC0025E631E0309364
:101A40002D0720932C0721E731E030932B072093BB
:101A50002A078093DA008EEF91E090933607809307
:101A6000350785E796E09093380780933707BE01E6
:101A70006B5F7F4F80E090E00E946F058D819E81BB
:101A80008530910530F4909305018093040110E0B6
:101A900001C011E0BE016B5F7F4F84E090E00E94C7
:101AA0006F058D819E81893823E1920728F49093F8
:101AB00019018093180101C011E0BE016B5F7F4FD7
:101AC00088E090E00E946F058D819E818938E3E176
:101AD0009E0728F4909317018093160101C011E02E
:101AE000BE016B5F7F4F8CE090E00E946F058D819F
:101AF0009E819093110180931001BE016B5F7F4F17
:101B000080E190E00E946F058D819E81893EF3E027
:101B10009F0728F4909307018093060101C011E00C
:101B2000BE016B5F7F4F84E190E00E946F058D8165
:101B30009E81893E23E0920728F4909309018093C7
:101B4000080101C011E0BE016B5F7F4F8AE190E0A8
:101B50000E946F058D819E818230910528F49093BB
:101B600046078093450701C011E0BE016B5F7F4FC0
:101B700080E290E00E946F058D819E818230910508
:101B800028F4909344078093430701C011E0BE01FD
:101B90006B5F7F4F8CE190E00E946F058D819E818D
:101BA0008230910528F4909348078093470701C03D
:101BB00011E0CE0101966C01FEE1EF2EF12CC70180
:101BC0000E942912F60181936F01FFEFEF1AFF0ABD
:101BD00022E2E216F10499F789819A81AB81BC81F6
:101BE000AC01BD01405452446F40710941345D4025
:101BF0006340710518F00E94AE050AC0809312017F
:101C000090931301A0931401B09315011111F3CF18
:101C10000E9497040E9458040E9402050E944604F4
:101C200061E08091430790914407892B09F060E0BF
:101C300087E00E94EA049EE4392E21E4722E30E40B
:101C4000632E44E5C42E41E0D42E59E3A52E51E085
:101C5000B52E6EE1862E61E0962E55245394EE2427
:101C6000E394F12CE7E24E2E4091100150911101C6
:101C7000052E000C660B770B2FB7F8948091540853
:101C800090915508A0915608B09157082FBF009128
:101C900058081091590820915A0830915B08801B10
:101CA000910BA20BB30B84179507A607B70708F48F
:101CB0000FC32FB7F8948091540890915508A091C4
:101CC0005608B09157082FBF809358089093590831
:101CD000A0935A08B0935B0800910E0110910F0178
:101CE00010161106BCF461E08091A9079091AA0733
:101CF000892B09F060E0862F90E09093AA078093EB
:101D0000A90784E00E94EA040150110910930F0111
:101D100000930E018BEA97E00E940C011816190639
:101D200014F58BEA97E00E94EA00E091A5078A305B
:101D300011F08D3059F45092A807F0E0EB58F84FAD
:101D400010820E94C8081092A5070DC0AE2FB0E007
:101D5000AB58B84F8C93EF5FE83219F0E093A507CA
:101D600002C04092A5078091A807882309F4B8C152
:101D70001092A8078DE497E00E940A126EE272E0CA
:101D80008DE497E00E942315892B89F480914907FF
:101D900090914A0797FDA2C1909305018093040199
:101DA0000E94020564E071E080E090E018C065E305
:101DB00072E08DE497E00E942315892B99F48091BD
:101DC000490790914A0797FD89C190931901809323
:101DD00018010E94970468E171E084E090E00E949D
:101DE00083057CC16AE372E08DE497E00E942315CD
:101DF000892B89F48091490790914A0797FD6EC11C
:101E000090931701809316010E94580466E171E0D7
:101E100088E090E0E4CF60E472E08DE497E00E9417
:101E20002315892B79F48091490790914A0797FDF2
:101E300055C1909311018093100160E171E08CE035
:101E400090E0CDCF67E472E08DE497E00E94231527
:101E5000892B79F48091490790914A0797FD3EC1FB
:101E6000909307018093060166E071E080E190E0C5
:101E7000B6CF6DE472E08DE497E00E942315892BC4
:101E800079F48091490790914A0797FD27C1909373
:101E900009018093080168E071E084E190E09FCF40
:101EA00062E572E08DE497E00E942315892B99F496
:101EB0008091490790914A0797FD10C1909344077C
:101EC0008093430763E477E080E290E00E9483051B
:101ED0000E94440503C168E572E08DE497E00E942A
:101EE0002315892B79F48091490790914A0797FD32
:101EF000F5C0909346078093450765E477E08AE153
:101F000090E06DCF6EE572E08DE497E00E942315BE
:101F1000892B79F48091490790914A0797FDDEC09B
:101F2000909348078093470767E477E08CE190E05F
:101F300056CF64E672E08DE497E00E942315892B6A
:101F4000A9F48091490790914A07A0914B07B0915D
:101F50004C07B7FDC3C08093120190931301A09367
:101F60001401B09315010E94D60AB8C06AE672E067
:101F70008DE497E00E942315892B39F4809149075D
:101F800090914A070E942406A9C064E772E08DE49C
:101F900097E00E942315892BA1F480914907909125
:101FA0004A07181619062CF4F092A707E092A60724
:101FB00095C0892B09F092C01092A7071092A6072E
:101FC0008DC061EA75E08DE497E00E942315892BAE
:101FD00051F063EC75E08DE497E00E942315892BA6
:101FE00029F40E94AE050E941E0878C061EE75E0DB
:101FF0008DE497E00E942315892B19F40E94AE0707
:102000006DC06AE772E08DE497E00E942315892B8A
:1020100009F064C08FE792E00E943F0A82EC92E0F0
:102020000E943F0A89E093E00E943F0A8CE493E01B
:102030000E943F0A8AE893E00E943F0A8EEC93E0F8
:102040000E943F0A86EF93E00E943F0A8EE194E0EF
:102050000E943F0A8DE494E00E943F0A8FE694E0DC
:102060000E943F0A86EA94E00E943F0A8FEB94E0C8
:102070000E943F0A8CEF94E00E943F0A89E595E0B8
:102080000E943F0A88E895E00E943F0A88EA95E0AE
:102090000E943F0A89EC95E00E943F0A89EF91E097
:1020A0000E943F0A87EE95E00E943F0A8CE096E08E
:1020B0000E943F0A84E196E00E943F0A89EF91E086
:1020C0000E943F0A8AE396E00E943F0A84E496E079
:1020D0000E943F0A80E796E00E943F0A0E94C808DB
:1020E0000E9402050E94460480910A0190910B0112
:1020F00090930D0180930C0130927C0062E070E0BF
:1021000080E090E00E94920B80917A00806480933E
:102110007A0080917A0086FDFCCF20917800809132
:10212000790030E0382B032E000C440B550B6091E6
:1021300012017091130180911401909115010E9478
:10214000981230930B0120930A0190917A008091AC
:102150007A00887F846080937A0070927C008091FE
:102160007A00806480937A0080917A0086FDFCCFAB
:10217000809178002091790090937A0090E0922BE2
:102180009093A4078093A30790917A0080917A009E
:10219000887F846080937A0060927C0080917A00CE
:1021A000806480937A0080917A0086FDFCCF8091D4
:1021B00078002091790090937A0090E0922B909390
:1021C000A2078093A10720910C0130910D0180910D
:1021D0000A0190910B01281B390B80910801909105
:1021E00009018217930734F0919581959109281779
:1021F00039074CF40E9497040E945804F092A007FB
:10220000E0929F0704C01092A00710929F07F6016A
:102210008491F5011491F40104910023A1F081113E
:102220000E94F70AE02FF0E0EE0FFF1FE651FF4F8C
:10223000A591B4918C91182331E020E009F430E0AD
:10224000832F922F02C080E090E090933A07809312
:1022500039072091390730913A07809145079091CD
:1022600046072817390721F4F092A007E0929F074C
:1022700000910E0110910F0110161106C4F461E0D7
:102280008091A9079091AA07892B09F060E0862F19
:1022900090E09093AA078093A90784E00E94EA0443
:1022A0000150110910930F0100930E0104C060E06A
:1022B00084E00E94EA048091A6079091A70718166F
:1022C000190614F40E94AE0710929E0710929D0703
:1022D0000E941801C9CCEBEAF7E01382128288EE63
:1022E00093E0A0E0B0E084839583A683B7832EE1DA
:1022F00031E03183208325EC30E03587248724ECDE
:1023000030E03787268720EC30E0318B208B21ECC2
:1023100030E0338B228B22EC30E0358B248B26ECA3
:1023200030E0378B268B118E128E138E148EE8E4DC
:10233000F8E01382128284839583A683B78380E3B7
:1023400091E0918380832FB7F89480915408909105
:102350005508A0915608B09157082FBF8093580890
:1023600090935908A0935A08B0935B0808951F935F
:10237000FC0199278827BC01E89411911032E9F3F8
:10238000193010F01E30C8F31B3251F01D3249F4E1
:10239000689406C00E941412610F711D811D911D69
:1023A000119110531A30B0F33EF4909580957095CA
:1023B00061957F4F8F4F9F4F1F91089549E658E0D9
:1023C0000E94E3110895FA01A191B081009719F4D8
:1023D0001097E1F0CD01DC01CD010D90002011F44A
:1023E000C00113C0FB012191222319F02015D9F758
:1023F000F3CFFB012191201519F41E92119606C00E
:102400002223C1F70D900020A1F7D001FA01A1937A
:10241000B0830895DC016C9161566A3108F0605E0A
:102420006F5B6D93C1F70895592F482F372F262FD3
:10243000660F771F881F991F660F771F881F991FC8
:10244000620F731F841F951F660F771F881F991FC8
:102450000895F999FECF92BD81BDF89A992780B56C
:102460000895262FF999FECF1FBA92BD81BD20BDD8
:102470000FB6F894FA9AF99A0FBE019608952F9222
:102480003F924F925F926F927F928F929F92AF9204
:10249000BF92CF92DF92EF92FF920F931F93CF9351
:1024A000DF93CDB7DEB7CA1BDB0B0FB6F894DEBFE8
:1024B0000FBECDBF09942A88398848885F846E840E
:1024C0007D848C849B84AA84B984C884DF80EE8058
:1024D000FD800C811B81AA81B981CE0FD11D0FB661
:1024E000F894DEBF0FBECDBFED010895A1E21A2E14
:1024F000AA1BBB1BFD010DC0AA1FBB1FEE1FFF1FA8
:10250000A217B307E407F50720F0A21BB30BE40BF7
:10251000F50B661F771F881F991F1A9469F760953E
:102520007095809590959B01AC01BD01CF010895F8
:10253000052E97FB1EF400940E94AF1257FD07D0A2
:102540000E94761207FC03D04EF40C94AF12509503
:102550004095309521953F4F4F4F5F4F089590958F
:102560008095709561957F4F8F4F9F4F0895EE0F27
:10257000FF1F0590F491E02D09940E94C5123323AA
:1025800012F48A1B9B0B0C94D612A29FB001B39F2E
:10259000C001A39F700D811D1124911DB29F700D6C
:1025A000811D1124911D08950E94C512B7FF089541
:1025B000821B930B0895689401C0E894F92FF12BC6
:1025C00012F00C940F13A0E0B0E0E9EEF2E10C94ED
:1025D0004512092E059422F40E946B13112392F4E4
:1025E000F0E80F26FFEFE094F09400951095B0947A
:1025F000C094D094A194BF0ACF0ADF0AEF0AFF0A61
:102600000F0B1F0B0E941A1307FC0E946B13CDB710
:10261000DEB7ECE00C946112689401C0E8948F92EC
:102620009F92CF93DF930E941A13DF91CF919F90D7
:102630008F90089588249924F401E401B0E49F93D5
:10264000AA279A158B049C04ED05FE05CF05D0073B
:10265000A10798F4AD2FDC2FCF2FFE2FE92D982C5A
:10266000892E982F872F762F652F542F432F322FA7
:102670002227B85031F7BF9127C01B2EBF91BB272F
:10268000220F331F441F551F661F771F881F991F76
:10269000881C991CEE1FFF1FCC1FDD1FAA1FBB1F2C
:1026A0008A149B04EC05FD05CE05DF05A007B107E4
:1026B00048F08A189B08EC09FD09CE09DF09A00B38
:1026C000B10B21601A94E1F62EF49401AF01BE0122
:1026D000CD01000C0895609570958095909530958A
:1026E0004095509521953F4F4F4F5F4F6F4F7F4F14
:1026F0008F4F9F4F08950E948F130C9477140E9460
:10270000701458F00E94691440F029F45F3F29F0DA
:102710000C94601451110C94AB140C9466140E9428
:10272000881468F39923B1F3552391F3951B550B46
:10273000BB27AA2762177307840738F09F5F5F4F94
:10274000220F331F441FAA1FA9F335D00E2E3AF0D3
:10275000E0E832D091505040E695001CCAF72BD0EB
:10276000FE2F29D0660F771F881FBB1F261737073C
:102770004807AB07B0E809F0BB0B802DBF01FF276E
:1027800093585F4F3AF09E3F510578F00C946014D7
:102790000C94AB145F3FE4F3983ED4F386957795A1
:1027A0006795B795F7959F5FC9F7880F911D969527
:1027B000879597F90895E1E0660F771F881FBB1F83
:1027C000621773078407BA0720F0621B730B840B30
:1027D000BA0BEE1F88F7E09508950E94F4136894F1
:1027E000B1110C94AB1408950E94901488F09F5777
:1027F00098F0B92F9927B751B0F0E1F0660F771F25
:10280000881F991F1AF0BA95C9F714C0B13091F01A
:102810000E94AA14B1E008950C94AA14672F782F8F
:102820008827B85F39F0B93FCCF3869577956795DF
:10283000B395D9F73EF490958095709561957F4F4B
:102840008F4F9F4F0895E89409C097FB3EF49095F1
:102850008095709561957F4F8F4F9F4F9923A9F079
:10286000F92F96E9BB279395F69587957795679508
:10287000B795F111F8CFFAF4BB0F11F460FF1BC04C
:102880006F5F7F4F8F4F9F4F16C0882311F096E9DF
:1028900011C0772321F09EE8872F762F05C066238D
:1028A00071F096E8862F70E060E02AF09A95660F46
:1028B000771F881FDAF7880F9695879597F90895FF
:1028C00097F99F6780E870E060E008959FEF80ECE3
:1028D000089500240A941616170618060906089586
:1028E00000240A9412161306140605060895092EEC
:1028F0000394000C11F4882352F0BB0F40F4BF2B5B
:1029000011F460FF04C06F5F7F4F8F4F9F4F08959A
:1029100057FD9058440F551F59F05F3F71F0479590
:10292000880F97FB991F61F09F3F79F08795089575
:10293000121613061406551FF2CF4695F1DF08C094
:10294000161617061806991FF1CF869571056105B1
:1029500008940895E894BB2766277727CB0197F959
:1029600008950E94C4140C9477140E94691438F0DE
:102970000E94701420F0952311F00C9460140C94B4
:10298000661411240C94AB140E94881470F3959F64
:10299000C1F3950F50E0551F629FF001729FBB2756
:1029A000F00DB11D639FAA27F00DB11DAA1F649FF2
:1029B0006627B00DA11D661F829F2227B00DA11DA5
:1029C000621F739FB00DA11D621F839FA00D611D2B
:1029D000221F749F3327A00D611D231F849F600D4C
:1029E000211D822F762F6A2F11249F5750409AF075
:1029F000F1F088234AF0EE0FFF1FBB1F661F771F01
:102A0000881F91505040A9F79E3F510580F00C94CB
:102A100060140C94AB145F3FE4F3983ED4F38695B6
:102A200077956795B795F795E7959F5FC1F7FE2B6B
:102A3000880F911D9695879597F9089581E090E00C
:102A4000F8940C943315FB01DC018D9101908019F1
:102A50000110D9F3990B0895FB01DC0101900D924F
:0A2A60000020E1F70895F894FFCF7D
:102A6A00E4080000020014001400881388130D0003
:102A7A003200B42B1100220BAA05000000001B092A
:102A8A00E508DB00F6020C01EA00FE000000000087
:102A9A00D201C701E4019B01BF01AB019C01322EA7
:102AAA00332E315F346337616233005472696727AA
:102ABA006421007B0022566363223A002C002256CE
:102ACA00436F6D70223A002256466F6C223A0022FA
:102ADA00457272223A0022507A436F6E223A007D82
:102AEA00004741494E5F4620002033780020332EAC
:102AFA0035780020342E33337800203678002031A0
:102B0A0031780020494E56414C49440056464F4CB4
:102B1A00200056434F4D5020004C4F4F505F4420E9
:102B2A00005452475F4420004859535420004C4FE8
:102B3A004749432000505A444554200056434353C2
:102B4A0057200020332E33760020357600564D5F0D
:102B5A00434F4E535420000D0A004669726D776147
:102B6A0072652056657273696F6E2000496E6974CA
:102B7A0069616C697A696E6720507972302D506983
:102B8A00657A6F2053656E736F722E2E2E00474141
:102B9A00494E5F460056464F4C0056434F4D500033
:102BAA004C4F4F505F44005452475F4400485953BA
:102BBA0054004C4F47494300505A44455400564329
:102BCA0043535700434F4E53540056434341444ADC
:102BDA005553540044454255470048454C5000540B
:102BEA006F206368616E6765206761696E20666140
:102BFA0063746F723A204741494E5F46205B696EA3
:102C0A00746567657220666F72206761696E2073EA
:102C1A0074617465202D20736565206E6F74652A52
:102C2A005D00546F206368616E676520766F6C740F
:102C3A0061676520666F6C6C6F77657220766F6C62
:102C4A007461676520286C6F772074687265736891
:102C5A006F6C64293A2056464F4C205B666C6F6154
:102C6A00742076616C75655D00546F206368616ECF
:102C7A00676520636F6D70617261746F7220766F21
:102C8A006C74616765202868696768207468726572
:102C9A0073686F6C64293A2056434F4D50205B6627
:102CAA006C6F61742076616C75655D00546F20638A
:102CBA0068616E6765206D61696E206C6F6F702048
:102CCA00706572696F643A204C4F4F505F44205BC5
:102CDA00696E746567657220666F72206D696C6CC7
:102CEA00697365636F6E64735D00546F2063686116
:102CFA006E676520747269676765722061637469BB
:102D0A007665206475726174696F6E3A2054524711
:102D1A005F44205B696E746567657220666F722016
:102D2A006D696C6C697365636F6E64735D00546F73
:102D3A00206368616E676520746865206F757470BA
:102D4A007574206C6F6769633A204C4F474943207A
:102D5A005B307C315D002020283020666F72206154
:102D6A006374697665206C6F772C203120666F72E8
:102D7A002061637469766520686967682900546F01
:102D8A0020656E61626C65207069657A6F20706C6F
:102D9A00756767656420646574656374696F6E3A04
:102DAA0020505A444554205B307C315D0020202855
:102DBA003020666F722064697361626C65642C20CE
:102DCA003120666F7220656E61626C6564290054F9
:102DDA006F206368616E676520746865206D61693C
:102DEA006E20766F6C74616765206F662074686503
:102DFA0020636972637569743A20564343535720B6
:102E0A005B307C315D002020283020666F722033D1
:102E1A002E33762C203120666F72203576290054A5
:102E2A006F206368616E6765204144432068797347
:102E3A00746572657369732076616C75653A2048AA
:102E4A00595354205B696E746567657220696E20F8
:102E5A006D696C6C69766F6C74735D00546F206178
:102E6A00646A7573742056434320766F6C74616785
:102E7A00652072656164696E67733A2056434341FF
:102E8A00444A555354205B696E74656765722069BC
:102E9A006E206D696C6C69766F6C74732C20757317
:102EAA00652076616C75652066726F6D206D756C34
:102EBA0074696D657465725D00546F20656E616238
:102ECA006C65206F722064697361626C6520646549
:102EDA00627567206F75747075743A20444542555F
:102EEA0047205B307C315D00546F207072696E74CC
:102EFA002063757272656E7420636F6E6669673AD5
:102F0A0020434F4E46494700546F2073657420632F
:102F1A006F6E66696720746F2064656661756C748C
:102F2A00733A20455241534500546F207072696EBE
:102F3A00742063757272656E742073746174653A75
:102F4A0020535441544500436F6D6D616E64732084
:102F5A0061726520656E746572656420696E20749D
:102F6A0068697320666F726D61743A00434D44203C
:102F7A0056414C00436F6D6D616E647320617265DA
:102F8A0020636F6E6669726D656420776974682064
:102F9A00456E746572206B6579004578616D706C59
:102FAA0065733A004741494E5F462033203C7E20F4
:102FBA00736574206761696E20666163746F72203D
:102FCA00746F20696E64657820332028367829006A
:102FDA0056464F4C2032333530203C7E2073657480
:102FEA0020746865207672656620666C6F6F722041
:0A2FFA00746F20322E3335560000AC
:00000001FF
