:1000000047C082C55AC569C068C067C066C065C0C0
:1000100064C063C062C061C060C05FC05EC05DC0DC
:1000200002C55BC0BDC597C558C057C056C055C0B6
:1000300054C053C000000000240027002A00000024
:100040000000250028002B00040404040404040418
:10005000020202020202030303030303020203017A
:10006000020408102040800102040810200102044C
:100070000810204080400000000900030200000436
:10008000050800000000000000000000000002065B
:1000900011241FBECFEFD4E0DEBFCDBF23E0A4E12B
:1000A000B2E001C01D92AC32B207E1F712E0A0E06D
:1000B000B1E0EEE6F6E102C005900D92A431B10781
:1000C000D9F710E0C8E4D0E003C02197FE01A7DA19
:1000D000C734D107D1F7D6D5C8CA92CF90E0FC017A
:1000E000EA58FF4F2491FC01E15AFF4F3491FC0183
:1000F000E85BFF4FE491EE2309F43CC0222339F181
:10010000243091F038F42230A9F0233001F584B581
:100110008F7D12C0283091F02930A1F02530B9F43C
:10012000809180008F7D03C0809180008F778093C5
:1001300080000DC084B58F7784BD09C08091B00068
:100140008F7703C08091B0008F7D8093B000F0E086
:10015000EE0FFF1FE25CFF4FA591B4919FB7F8949B
:10016000611104C08C913095382302C0EC913E2B74
:100170003C939FBF0895CF93DF9390E0FC01E15A39
:10018000FF4F2491FC01E85BFF4F8491882361F1CC
:1001900090E0880F991FFC01EC5CFF4FC591D49152
:1001A000FC01E25CFF4FA591B491611109C09FB7BA
:1001B000F8948881209582238883EC912E230BC0AC
:1001C000623061F49FB7F8948881322F3095832391
:1001D0008883EC912E2B2C939FBF06C08FB7F89489
:1001E000E8812E2B28838FBFDF91CF9108951F9335
:1001F000CF93DF93182FEB0161E0BDDF209711F45F
:1002000060E004C0CF3FD10531F461E0812FDF9180
:10021000CF911F9163CFE12FF0E0EA58FF4FE491B7
:10022000E430F9F048F4E230B9F0E330A1F584B5F8
:10023000806284BDC8BD34C0E830E9F0E93019F10E
:10024000E53049F580918000806280938000D093F2
:100250008B00C0938A0024C084B5806884BDC7BD6C
:100260001FC080918000806880938000D0938900B7
:10027000C093880015C08091B00080688093B00062
:10028000C093B3000DC08091B00080628093B00035
:10029000C093B40005C0C038D1050CF0B6CFB0CFC4
:1002A000DF91CF911F910895883028F08E3010F0A3
:1002B0008E5001C08FEF8770806480937C008091A6
:1002C0007A00806480937A0080917A0086FDFCCF6A
:1002D000809178002091790090E0922B08953FB7AB
:1002E000F8948091810290918202A0918302B09152
:1002F000840226B5A89B05C02F3F19F00196A11DC9
:10030000B11D3FBFBA2FA92F982F8827820F911DAB
:10031000A11DB11DBC01CD0146E0660F771F881FEE
:10032000991F4A95D1F708958F929F92AF92BF92ED
:10033000CF92DF92EF92FF926B017C01D0DF4B01F5
:100340005C01C114D104E104F104E9F0C8DFDC016F
:10035000CB0188199909AA09BB09883E9340A105D8
:10036000B10578F321E0C21AD108E108F10888EE5E
:10037000880E83E0981EA11CB11CC114D104E104B5
:10038000F10421F7DECFFF90EF90DF90CF90BF9088
:10039000AF909F908F9008950895CF92DF92EF9243
:1003A000FF920F931F93CF93DF936C017A018B0120
:1003B000C0E0D0E0CE15DF0581F0D8016D918D0150
:1003C000D601ED91FC910190F081E02DC6010995D7
:1003D000892B11F02196EECF7E01C701DF91CF91DD
:1003E0001F910F91FF90EF90DF90CF900895FC0147
:1003F000918D828D981761F0828DDF01A80FB11D5C
:100400005D968C91928D9F5F9F73928F90E008957F
:100410008FEF9FEF0895FC01918D828D981731F039
:10042000828DE80FF11D858D90E008958FEF9FEF8D
:100430000895FC01918D228D892F90E0805C9F4F63
:10044000821B91098F739927089585E892E0F1DF67
:1004500021E0892B09F420E0822F0895FC01848D8E
:10046000DF01A80FB11DA35ABF4F2C91848D90E0DE
:1004700001968F739927848FA689B7892C93A089B9
:10048000B1898C9180648C93938D848D981306C070
:100490000288F389E02D80818F7D80830895EF921B
:1004A000FF920F931F93CF93DF93EC0181E0888F2E
:1004B0009B8D8C8D981305C0E889F989808185FD15
:1004C00023C0F62E0B8D10E00F5F1F4F0F73112707
:1004D000E02E8C8DE8120BC00FB607FCFACFE8892E
:1004E000F989808185FFF5CFCE01B8DFF2CF8B8D02
:1004F000FE01E80FF11DE35AFF4FF0820B8FEA89EE
:10050000FB898081806207C0EE89FF896083E8896A
:10051000F98980818064808381E090E0DF91CF91D0
:100520001F910F91FF90EF900895CF93DF93EC010F
:10053000888D8823C1F0EA89FB89808185FD05C00B
:10054000A889B9898C9186FD0EC00FB607FCF5CF3E
:10055000808185FFF2CFA889B9898C9185FFEDCF85
:10056000CE017CDFE8CFDF91CF91089580E090E06D
:10057000892B19F06ADF811143CD089582E090E064
:1005800090930701809306018AEA95E09093190100
:100590008093180182E29BE09093170180931601EB
:1005A00082E390E0909311018093100184E190E048
:1005B00090930501809304019093090180930801B1
:1005C00008958091060190910701009721F460E061
:1005D00086E0D1DD09C0181619067CF461E086E0DA
:1005E000CADD60E086E07ADD60E085E0C4DD60E0E1
:1005F00085E1C1DD60E084E1BECD0895609118021F
:100600007091190280911A0290911B0224E030E04F
:1006100040E050E05BD730931702209316026091C0
:1006200016027091170289E0E2CD60911C02709170
:100630001D0280911E0290911F0224E030E040E0F4
:1006400050E044D7309315022093140260911402B5
:100650007091150283E0CBCDAF92BF92DF92EF9203
:10066000FF920F931F93CF93DF93EC017B018B01DC
:100670005C0182E0A80EB11CF801D1908F01CE017F
:10068000B6D6D81619F06D2DCE01B9D62196CA1559
:10069000DB0591F7C701DF91CF911F910F91FF907B
:1006A000EF90DF90BF90AF900895809120029091DD
:1006B000210297FD09C0909305018093040164E035
:1006C00071E080E190E0C8CF0895FF920F931F93EF
:1006D000CF93DF9302E111E0CCE1D0E0F801F1909B
:1006E0008F01CE0184D6F81619F06F2DCE0187D672
:1006F0002196C032D10591F782E191E0DF91CF914F
:100700001F910F91FF90089539DF66E071E080E05E
:1007100090E0A2DF68E171E084E090E09DDF66E1B7
:1007200071E088E090E098DF60E171E08CE090E0BB
:1007300093DF64E071E080E190E08EDF68E071E0DB
:1007400084E190E089DFC1CF0F931F93CF93DF93B4
:100750008C01EB014CD68883C801019648D6898369
:10076000CE01DF91CF911F910F910895009761F015
:10077000FC0101900020E9F73197AF01481B590BAC
:10078000BC0185E892E009CE80E090E00895CF9327
:10079000DF93ECDFEC018AE291E0E8DF8C0F9D1F34
:1007A000DF91CF9108958F929F92AF92BF920F9356
:1007B0001F93CF93DF93CDB7DEB7A1970FB6F89411
:1007C000DEBF0FBECDBF19A2423008F44AE08E0151
:1007D0000F5D1F4F842E912CA12CB12CA5019401EB
:1007E00053D6E62FB901CA0101501109EA3014F4B9
:1007F000E05D01C0E95CD801EC93232B242B252B71
:1008000069F7C801B3DFA1960FB6F894DEBF0FBE3B
:10081000CDBFDF91CF911F910F91BF90AF909F906F
:100820008F900895CF92DF92EF92FF92CF93DF9354
:100830006B017C016DE285E892E031DEEC01662718
:100840007727CB016C197D098E099F094AE0ABDF40
:100850008C0F9D1FDF91CF91FF90EF90DF90CF9095
:10086000089584CFBC01990F880B990B97FDDACFBF
:100870004AE099CFCF93DF93F5DFEC018AE291E074
:1008800075DF8C0F9D1FDF91CF9108958DE291E070
:10089000E8DF8FE291E0E5DF80910A0190910B01A2
:1008A000E1DF86E391E0DDDF88E391E0DADF80914C
:1008B0007B0290917C02D6DF86E391E0D2DF81E477
:1008C00091E0CFDF8091790290917A02CBDF86E3CD
:1008D00091E0C7DF89E491E0C4DF809177029091D5
:1008E0007802C0DF80E591E052CF82E591E0B9DF88
:1008F0008091060190910701B5DF809106019091EA
:1009000007018230910599F03CF4009769F0019756
:10091000A1F48EE591E013C08330910559F004975E
:1009200061F48FE691E00BC08AE591E008C084E6AF
:1009300091E005C08BE691E002C084E791E027DFFB
:100940008DE791E08EDF809118019091190192DF7F
:1009500083E891E086DF80911601909117018ADF8C
:100960008AE891E07EDF809110019091110182DF91
:1009700082E991E076DF80910401909105017ADFB0
:1009800089E991E06EDF809108019091090172DFA1
:100990008FE991E066DF60911201709113018091FF
:1009A00014019091150197FF02C03CDF02C04AE09C
:1009B000FADE8AE291E0DACE8BB19BB180788927AA
:1009C0008BB981E090E0909374028093730289EA7E
:1009D00091E0DDDE6091040170910501072E000CAD
:1009E000880B990BA1DC9BB12BB1892F90E08095EE
:1009F00090958078992782278BB9089522D667E948
:100A000071E08AE492E0C0D4BC0182E292E026D692
:100A100067E971E080E090E0B7D499D49093210227
:100A20008093200208951F920F920FB60F92112407
:100A30002F933F938F939F93AF93BF938091220304
:100A400090912303A0912403B0912503309180025B
:100A500020E3230F2D3720F44096A11DB11D05C0C2
:100A600023EB230F4196A11DB11D2093800280939B
:100A7000220390932303A0932403B0932503809132
:100A8000810290918202A0918302B091840201962A
:100A9000A11DB11D8093810290938202A0938302D5
:100AA000B0938402BF91AF919F918F913F912F910D
:100AB0000F900FBE0F901F9018951F920F920FB6B8
:100AC0000F9211242F933F934F935F936F937F93D4
:100AD0008F939F93AF93BF93EF93FF93E0910201A6
:100AE000F09103010995FF91EF91BF91AF919F9113
:100AF0008F917F916F915F914F913F912F910F90C7
:100B00000FBE0F901F9018951F920F920FB60F9265
:100B100011242F933F934F935F936F937F938F9302
:100B20009F93AF93BF93EF93FF93E0910001F091F8
:100B300001010995FF91EF91BF91AF919F918F9125
:100B40007F916F915F914F913F912F910F900FBEC9
:100B50000F901F9018951F920F920FB60F921124AD
:100B60002F933F934F935F936F937F938F939F93B5
:100B7000AF93BF93EF93FF9385E892E06FDCFF9113
:100B8000EF91BF91AF919F918F917F916F915F9105
:100B90004F913F912F910F900FBE0F901F9018957E
:100BA0001F920F920FB60F9211242F938F939F9342
:100BB000EF93FF93E0919502F09196028081E0918E
:100BC0009B02F0919C0282FD12C0908180919E0256
:100BD0008F5F8F7320919F02821751F0E0919E02E8
:100BE000F0E0EB57FD4F958F80939E0201C080810E
:100BF000FF91EF919F918F912F910F900FBE0F90CA
:100C00001F901895E5E8F2E01382128288EE93E0D7
:100C1000A0E0B0E084839583A683B7838EE191E062
:100C20009183808385EC90E09587848784EC90E0C5
:100C30009787868780EC90E0918B808B81EC90E0A9
:100C4000938B828B82EC90E0958B848B86EC90E08A
:100C5000978B868B118E128E138E148E2FB7F8946D
:100C60008091220390912303A0912403B091250346
:100C70002FBF8093260390932703A0932803B0935C
:100C800029030895CF93DF93CDB7DEB728970FB62A
:100C9000F894DEBF0FBECDBF789484B5826084BD6A
:100CA00084B5816084BD85B5826085BD85B5816070
:100CB00085BD80916E00816080936E0010928100EE
:100CC00080918100826080938100809180008160AA
:100CD000809380008091B10084608093B100809106
:100CE000B00081608093B00080917A008B7F809308
:100CF0007A0080917A00826080937A0080917A00F5
:100D0000816080937A0080917A00806880937A0075
:100D10001092C10061E087E02EDA61E084E02BDA16
:100D200062E082E028DA60E08EE025DA60E08FE0C1
:100D300022DA60E084E11FDA60E085E11CDA60E03D
:100D400085E019DA60E086E016DAE0919502F0912C
:100D5000960282E08083E0919102F09192021082EB
:100D6000E0919302F09194028CE0808310929D02B6
:100D7000E0919902F0919A0286E08083E0919702D7
:100D8000F0919802808180618083E0919702F091D8
:100D90009802808188608083E0919702F0919802A8
:100DA000808180688083E0919702F0919802808131
:100DB0008F7D80838CED94E09093010180930001FE
:100DC000809169008C7F826080936900E89A8EE44C
:100DD00080937C0062E070E080E090E0A5DA8FEA2A
:100DE00091E0D5DCBE016F5F7F4F80E090E0ACDC2E
:100DF00089819A818530910510F086DC04C090933A
:100E0000070180930601BE016F5F7F4F84E090E091
:100E10009BDC89819A81893823E1920710F074DC88
:100E200004C09093190180931801BE016F5F7F4F3A
:100E300088E090E089DC89819A81893833E19307E1
:100E400010F062DC04C09093170180931601BE017C
:100E50006F5F7F4F8CE090E077DC89819A8190937F
:100E6000110180931001BE016F5F7F4F80E190E020
:100E70006BDC89819A81893E43E0940710F044DC61
:100E800004C09093050180930401BE016F5F7F4F02
:100E900084E190E059DC89819A81893E53E095078D
:100EA00010F032DC04C0909309018093080189DBC3
:100EB00066246394712C4091100150911101052E0C
:100EC000000C660B770B2FB7F8948091220390915A
:100ED0002303A0912403B09125032FBF0091260383
:100EE000109127032091280330912903801B910B37
:100EF000A20BB30B84179507A607B70708F425C202
:100F00002FB7F8948091220390912303A09124039A
:100F1000B09125032FBF8093260390932703A093BE
:100F20002803B093290300910E0110910F011016B0
:100F30001106DCF4FF24F39480917E0290917F02ED
:100F4000892B09F0F12C8F2D90E090937F028093F4
:100F50007E026F2D84E0C2D86F2D87E0BFD801508C
:100F6000110910930F0100930E0185E892E061DAF8
:100F70001816190614F585E892E039DAE091720244
:100F80008A3011F08D3059F481E080937D02F0E0D9
:100F9000E65BFD4F108233DD109272020EC0AE2F61
:100FA000B0E0A65BBD4F8C93EF5FE83219F0E093A1
:100FB000720203C097E29093720280917D028823AF
:100FC00009F4BDC010927D0261ED71E082E292E011
:100FD0003CD3892B81F4809120029091210297FDCE
:100FE000ADC09093070180930601EBDA66E071E0F3
:100FF00080E090E016C068ED71E082E292E025D3D7
:10100000892B89F4809120029091210297FD96C04E
:10101000909319018093180108DB68E171E084E086
:1010200090E01ADB8BC06DED71E082E292E00DD3AF
:10103000892B81F4809120029091210297FD7EC03E
:101040009093170180931601D9DA66E171E088E088
:1010500090E0E7CF63EE71E082E292E0F6D2892B76
:1010600011F423DB6BC06AEE71E082E292E0EDD214
:10107000892BB9F360EF71E082E292E0E6D2892B2E
:1010800079F4809120029091210297FD57C09093AE
:1010900009018093080168E071E084E190E0C1CF2C
:1010A00065EF71E082E292E0D0D2892BA1F48091C9
:1010B00020029091210297FD41C0092E000CAA0B3D
:1010C000BB0B8093120190931301A0931401B09372
:1010D0001501FBDA33C06BEF71E082E292E0B5D22A
:1010E000892B99F4809120029091210218161906FB
:1010F0002CF4709276026092750220C0892BF1F474
:10110000109276021092750219C061E072E082E2DC
:1011100092E09BD2892B41F068E072E082E292E09B
:1011200094D2892B19F42ADAE0DB08C06EE072E071
:1011300082E292E08AD2892B09F4A8DB60DC41DAF2
:1011400080910A0190910B0190930D0180930C0105
:1011500080917A00806480937A0080917A0086FD85
:10116000FCCF209178008091790030E0382B032E5D
:10117000000C440B550B609112017091130180918A
:10118000140190911501A2D119012A0130930B018C
:1011900020930A01A0911801B09119012091160124
:1011A0003091170138872F83932C990C99082FEFD2
:1011B00033E0A8D19B01AC01550F220B322FA901BE
:1011C0002B833C834D835E835101C92CD92CE92CA0
:1011D000F92C092D192D9B01AC016B81762F862FDF
:1011E000962F98D1C901330FAA0BBB0B80931C0219
:1011F00090931D02A0931E02B0931F022FEF33E0C5
:10120000AF81B8857FD19B01AC01550F220B322FE6
:10121000A9012B833C834D835E835101C92CD92CBA
:10122000E92CF92C092D192D9B01AC016B81762F2E
:10123000862F962F6FD1C901330FAA0BBB0B80935A
:10124000180290931902A0931A02B0931B028FE028
:101250002BD890937C0280937B028EE025D89093CC
:101260007A028093790220910C0130910D012219AC
:10127000330980910801909109018217930734F096
:10128000919581959109281739073CF4CED9B6D9A3
:10129000709278026092770204C0109278021092E5
:1012A000770200910E0110910F0110161106E4F45F
:1012B000FF24F39480917E0290917F02892B09F0A4
:1012C000F12C8F2D90E090937F0280937E026F2D02
:1012D00084E004D76F2D87E001D7015011091093E6
:1012E0000F0100930E0125C0809177029091780242
:1012F000019791F400917E0210917F02602F84E0AB
:10130000EDD681E090E0012B11F080E090E0909329
:101310007F0280937E020DC08091770290917802C7
:10132000892B39F410927F0210927E0260E084E0F3
:10133000D5D68091750290917602181619060CF494
:10134000A5DA109274021092730210D9B4CDFC0188
:1013500088279927E89421912032E9F3293010F069
:101360002E30C8F32B3239F02D3231F4689403C09B
:1013700036D0820F911D219120532A30C8F31EF4DC
:10138000909581959F4F08954AE253E001D00895CA
:10139000FA01A191B081009719F41097E1F0CD0105
:1013A000DC01CD010D90002011F4C00113C0FB0140
:1013B0002191222319F02015D9F7F3CFFB012191B8
:1013C000201519F41E92119606C02223C1F70D9024
:1013D0000020A1F7D001FA01A193B08308957AE02B
:1013E000979F902D879F802D910D11240895F99935
:1013F000FECF92BD81BDF89A992780B50895262F1A
:10140000F999FECF1FBA92BD81BD20BD0FB6F894E9
:10141000FA9AF99A0FBE019608952F923F924F9231
:101420005F926F927F928F929F92AF92BF92CF9274
:10143000DF92EF92FF920F931F93CF93DF93CDB77D
:10144000DEB7CA1BDB0B0FB6F894DEBF0FBECDBFF5
:1014500009942A88398848885F846E847D848C84C6
:101460009B84AA84B984C884DF80EE80FD800C81CF
:101470001B81AA81B981CE0FD11D0FB6F894DEBFB2
:101480000FBECDBFED010895A1E21A2EAA1BBB1B12
:10149000FD010DC0AA1FBB1FEE1FFF1FA217B30740
:1014A000E407F50720F0A21BB30BE40BF50B661F56
:1014B000771F881F991F1A9469F76095709580951A
:1014C00090959B01AC01BD01CF010895052E97FBBE
:1014D00016F400940FD057FD05D0D6DF07FC02D0DC
:1014E00046F408C050954095309521953F4F4F4F99
:1014F0005F4F089590958095709561957F4F8F4FC0
:101500009F4F089592D0B7FF0895821B930B0895C3
:10151000689401C0E894F92FF12B0AF027C0A0E0ED
:10152000B0E0E4E9FAE07FCF092E05941AF467D021
:10153000112392F4F0E80F26FFEFE094F094009569
:101540001095B094C094D094A194BF0ACF0ADF0A3A
:10155000EF0AFF0A0F0B1F0B13D007FC50D0CDB7BB
:10156000DEB7ECE07CCF689401C0E8948F929F9244
:10157000CF93DF9305D0DF91CF919F908F90089507
:1015800088249924F401E401B0E41B2ED4019D15B4
:101590008E049F04E007F10738F4FC014B01CA01F7
:1015A000B901AD019E011694220F331F441F551F30
:1015B000661F771F881F991F881C991CEE1FFF1F2D
:1015C000CC1FDD1FAA1FBB1F8A149B04EC05FD0561
:1015D000CE05DF05A007B10748F08A189B08EC0983
:1015E000FD09CE09DF09A00BB10B21601A94E1F6C9
:1015F0002EF49401AF01BE01CD01000C0895609559
:1016000070958095909530954095509521953F4FD8
:101610004F4F5F4F6F4F7F4F8F4F9F4F0895EE0F8C
:10162000FF1F0590F491E02D0994A29FB001B39F94
:10163000C001A39F01D0B29F700D811D1124911D87
:10164000089581E090E0F89410C0FB01DC018D91D9
:10165000019080190110D9F3990B0895FB01DC0169
:0E16600001900D920020E1F70895F894FFCF5D
:10166E00CC010000140002001400881388130C0033
:10167E003200B42B1100220BAA05000000004F020D
:10168E00CD011902F7010B0295020D0A007B002213
:10169E00566363223A002C002256436F6D70223A35
:1016AE00002256466F6C223A0022457272223A0090
:1016BE007D004741494E5F4620002033780020339D
:1016CE002E35780020342E333378002036780020E3
:1016DE003131780020494E56414C49440056464F10
:1016EE004C200056434F4D5020004C4F4F505F44FE
:1016FE0020005452475F442000485953542000564E
:10170E004D5F434F4E535420005472696721004978
:10171E006E697469616C697A696E6720507972308E
:10172E002D5069657A6F2053656E736F722E2E2E53
:10173E00004741494E5F460056464F4C0056434FB8
:10174E004D50004C4F4F505F44005452475F440081
:10175E004859535400434F4E535400444542554745
:10176E0000434F4E4649470052455345540053548B
:04177E00415445008D
:00000001FF
