:1000000048C0DCC602C76AC069C068C067C066C0B5
:1000100065C064C063C062C061C060C05FC05EC0D4
:1000200026C75CC02BC45CC459C058C057C056C05A
:1000300055C054C000000009000302000004050878
:100040000000000000000000000000010204081091
:100050002040800102040810200102040810204002
:1000600080400404040404040404020202020202A4
:10007000030303030303020203000000002500281A
:10008000002B0000000000240027002A0000C4020A
:100090009E0411241FBECFEFD4E0DEBFCDBF11E020
:1000A000A0E0B1E0E6E2F6E102C005900D92AA3DC3
:1000B000B107D9F722E0AAEDB1E001C01D92AE3937
:1000C000B207E1F710E0C2E9D0E003C02297FE01D9
:1000D000A4DACE38D107D1F7C0D6A3CA91CF60E059
:1000E00089E027D881E090E09093F7018093F601B2
:1000F000089561E089E0E4D761E080911001E0D7E4
:1001000062E082E0DDD760E080910C01D9D760E049
:1001100080910A01D5D760E084E1D2D760E085E123
:10012000CFD760E085E0CCD760E086E0C9D726E095
:1001300040E855E260E070E088EF91E045D342E0AE
:1001400050E06FE670E080E019D667E171E088EF7B
:1001500091E080C420E030E0A9016091DE0170915F
:10016000DF018091E0019091E101C8D918164CF4AB
:100170008091F4019091F50101969093F50180939F
:10018000F40120E030E0A9016091DA017091DB0117
:100190008091DC019091DD01B1D918164CF4809169
:1001A000F4019091F50101979093F5018093F4018A
:1001B00064E371E088EF91E042D46091F4017091C2
:1001C000F5014AE050E088EF91E0E8D461E471E0A5
:1001D00088EF91E03FC48091F4019091F50197FF81
:1001E00006C081E090E09093F3018093F20180914A
:1001F000F4019091F501892B81F460E086E060D7ED
:1002000060E085E05DD760E085E15AD760E084E199
:1002100057D71092F3011092F2018091F40190915E
:10022000F501181619069CF461E086E049D760E0F4
:1002300086E07FD760E085E043D760E085E140D786
:1002400060E084E13DD71092F3011092F2018091B9
:10025000F4019091F501029784F061E085E030D7D8
:1002600060E085E066D760E085E12AD760E084E160
:1002700027D71092F3011092F2018091F40190912E
:10028000F50103976CF061E085E11AD760E085E144
:1002900050D760E084E114D71092F3011092F2017C
:1002A0008091F4019091F501049754F061E084E1AC
:1002B00007D760E084E13DD71092F3011092F2017C
:1002C0008091F4019091F501059734F081E090E080
:1002D0009093F3018093F20108958091F20190913F
:1002E000F301019799F46091E4018091100121D705
:1002F00081E090E02091E4013091E501232B11F0A1
:1003000080E090E09093E5018093E4018091F20118
:100310009091F301892B41F41092E5011092E401D0
:1003200060E08091100105C70895CF92DF92EF92AF
:10033000FF928091E2019091E301181619061CF5D5
:1003400061E08091E4019091E501892B09F060E082
:10035000862F90E09093E5018093E4018091100155
:10036000E8D66091E40189E0E4D666E970E080E0D7
:1003700090E0EAD58091E2019091E301019790939A
:10038000E3018093E20180910C0150D69093F1013A
:100390008093F001BC01882777FD8095982FFED7C8
:1003A00020E030E040EA50E4ADD820E030E040E822
:1003B0005AE3A8D86093EC017093ED018093EE01AD
:1003C0009093EF0180910A0131D69093EB018093D5
:1003D000EA01BC01882777FD8095982FDFD720E0C0
:1003E00030E040EA50E48ED820E030E040E85AE3C4
:1003F00089D86B017C016093E6017093E7018093DB
:10040000E8019093E90120910001309101014091B0
:10041000020150910301C3D66093DE017093DF01A6
:100420008093E0019093E101A7019601609104019E
:10043000709105018091060190910701B0D66093FB
:10044000DA017093DB018093DC019093DD0182DEA1
:10045000C2DE43DF66E571E088EF91E0F0D26091A3
:10046000F6017091F7014AE050E088EF91E096D3F1
:1004700061E671E088EF91E0E2D24091EC015091A9
:10048000ED016091EE017091EF0122E030E088EF24
:1004900091E063D464E771E088EF91E0D0D24091BD
:1004A000E6015091E7016091E8017091E90122E0D5
:1004B00030E088EF91E051D46FE771E088EF91E090
:1004C000BED26091F4017091F5014AE050E088EFEE
:1004D00091E064D361E971E088EF91E0B0D260917E
:1004E0000801709109014AE050E088EF91E056D38D
:1004F00068E971E088EF91E0A2D24091DE0150916D
:10050000DF016091E0017091E10122E030E088EFCD
:1005100091E023D462EA71E088EF91E090D24091BB
:10052000DA015091DB016091DC017091DD0122E084
:1005300030E088EF91E011D46DEA71E088EF91E04E
:100540007ED26091F2017091F3014AE050E088EFB1
:1005500091E024D363E471E088EF91E07BD2609175
:10056000080170910901882777FD8095982FECD4B8
:1005700061E089E0DED51092F7011092F601FF905C
:10058000EF90DF90CF900895CF92DF92EF92FF929D
:1005900080910E0190910F01880F991F9093E301B4
:1005A0008093E201C090E601D090E701E090E8017D
:1005B000F090E90120910001309101014091020188
:1005C00050910301C701B601EAD56093DE01709333
:1005D000DF018093E0019093E101A7019601609112
:1005E0000401709105018091060190910701D7D512
:1005F0006093DA017093DB018093DC019093DD015D
:10060000FF90EF90DF90CF900895FC01818D228DB7
:1006100090E0805C9F4F821B91098F73992708950A
:10062000FC01918D828D981731F0828DE80FF11DBC
:10063000858D90E008958FEF9FEF0895FC01918DD7
:10064000828D981761F0828DDF01A80FB11D5D9634
:100650008C91928D9F5F9F73928F90E008958FEFA2
:100660009FEF089585E994E0892B39F080E090E0D0
:10067000892B19F05AD18111C3CC0895FC01848DC6
:10068000DF01A80FB11DA35ABF4F2C91848D90E0BC
:1006900001968F739927848FA689B7892C93A08997
:1006A000B1898C9180648C93938D848D981306C04E
:1006B0000288F389E02D80818F7D80830895CF9318
:1006C000DF93EC01888D8823C1F0EA89FB89808162
:1006D00085FD05C0A889B9898C9186FD0EC00FB62D
:1006E00007FCF5CF808185FFF2CFA889B9898C916D
:1006F00085FFEDCFCE01C2DFE8CFDF91CF91089526
:10070000CF92DF92FF920F931F93CF93DF931F92AD
:10071000CDB7DEB76C0181E0D60158968C9358971F
:100720005B969C915B975C968C915C97981307C045
:100730005096ED91FC915197808185FD2DC0F60179
:10074000038D10E00F5F1F4F0F731127F02EF6017E
:10075000848DF81210C00FB607FCF9CFD601509661
:10076000ED91FC915197808185FFF1CFC60169839E
:1007700085DF6981ECCF838DE80FF11DE35AFF4FD0
:100780006083D6015B960C935B975296ED91FC913A
:100790005397808180620CC0D6015696ED91FC91F2
:1007A000579760835096ED91FC91519780818064BA
:1007B000808381E090E00F90DF91CF911F910F91A6
:1007C000FF90DF90CF900895BF92CF92DF92EF928B
:1007D000FF92CF93DF93EC016A017B01B22E60E8B8
:1007E00074E88EE190E0A7019601F3D6215031091B
:1007F000410951095695479537952795E889F98913
:1008000082E08083211580E1380790F0E889F9893A
:10081000108260E472E48FE090E0A7019601D9D6DF
:10082000215031094109510956954795379527952A
:10083000EC85FD853083EE85FF852083188EEC895D
:10084000FD89B082EA89FB89808180618083EA89A1
:10085000FB89808188608083EA89FB898081806848
:100860008083EA89FB8980818F7D8083DF91CF91AE
:10087000FF90EF90DF90CF90BF9008951F920F925E
:100880000FB60F9211242F938F939F93EF93FF93A3
:10089000E0910802F09109028081E0910E02F0914E
:1008A0000F0282FD12C09081809111028F5F8F73C1
:1008B00020911202821751F0E0911102F0E0E8500D
:1008C000FE4F958F8093110201C08081FF91EF91BF
:1008D0009F918F912F910F900FBE0F901F901895A1
:1008E0001F920F920FB60F9211242F933F934F93A5
:1008F0005F936F937F938F939F93AF93BF93EF9388
:10090000FF9388EF91E0BADEFF91EF91BF91AF9135
:100910009F918F917F916F915F914F913F912F9117
:100920000F900FBE0F901F90189588EF91E06DDE2D
:1009300021E0892B09F420E0822F08951092FB0119
:100940001092FA0188EE93E0A0E0B0E08093FC0101
:100950009093FD01A093FE01B093FF018EEB91E017
:100960009093F9018093F80185EC90E09093050253
:100970008093040284EC90E0909307028093060237
:1009800080EC90E0909309028093080281EC90E063
:1009900090930B0280930A0282EC90E090930D02F8
:1009A00080930C0286EC90E090930F0280930E02ED
:1009B000109211021092120210921302109214025D
:1009C0000895CF92DF92EF92FF920F931F93CF93F0
:1009D000DF937C016A01EB0100E010E00C151D05BE
:1009E00071F06991D701ED91FC910190F081E02DBA
:1009F000C7010995892B19F00F5F1F4FEFCFC80171
:100A0000DF91CF911F910F91FF90EF90DF90CF90EA
:100A100008956115710581F0DB010D900020E9F763
:100A2000AD0141505109461B570BDC01ED91FC9182
:100A30000280F381E02D099480E090E00895E9CFF1
:100A4000DC01ED91FC910190F081E02D09946AECBC
:100A500071E0DFCF0F931F93CF93DF93EC01D9DFCA
:100A60008C01CE01F4DF800F911FDF91CF911F9198
:100A70000F9108958F929F92AF92BF92DF92EF9263
:100A8000FF920F931F93CF93DF93CDB7DEB7A1975C
:100A90000FB6F894DEBF0FBECDBF7C01F42FD52E6C
:100AA000CB0119A2223008F42AE08E010F5D1F4FFE
:100AB000822E912CA12CB12C6F2F7D2DA50194019C
:100AC00088D5F22FD32ECA01015011096A3014F4CF
:100AD000E0E301C0E7E3E60FD801EC93232B242BDE
:100AE000252B51F7B801C70194DFA1960FB6F894F2
:100AF000DEBF0FBECDBFDF91CF911F910F91FF9051
:100B0000EF90DF90BF90AF909F908F900895CF921D
:100B1000DF92EF92FF920F931F93CF93DF93EC013D
:100B20006A017B012115310579F4E881F981019091
:100B3000F081E02D642FDF91CF911F910F91FF90F5
:100B4000EF90DF90CF9009942A303105D9F477FFE8
:100B500018C06DE275DF8C0144275527BA014C1986
:100B60005D096E097F092AE0CE0184DF800F911FA5
:100B7000DF91CF911F910F91FF90EF90DF90CF9079
:100B800008952AE0B701A601CE01DF91CF911F9110
:100B90000F91FF90EF90DF90CF906CCF0F931F934A
:100BA000CF93DF93EC019A01AB01662757FD609567
:100BB000762FADDF8C01CE014ADF800F911FDF91D0
:100BC000CF911F910F9108954F925F926F927F92F4
:100BD000BF92CF92DF92EF92FF920F931F93CF932A
:100BE000DF93EC016A017B01B22E9A01AB01C701D0
:100BF000B601EBD4882319F06DEC71E024C0260116
:100C00003701E89477F82FEF3FEF4FE75FE7C30135
:100C1000B201DBD481110CC02FEF3FEF4FE75FE74C
:100C2000C301B20121D318161CF461ED71E00BC0B1
:100C30002FEF3FEF4FE75FE4C701B6015FD418160F
:100C40008CF465ED71E0CE01DF91CF911F910F9192
:100C5000FF90EF90DF90CF90BF907F906F905F906C
:100C60004F90D7CE2FEF3FEF4FE75FECC701B601B4
:100C7000FBD287FDE6CF20E030E0A901C701B60135
:100C8000F3D287FF09C06DE2CE01DADE8C01F7FAFC
:100C9000F094F7F8F09402C000E010E0712C60E0EE
:100CA00070E080E09FE37B1439F020E030E040E228
:100CB00051E4DED27394F7CF9B01AC01C701B601BA
:100CC0006FD26B017C013CD32B013C0165D39B01AE
:100CD000AC01C701B60163D26B017C012AE0B3010C
:100CE000A201CE01C7DE080F191FBB2029F06EE25A
:100CF000CE01A6DE080F191FBB2001F120E030E075
:100D000040E251E4C701B601FDD36B017C0118D369
:100D10002B01612C712C2AE0B301A201CE01AADEC5
:100D2000080F191FC301B20137D39B01AC01C701E2
:100D3000B60135D26B017C01BA94DECFC801DF91D8
:100D4000CF911F910F91FF90EF90DF90CF90BF90C8
:100D50007F906F905F904F9008950F931F93CF9364
:100D6000DF93EC0131DF8C01CE0171DE800F911F2A
:100D7000DF91CF911F910F91089508958230E8F48B
:100D8000E82FF0E0EE0FFF1FEE5EFE4F71836083F1
:100D9000813041F0809169008C7F842B80936900C1
:100DA000E89A089580916900440F551F440F551F1C
:100DB000837F842B80936900E99A08951F920F9294
:100DC0000FB60F9211242F933F934F935F936F931E
:100DD0007F938F939F93AF93BF93EF93FF93E09194
:100DE0001201F09113010995FF91EF91BF91AF911D
:100DF0009F918F917F916F915F914F913F912F9133
:100E00000F900FBE0F901F9018951F920F920FB664
:100E10000F9211242F933F934F935F936F937F9380
:100E20008F939F93AF93BF93EF93FF93E091140140
:100E3000F09115010995FF91EF91BF91AF919F91AD
:100E40008F917F916F915F914F913F912F910F9073
:100E50000FBE0F901F9018950895ADD0FDDF49D9B2
:100E6000C2E3D3E062DA2097E9F3FCDBFBCF1F9209
:100E70000F920FB60F9211242F933F938F939F934E
:100E8000AF93BF938091960290919702A0919802A0
:100E9000B09199023091950226E0230F2D3720F46E
:100EA0000296A11DB11D05C029E8230F0396A11DBF
:100EB000B11D209395028093960290939702A09380
:100EC0009802B093990280919A0290919B02A0910E
:100ED0009C02B0919D020196A11DB11D80939A02C2
:100EE00090939B02A0939C02B0939D02BF91AF91FF
:100EF0009F918F913F912F910F900FBE0F901F9058
:100F000018953FB7F89480919A0290919B02A09116
:100F10009C02B0919D0226B5A89B05C02F3F19F0F9
:100F20000196A11DB11D3FBF6627782F892F9A2FEB
:100F3000620F711D811D911D43E0660F771F881F91
:100F4000991F4A95D1F708958F929F92AF92BF92C1
:100F5000CF92DF92EF92FF926B017C01D2DF4B01C7
:100F60005C01C114D104E104F104E1F017D1C9DF3F
:100F7000681979098A099B09683E734081059105C2
:100F800080F321E0C21AD108E108F10888EE880E4A
:100F900083E0981EA11CB11CC114D104E104F1042A
:100FA00031F7DFCFFF90EF90DF90CF90BF90AF9001
:100FB0009F908F900895789484B5826084BD84B5A5
:100FC000816084BD85B5826085BD85B5816085BD44
:100FD000EEE6F0E0808181608083E1E8F0E010825D
:100FE000808182608083808181608083E0E8F0E09E
:100FF000808181608083E1EBF0E080818460808388
:10100000E0EBF0E0808181608083EAE7F0E08081BE
:101010008460808380818260808380818E7F8083F2
:101020008081806880831092C1000895883028F004
:101030008E3010F08E5001C08FEF87702091160116
:1010400090E4299F90011124822B80937C00809151
:101050007A00806480937A0080917A0086FDFCCFCC
:10106000809178002091790090E0922B089584304F
:1010700081F028F4823099F08330A1F0089588300F
:10108000A9F08930B9F08530D1F4809180008F7D4E
:1010900003C0809180008F7780938000089584B58D
:1010A0008F7702C084B58F7D84BD08958091B00094
:1010B0008F7703C08091B0008F7D8093B00008953A
:1010C000CF93DF9390E0FC01E55BFF4F2491FC019F
:1010D000EE59FF4F8491882349F190E0880F991FC2
:1010E000FC01ED57FF4FA591B49187589F4FFC012C
:1010F000C591D4919FB7611108C0F8948C91209547
:1011000082238C93888182230AC0623051F4F89440
:101110008C91322F309583238C938881822B888306
:1011200004C0F8948C91822B8C939FBFDF91CF9158
:1011300008950F931F93CF93DF931F92CDB7DEB720
:10114000282F30E0F901EC5CFF4F8491F901E55B59
:10115000FF4F1491F901EE59FF4F04910023C1F0A4
:10116000882319F0698383DF6981E02FF0E0EE0FB7
:10117000FF1FE758FF4FA591B4919FB7F8948C914A
:10118000611103C01095812301C0812B8C939FBFF7
:101190000F90DF91CF911F910F91089508955058AE
:1011A000BB27AA270ED070C161D130F066D120F0E4
:1011B00031F49F3F11F41EF456C10EF4E095E7FBA5
:1011C0004CC1E92F72D180F3BA1762077307840705
:1011D000950718F071F49EF58AC10EF4E0950B2E78
:1011E000BA2FA02D0B01B90190010C01CA01A00179
:1011F0001124FF27591B99F0593F50F4503E68F1D4
:101200001A16F040A22F232F342F4427585FF3CF14
:10121000469537952795A795F0405395C9F77EF4E5
:101220001F16BA0B620B730B840BBAF09150A1F02E
:10123000FF0FBB1F661F771F881FC2F70EC0BA0FB4
:10124000621F731F841F48F4879577956795B7953C
:10125000F7959E3F08F0B3CF9395880F08F0992734
:10126000EE0F979587950895D4D008F481E00895FE
:101270000CD00AC102D140F0F9D030F021F45F3F28
:1012800019F0EBC0511134C1EEC00FD198F399237E
:10129000C9F35523B1F3951B550BBB27AA2762173A
:1012A0007307840738F09F5F5F4F220F331F441F7F
:1012B000AA1FA9F333D00E2E3AF0E0E830D09150B7
:1012C0005040E695001CCAF729D0FE2F27D0660FA4
:1012D000771F881FBB1F261737074807AB07B0E8E3
:1012E00009F0BB0B802DBF01FF2793585F4F2AF0F9
:1012F0009E3F510568F0B1C0FBC05F3FECF3983EE4
:10130000DCF3869577956795B795F7959F5FC9F755
:10131000880F911D9695879597F90895E1E0660FDE
:10132000771F881FBB1F621773078407BA0720F057
:10133000621B730B840BBA0BEE1F88F7E0950895C0
:10134000BCD088F09F5790F0B92F9927B751A0F0E3
:10135000D1F0660F771F881F991F1AF0BA95C9F749
:1013600012C0B13081F0C3D0B1E00895C0C0672F82
:10137000782F8827B85F39F0B93FCCF386957795F9
:101380006795B395D9F73EF49095809570956195E2
:101390007F4F8F4F9F4F0895E89409C097FB3EF40D
:1013A00090958095709561957F4F8F4F9F4F9923B2
:1013B000A9F0F92F96E9BB279395F6958795779530
:1013C0006795B795F111F8CFFAF4BB0F11F460FFF0
:1013D0001BC06F5F7F4F8F4F9F4F16C0882311F048
:1013E00096E911C0772321F09EE8872F762F05C05C
:1013F000662371F096E8862F70E060E02AF09A95F7
:10140000660F771F881FDAF7880F9695879597F9EB
:101410000895990F0008550FAA0BE0E8FEEF161685
:101420001706E807F907C0F012161306E407F507D8
:1014300098F0621B730B840B950B39F40A2661F04C
:10144000232B242B252B21F408950A2609F4A140EF
:10145000A6958FEF811D811D089597F99F6780E8FC
:1014600070E060E008959FEF80EC089500240A94F6
:101470001616170618060906089500240A9412166F
:101480001306140605060895092E0394000C11F4A2
:10149000882352F0BB0F40F4BF2B11F460FF04C04F
:1014A0006F5F7F4F8F4F9F4F089557FD9058440FA8
:1014B000551F59F05F3F71F04795880F97FB991FB3
:1014C00061F09F3F79F08795089512161306140670
:1014D000551FF2CF4695F1DF08C0161617061806FD
:1014E000991FF1CF86957105610508940895E894D8
:1014F000BB2766277727CB0197F908958ADF08F481
:101500008FEF08950BD0C0CFB1DF28F0B6DF18F011
:10151000952309F0A2CFA7CF1124EACFC6DFA0F30D
:10152000959FD1F3950F50E0551F629FF001729F78
:10153000BB27F00DB11D639FAA27F00DB11DAA1F97
:10154000649F6627B00DA11D661F829F2227B00DE4
:10155000A11D621F739FB00DA11D621F839FA00D6F
:10156000611D221F749F3327A00D611D231F849FBF
:10157000600D211D822F762F6A2F11249F57504016
:101580008AF0E1F088234AF0EE0FFF1FBB1F661FB1
:10159000771F881F91505040A9F79E3F510570F06A
:1015A0005CCFA6CF5F3FECF3983EDCF38695779552
:1015B0006795B795F795E7959F5FC1F7FE2B880F65
:1015C000911D9695879597F9089523DF880B990BC0
:1015D0000895A1E21A2EAA1BBB1BFD010DC0AA1F74
:1015E000BB1FEE1FFF1FA217B307E407F50720F08C
:1015F000A21BB30BE40BF50B661F771F881F991F07
:101600001A9469F760957095809590959B01AC014F
:10161000BD01CF010895EE0FFF1F0590F491E02D5D
:061620000994F894FFCFCD
:101626006666E63F6666164078000F000E00060006
:101636000300BD06000001496E697469616C697A30
:10164600696E67205069657A6F2053656E736F7295
:101656002E2E2E0061646A75737453746174653A34
:10166600002D2D2D2D2D2D2D2D2D2D2D2D2D2D2DD1
:101676002D2D2D2D2D00505A205374617475733AFB
:1016860000566F6C74616765205265666572656E9B
:1016960063653A00416D702053656E73653A00418B
:1016A600646A7573746D656E742053746174653AFB
:1016B6000044656C61793A004C6F77204469666630
:1016C6003A004869676820446966663A004572725E
:1016D6006F722053746174653A0000000000800345
:1016E600E10405031E0310035F030D0A006E616E1D
:0A16F60000696E66006F7666000062
:00000001FF
