:100000000C94A3000C9411050C94EA040C94CB00FE
:100010000C94CB000C94CB000C94CB000C94CB0034
:100020000C94CB000C94CB000C94CB000C94CB0024
:100030000C94CB000C94CB000C94CB000C94CB0014
:100040000C94F3060C94CB000C945E050C943805CC
:100050000C94CB000C94CB000C94CB000C94CB00F4
:100060000C94CB000C94CB000C94CB000C94CB00E4
:100070000C94CB000C94CB000C94CB000C94CB00D4
:100080000C94CB000C94CB000C94CB000C94CB00C4
:100090000C94CB000C94CB000C94CB000C94CB00B4
:1000A0000C94CB000C94CB000C94CB000C94CB00A4
:1000B0000C94CB00EB0BEE0BE10BE50B0F0C0F0CD4
:1000C000F20BF60BFC0B000C0F0C060C0A0C0000DC
:1000D00000002300260029002C000A0D0E09000351
:1000E00002000004050800000000000000000000FD
:1000F000000000000000000000250028002B002E5A
:100100000000000000240027002A002D0004040441
:1001100004040404040202020202020303030303B0
:1001200003020203050505050102040810204080B2
:100130000102040810200102040810204080400140
:1001400002040800680C11241FBECFEFD8E0DEBF08
:10015000CDBF26E0A4ECB5E001C01D92A43EB207DD
:10016000E1F715E0A0E0B1E0E2EFFCE102C00590AC
:100170000D92A43CB107D9F710E0C3EAD0E004C067
:100180002197FE010E949E0DC23AD107C9F70E9435
:100190003D070C94770E0C9400000895CF92DF92E7
:1001A000EF92FF920F931F93CF93DF936C017A012D
:1001B0008B01C0E0D0E0CE15DF0581F0D8016D9154
:1001C0008D01D601ED91FC910190F081E02DC601E9
:1001D0000995892B11F02196EECF7E01C701DF91A1
:1001E000CF911F910F91FF90EF90DF90CF900895E6
:1001F000FC01918D828D981761F0828DDF01A80F2F
:10020000B11D5D968C91928D9F5F9F73928F90E050
:1002100008958FEF9FEF0895FC01918D828D9817BF
:1002200031F0828DE80FF11D858D90E008958FEFFC
:100230009FEF0895FC01918D228D892F90E0805CC5
:100240009F4F821B91098F739927089580E396E051
:100250000E941A0121E0892B09F420E0822F0895E1
:10026000FC01848DDF01A80FB11DA35ABF4F2C9153
:10027000848D90E001968F739927848FA689B78922
:100280002C93A089B1898C9180648C93938D848DFB
:10029000981306C00288F389E02D80818F7D8083CA
:1002A0000895EF92FF920F931F93CF93DF93EC018A
:1002B00081E0888F9B8D8C8D981305C0E889F98922
:1002C000808185FD24C0F62E0B8D10E00F5F1F4F3F
:1002D0000F731127E02E8C8DE8120CC00FB607FCAF
:1002E000FACFE889F989808185FFF5CFCE010E9498
:1002F0003001F1CF8B8DFE01E80FF11DE35AFF4F66
:10030000F0820B8FEA89FB898081806207C0EE89C9
:10031000FF896083E889F98980818064808381E036
:1003200090E0DF91CF911F910F91FF90EF90089592
:10033000CF93DF93EC01888D8823C9F0EA89FB898C
:10034000808185FD05C0A889B9898C9186FD0FC083
:100350000FB607FCF5CF808185FFF2CFA889B98958
:100360008C9185FFEDCFCE010E943001E7CFDF9168
:10037000CF91089580E090E0892B21F00E94260122
:1003800081110DC080E090E0892B71F080E090E059
:10039000892B51F00E940000811104C008950E9431
:1003A0000000F0CF0C94000008954F925F926F927E
:1003B0007F92AF92BF92CF92DF92EF92FF920F9314
:1003C0001F93A0911601B09117012FEF33E00E9407
:1003D000BB0D2B013C01770C4408542C3201B0902A
:1003E0000B01A0900A011B2D110F110BC12ED12E54
:1003F000E12EF12E012F9B01AC01642D742D842D73
:10040000942D0E94C40D30938900209388001F9181
:100410000F91FF90EF90DF90CF90BF90AF907F90C3
:100420006F905F904F9008954F925F926F927F927E
:100430008F929F92AF92BF92CF92DF92EF92FF92F4
:100440000F931F93A0911801B09119012FEF33E082
:100450000E94BB0D2B013C01770C4408542C320147
:10046000B0900B01A0900A011B2D110F110BC12E92
:10047000D12EE12EF12E012F9B01AC01642D742DA4
:10048000842D942D0E94C40DB901330F880B990B54
:1004900024E030E040E050E00E947F0D3093C7053B
:1004A0002093C6058091C6059091C7058093B4003E
:1004B0001F910F91FF90EF90DF90CF90BF90AF9082
:1004C0009F908F907F906F905F904F90089570E015
:1004D0008830A0F095B135B17195619571096927A2
:1004E000282F277081E090E002C0880F991F2A957D
:1004F000E2F768237923632765B908959BB14BB16F
:10050000719561957109692721E030E0F90102C018
:10051000EE0FFF1F8A95E2F76E237F2364276BB9E6
:1005200008956091CA0587E00E94670281E090E02B
:100530009093240680932306609106017091070131
:10054000072E000C880B990B0E94B90661E0809180
:10055000CA059091CB05892B09F060E087E00E94E5
:1005600067028AE291E00E94E80584E090E09093BF
:100570000F0180930E01089580910401909105016F
:100580008230910529F15CF4019759F561E086E02C
:100590000E947D0660E086E00E94670226C08330EC
:1005A000910561F00497E9F461E084E10E947D0621
:1005B00085B195B18071892785B9089561E085E19C
:1005C0000E947D0685B195B18072892785B915C0D5
:1005D00061E085E00E947D0660E085E00E946702A0
:1005E00008C060E086E00E947D0660E085E00E9431
:1005F0007D0660E085E10E947D0660E084E10C9468
:100600007D060F931F93CF93DF938C01EB010E9424
:10061000100D8883C80101960E94100D8983CE01B8
:10062000DF91CF911F910F9108950E94620EAF92BA
:10063000BF92DF92EF92FF920F931F93CF93DF93BE
:10064000EC017B018B015C0182E0A80EB11CF8017A
:10065000D1908F01CE010E94100DD81621F06D2D82
:10066000CE010E94180D2196CA15DB0581F7C7013E
:10067000DF91CF911F910F91FF90EF90DF90BF908E
:10068000AF90089583E090E090930501809304017A
:1006900080E293E090931901809318018AEA95E033
:1006A000909317018093160182E390E090931101DB
:1006B0008093100184E690E09093070180930601F7
:1006C00084E190E090930901809308011092CD0598
:1006D0001092CC051092CB051092CA0584EB9BE2D8
:1006E000A1E1B0E08093120190931301A093140153
:1006F000B09315010E9414020E94D50164E071E0DC
:1007000080E090E00E94170368E171E084E090E0EF
:100710000E94170366E171E088E090E00E941703F1
:1007200060E171E08CE090E00E94170366E071E008
:1007300080E190E00E94170368E071E084E190E0BE
:100740000E9417036CEC75E08AE190E00E941703A9
:100750006AEC75E080E290E00E9417030C94B50506
:10076000CF92DF92EF92FF9282E391E00E94F60532
:1007700084E391E00E94F60560910A0170910B01FB
:10078000072E000C880B990B0E94F8058BE391E073
:100790000E94F6058DE391E00E94F60520912B065C
:1007A00030912C06A0910A01B0910B010E94A40D7A
:1007B000CC24CA9423E0D22EE12CF12CA70196017F
:1007C0000E947F0DCA01B9010E94F8058BE391E0F8
:1007D0000E94F60586E491E00E94F6052091290624
:1007E00030912A06A0910A01B0910B010E94A40D3C
:1007F000A70196010E947F0DCA01B9010E94F80568
:100800008BE391E00E94F6058EE491E00E94F605EC
:100810006091270670912806072E000C880B990B13
:100820000E94F8058BE391E00E94F60585E591E0D2
:100830000E94F6056091C8057091C905072E000C4D
:10084000880B990B0E94F8058BE391E00E94F60556
:100850008EE591E00E94F6058AE691E00E94F60599
:100860008BE391E00E94F60587E791E0FF90EF901F
:10087000DF90CF900C94E80589E791E00E94F6059F
:100880006091040170910501072E000C880B990BF3
:100890000E94F80580910401909105018230910534
:1008A00099F03CF4009769F00197A1F485E891E094
:1008B00013C08330910559F0049761F486E991E003
:1008C0000BC081E891E008C08BE891E005C082E9A7
:1008D00091E002C08BE991E00E94E80584EA91E092
:1008E0000E94F60580911801909119010E946B06F3
:1008F0008AEA91E00E94F605809116019091170115
:100900000E946B0681EB91E00E94F6058091100138
:10091000909111010E946B0689EB91E00E94F6050F
:1009200080910601909107010E946B0680EC91E096
:100930000E94F60580910801909109010E946B06C2
:1009400086EC91E00E94F6058091CA059091CB0556
:100950000E946B068DEC91E00E94F6058091CC051B
:100960009091CD050E946B0684ED91E00E94F60502
:100970006091120170911301809114019091150101
:100980000E94F8058EED91E00E94D60581EE91E07F
:100990000E94F6058AE691E00C94E8056BEC71E0A4
:1009A0008AEF95E00E94CF0CBC0182ED95E00E9499
:1009B000700E6BEC71E080E090E00E94CF0C0E9422
:1009C000A80C6093CE057093CF058093D0059093CB
:1009D000D10508951F920F920FB60F9211242F93F5
:1009E0003F934F935F936F937F938F939F93AF93B7
:1009F000BF93EF93FF93E0910201F09103010995FA
:100A0000FF91EF91BF91AF919F918F917F916F91E6
:100A10005F914F913F912F910F900FBE0F901F90BC
:100A200018951F920F920FB60F9211242F933F9398
:100A30004F935F936F937F938F939F93AF93BF93E6
:100A4000EF93FF93E0910001F09101010995FF916F
:100A5000EF91BF91AF919F918F917F916F915F9136
:100A60004F913F912F910F900FBE0F901F901895AF
:100A70001F920F920FB60F9211242F933F934F9313
:100A80005F936F937F938F939F93AF93BF93EF93F6
:100A9000FF9380E396E00E943001FF91EF91BF91B8
:100AA000AF919F918F917F916F915F914F913F9106
:100AB0002F910F900FBE0F901F9018951F920F92BD
:100AC0000FB60F9211242F938F939F93EF93FF9361
:100AD000E0914006F09141068081E0914606F09158
:100AE000470682FD12C09081809149068F5F8F7307
:100AF00020914A06821751F0E0914906F0E0E05D4E
:100B0000F94F958F8093490601C08081FF91EF9145
:100B10009F918F912F910F900FBE0F901F9018955E
:100B20003FB7F8948091DE069091DF06A091E00631
:100B3000B091E10626B5A89B05C02F3F19F001969C
:100B4000A11DB11D3FBFBA2FA92F982F8827820F53
:100B5000911DA11DB11DBC01CD0143E0660F771FA2
:100B6000881F991F4A95D1F70895FF920F931F93FD
:100B7000CF93DF9302E111E0CCE1D0E0F801F190F6
:100B80008F01CE010E94100DF81621F06F2DCE01BD
:100B90000E94180D2196C032D10581F782E191E0C3
:100BA000DF91CF911F910F91FF900895009769F009
:100BB000FC0101900020E9F73197AF01481B590B68
:100BC000BC0180E396E00C94CE0080E090E00895B4
:100BD000CF93DF930E94D605EC018EED91E00E9449
:100BE000D6058C0F9D1FDF91CF9108950C94D605EB
:100BF0008F929F92AF92BF92CF92DF92EF92FF922D
:100C00000F931F93CF93DF93CDB7DEB7A1970FB6A6
:100C1000F894DEBF0FBECDBF6B017C0197FF2BC0E8
:100C20006DE280E396E00E9451018C012227332778
:100C3000A9012C193D094E095F0919A2CE0181961F
:100C40007C019AE0892E912CA12CB12CCA01B9010A
:100C5000A50194010E945D0D605DF70162937F0123
:100C6000211531054105510589F7CF010E94D605AF
:100C7000800F911F1DC09B01AC0119A28E010F5D59
:100C80001F4F8AE0C82ED12CE12CF12CCA01B901EA
:100C9000A70196010E945D0D605DF80162938F01CE
:100CA000211531054105510589F7CF010E94D6056F
:100CB000A1960FB6F894DEBF0FBECDBFDF91CF91E6
:100CC0001F910F91FF90EF90DF90CF90BF90AF906A
:100CD0009F908F900895CF93DF93BC01990F880B5D
:100CE000990B0E94F805EC018EED91E00E94D6056B
:100CF0008C0F9D1FDF91CF910895CF93DF9390E0EC
:100D0000FC01E85DFE4F2491FC01E35FFE4F8491FE
:100D1000882361F190E0880F991FFC01EF5FFE4F7F
:100D2000C591D491FC01EB50FF4FA591B491611195
:100D300009C09FB7F8948881209582238883EC911D
:100D40002E230BC0623061F49FB7F8948881322F54
:100D5000309583238883EC912E2B2C939FBF06C064
:100D60008FB7F894E8812E2B28838FBFDF91CF9126
:100D700008958F929F92AF92BF92CF92DF92EF929F
:100D8000FF926B017C010E9490054B015C01C11434
:100D9000D104E104F104F1F00E949005DC01CB01E3
:100DA00088199909AA09BB09883E9340A105B10594
:100DB00070F321E0C21AD108E108F10888EE880E2C
:100DC00083E0981EA11CB11CC114D104E104F104FC
:100DD00019F7DDCFFF90EF90DF90CF90BF90AF90ED
:100DE0009F908F9008951F920F920FB60F9211242B
:100DF0002F933F938F939F93AF93BF938091CD0693
:100E00009091CE06A091CF06B091D0063091DD062C
:100E100026E0230F2D3720F40296A11DB11D05C039
:100E200029E8230F0396A11DB11D2093DD068093B1
:100E3000CD069093CE06A093CF06B093D0068091B6
:100E4000DE069091DF06A091E006B091E1060196E2
:100E5000A11DB11D8093DE069093DF06A093E006EE
:100E6000B093E106BF91AF919F918F913F912F91E8
:100E70000F900FBE0F901F901895CF93DF9300D067
:100E800000D000D0CDB7DEB7789484B5826084BD41
:100E900084B5816084BD85B5826085BD85B581607E
:100EA00085BD80916E00816080936E0010928100FC
:100EB00080918100826080938100809181008160B7
:100EC0008093810080918000816080938000809178
:100ED000B10084608093B1008091B0008160809304
:100EE000B000809191008260809391008091910088
:100EF0008160809391008091900081608093900048
:100F00008091A10082608093A1008091A100816006
:100F10008093A1008091A00081608093A0008091C7
:100F20007A00846080937A0080917A008260809356
:100F30007A0080917A008E7F80937A0080917A0087
:100F4000806880937A001092C10081E28093B000A3
:100F500081E08093B100539A93E89093800080934E
:100F60008100219A61E087E00E947D0661E084E0D3
:100F70000E947D0662E080E10E947D0662E082E0E0
:100F80000E947D0660E08EE00E947D0660E08FE0BA
:100F90000E947D0660E084E10E947D0660E085E1BC
:100FA0000E947D0660E085E00E947D0660E086E0AC
:100FB0000E947D0681E992E09093010180930001F7
:100FC000809169008C7F826080936900E89AE0914B
:100FD0004006F091410682E08083E0913C06F0916A
:100FE0003D061082E0913E06F0913F0687E6808341
:100FF00010924806E0914406F091450686E0808311
:10100000E0914206F0914306808180618083E09107
:101010004206F0914306808188608083E091420619
:10102000F0914306808180688083E0914206F091D0
:10103000430680818F7D808383EF91E00E94E805E5
:10104000BE016B5F7F4F80E090E00E9401038D81C5
:101050009E818530910530F49093050180930401C1
:1010600010E001C011E0BE016B5F7F4F84E090E0B3
:101070000E9401038D819E81893823E1920728F423
:10108000909319018093180101C011E0BE016B5FBC
:101090007F4F88E090E00E9401038D819E81893816
:1010A000E3E19E0728F4909317018093160101C095
:1010B00011E0BE016B5F7F4F8CE090E00E94010366
:1010C0008D819E819093110180931001BE016B5F11
:1010D0007F4F80E190E00E9401038D819E81893ED7
:1010E000F3E09F0728F4909307018093060101C065
:1010F00011E0BE016B5F7F4F84E190E00E9401032D
:101100008D819E81893E23E0920728F49093090106
:101110008093080101C011E0BE016B5F7F4F8AE13F
:1011200090E00E9401038D819E818230910528F418
:101130009093CD058093CC0501C011E0BE016B5F9B
:101140007F4F80E290E00E9401038D819E8182307A
:10115000910528F49093CB058093CA0501C011E056
:10116000CE0101966C01FCE1EF2EF12CC7010E942B
:10117000100DF60181936F01FFEFEF1AFF0A20E2D5
:10118000E216F10499F789819A81AB81BC81AC01A7
:10119000BD01405452446F40710941345D40634089
:1011A000710518F00E9442030AC0809312019093C7
:1011B0001301A0931401B09315011111F3CF0E94F4
:1011C00014020E94D5010E94BC0261E08091CA0510
:1011D0009091CB05892B09F060E087E00E946702BF
:1011E0009EE4392E21E4722E30E4632E4AEEC42EA2
:1011F00040E0D42E58E3A52E51E0B52E6DE1862EA9
:1012000061E0962E55245394EE24E394F12CE7E20A
:101210004E2E4091100150911101052E000C660BCD
:10122000770B2FB7F8948091CD069091CE06A091C0
:10123000CF06B091D0062FBF0091D1061091D206F3
:101240002091D3063091D406801B910BA20BB30BD7
:1012500084179507A607B70708F437C32FB7F89484
:101260008091CD069091CE06A091CF06B091D00688
:101270002FBF8093D1069093D206A093D306B0934C
:10128000D40600910E0110910F0110161106BCF446
:1012900061E080912E0690912F06892B09F060E085
:1012A000862F90E090932F0680932E0684E00E9474
:1012B00067020150110910930F0100930E0180E3A2
:1012C00096E00E941A011816190614F580E396E0BC
:1012D0000E94F800E09122068A3011F08D3059F416
:1012E00050922D06F0E0E650FA4F10820E94CE0494
:1012F000109222060DC0AE2FB0E0A650BA4F8C93CC
:10130000EF5FE83219F0E093220602C04092220615
:1013100080912D06882309F4AAC110922D0665E15B
:1013200072E082ED95E00E94670E892BA9F480910E
:10133000CE059091CF05A091D005B091D105B7FD14
:1013400094C190930501809304010E94BC0264E063
:1013500071E080E090E01CC06CE172E082ED95E00D
:101360000E94670E892BB9F48091CE059091CF052C
:10137000A091D005B091D105B7FD77C19093190127
:10138000809318010E94140268E171E084E090E00B
:101390000E9417036AC161E272E082ED95E00E944B
:1013A000670E892BA9F48091CE059091CF05A0916D
:1013B000D005B091D105B7FD58C190931701809326
:1013C00016010E94D50166E171E088E090E0E0CF6F
:1013D00067E272E082ED95E00E94670E892B99F436
:1013E0008091CE059091CF05A091D005B091D10507
:1013F000B7FD3BC1909311018093100160E171E052
:101400008CE090E0C5CF6EE272E082ED95E00E9444
:10141000670E892B99F48091CE059091CF05A0910C
:10142000D005B091D105B7FD20C1909307018093FD
:10143000060166E071E080E190E0AACF64E372E02B
:1014400082ED95E00E94670E892B99F48091CE057C
:101450009091CF05A091D005B091D105B7FD05C100
:10146000909309018093080168E071E084E190E0C5
:101470008FCF69E372E082ED95E00E94670E892BC1
:10148000B9F48091CE059091CF05A091D005B0918F
:10149000D105B7FDEAC09093CB058093CA056AECED
:1014A00075E080E290E00E9417030E949102DDC087
:1014B0006FE372E082ED95E00E94670E892B99F44C
:1014C0008091CE059091CF05A091D005B091D10526
:1014D000B7FDCBC09093CD058093CC056CEC75E047
:1014E0008AE190E055CF65E472E082ED95E00E94DC
:1014F000670E892BA9F48091CE059091CF05A0911C
:10150000D005B091D105B7FDB0C080931201909382
:101510001301A0931401B09315010E94B505A5C055
:101520006BE472E082ED95E00E94670E892BE1F496
:101530008091CE059091CF05A091D005B091D105B5
:10154000181619061A061B062CF4F0922606E092CD
:1015500025068BC0892B8A2B8B2B09F086C0109215
:1015600026061092250681C06BEC74E082ED95E0B2
:101570000E94670E892B51F06DEE74E082ED95E0CC
:101580000E94670E892B29F40E9442030E943C04AA
:101590006CC06BE075E082ED95E00E94670E892BD0
:1015A00019F40E94B00361C061E572E082ED95E03C
:1015B0000E94670E892B09F058C086E592E00E94D0
:1015C000E80589E992E00E94E80580EE92E00E9439
:1015D000E80583E293E00E94E80581E693E00E943B
:1015E000E80585EA93E00E94E8058DEC93E00E940F
:1015F000E80585EF93E00E94E80584E294E00E940C
:10160000E80586E494E00E94E80583E894E00E94FF
:10161000E80582EB94E00E94E80582ED94E00E94E8
:10162000E80583EF94E00E94E80580EE91E00E94D7
:10163000E80581E195E00E94E80586E395E00E94D7
:10164000E8058EE395E00E94E80580EE91E00E94B7
:10165000E80584E695E00E94E8058EE695E00E94A4
:10166000E8058AE995E00E94E8050E94CE040E9400
:10167000BC0280910A0190910B0190930D0180931F
:101680000C0130927C0062E070E080E090E00E940B
:10169000B90680917A00806480937A0080917A0004
:1016A00086FDFCCF209178008091790030E0382BC6
:1016B000032E000C440B550B609112017091130125
:1016C00080911401909115010E947F0D30930B01C0
:1016D00020930A0190917A0080917A00887F84603B
:1016E00080937A0070927C0080917A00806480936D
:1016F0007A0080917A0086FDFCCF8091780020915D
:10170000790090937A0090E0922B90932C0680932E
:101710002B0690917A0080917A00887F8460809374
:101720007A0060927C0080917A00806480937A00D5
:1017300080917A0086FDFCCF80917800209179001D
:1017400090937A0090E0922B90932A06809329063A
:1017500020910C0130910D0180910A0190910B01B3
:10176000281B390B8091080190910901821793077A
:1017700034F0919581959109281739074CF40E940E
:1017800014020E94D501F0922806E092270604C0B8
:101790001092280610922706F6014491F5019491C3
:1017A000F4018491882309F44BC04423C1F150E033
:1017B000FA013297ED30F10590F5E65AFF4F0C949F
:1017C0009E0D209180002F7703C0209180002F7DF7
:1017D0002093800024C024B52F7702C024B52F7D2C
:1017E00024BD1DC02091B0002F7703C02091B00010
:1017F0002F7D2093B00013C0209190002F7703C05D
:10180000209190002F7D2093900009C02091A0008E
:101810002F7703C02091A0002F7D2093A000E82FF8
:10182000F0E0EE0FFF1FE253FF4FA591B4918C91B2
:10183000982331E020E009F430E0832F922F02C09A
:1018400080E090E09093C9058093C8052091C80579
:101850003091C9058091CC059091CD0528173907A5
:1018600021F4F0922806E092270600910E011091D3
:101870000F0110161106C4F461E080912E069091BC
:101880002F06892B09F060E0862F90E090932F06B9
:1018900080932E0684E00E94670201501109109384
:1018A0000F0100930E0104C060E084E00E94670213
:1018B00080912506909126061816190614F40E94A8
:1018C000B00310922406109223060E94BA01A1CC04
:1018D000E0E3F6E01382128288EE93E0A0E0B0E04D
:1018E00084839583A683B7838EE191E0918380837F
:1018F00085EC90E09587848784EC90E097878687D5
:1019000080EC90E0918B808B81EC90E0938B828BCC
:1019100082EC90E0958B848B86EC90E0978B868BA5
:10192000118E128E138E148E2FB7F8948091CD06DF
:101930009091CE06A091CF06B091D0062FBF809394
:10194000D1069093D206A093D306B093D4060895FF
:101950001F93FC0199278827BC01E894119110324C
:10196000E9F3193010F01E30C8F31B3251F01D326C
:1019700049F4689406C00E94FB0C610F711D811D23
:10198000911D119110531A30B0F33EF4909580954B
:10199000709561957F4F8F4F9F4F1F91089542EE35
:1019A00056E00E94D40C0895FA01A191B0810097ED
:1019B00019F41097E1F0CD01DC01CD010D9000206C
:1019C00011F4C00113C0FB012191222319F020154D
:1019D000D9F7F3CFFB012191201519F41E9211962E
:1019E00006C02223C1F70D900020A1F7D001FA0113
:1019F000A193B0830895592F482F372F262F660FB4
:101A0000771F881F991F660F771F881F991F620F06
:101A1000731F841F951F660F771F881F991F0895D6
:101A2000F999FECF92BD81BDF89A992780B50895A6
:101A3000262FF999FECF1FBA92BD81BD20BD0FB6EA
:101A4000F894FA9AF99A0FBE019608952F923F9250
:101A50004F925F926F927F928F929F92AF92BF92BE
:101A6000CF92DF92EF92FF920F931F93CF93DF936A
:101A7000CDB7DEB7CA1BDB0B0FB6F894DEBF0FBEC7
:101A8000CDBF09942A88398848885F846E847D8414
:101A90008C849B84AA84B984C884DF80EE80FD8016
:101AA0000C811B81AA81B981CE0FD11D0FB6F8948C
:101AB000DEBF0FBECDBFED010895A1E21A2EAA1B15
:101AC000BB1BFD010DC0AA1FBB1FEE1FFF1FA217EE
:101AD000B307E407F50720F0A21BB30BE40BF50BEB
:101AE000661F771F881F991F1A9469F76095709574
:101AF000809590959B01AC01BD01CF010895052E05
:101B000097FB1EF400940E94960D57FD07D00E948B
:101B10005D0D07FC03D04EF40C94960D5095409546
:101B2000309521953F4F4F4F5F4F08959095809589
:101B3000709561957F4F8F4F9F4F0895EE0FFF1F58
:101B40000590F491E02D09940E94AC0D332312F41A
:101B50008A1B9B0B0C94BD0DA29FB001B39FC001CB
:101B6000A39F700D811D1124911DB29F700D811DC9
:101B70001124911D08950E94AC0DB7FF0895821B9A
:101B8000930B0895689401C0E894F92FF12B12F09B
:101B90000C94F60DA0E0B0E0E0EDFDE00C942C0D0F
:101BA000092E059422F40E94520E112392F4F0E8BB
:101BB0000F26FFEFE094F09400951095B094C09438
:101BC000D094A194BF0ACF0ADF0AEF0AFF0A0F0BD5
:101BD0001F0B0E94010E07FC0E94520ECDB7DEB70C
:101BE000ECE00C94480D689401C0E8948F929F92A9
:101BF000CF93DF930E94010EDF91CF919F908F9042
:101C0000089588249924F401E401B0E49F93AA275D
:101C10009A158B049C04ED05FE05CF05D007A1079E
:101C200098F4AD2FDC2FCF2FFE2FE92D982C892E85
:101C3000982F872F762F652F542F432F322F22274F
:101C4000B85031F7BF9127C01B2EBF91BB27220F81
:101C5000331F441F551F661F771F881F991F881C3D
:101C6000991CEE1FFF1FCC1FDD1FAA1FBB1F8A146C
:101C70009B04EC05FD05CE05DF05A007B10748F084
:101C80008A189B08EC09FD09CE09DF09A00BB10BEE
:101C900021601A94E1F62EF49401AF01BE01CD014A
:101CA000000C0895609570958095909530954095BD
:101CB000509521953F4F4F4F5F4F6F4F7F4F8F4F45
:101CC0009F4F089581E090E0F8940C94770EFB010B
:101CD000DC018D91019080190110D9F3990B0895C1
:101CE000FB01DC0101900D920020E1F70895F894CA
:021CF000FFCF24
:101CF200CD000000030064001400881388130D0057
:101D02003200B42B1100AA0520030000000051018B
:101D1200CE001A01F8000C01980154726967276419
:101D220021007B0022566363223A002C0022564394
:101D32006F6D70223A002256466F6C223A0022459D
:101D42007272223A0022507A436F6E223A00224681
:101D520069726D5F566572223A00322E322E315F01
:101D6200666437666132007D004741494E5F462016
:101D7200002033780020332E35780020342E333380
:101D8200780020367800203131780020494E5641C3
:101D92004C49440056464F4C200056434F4D50206C
:101DA200004C4F4F505F4420005452475F44200084
:101DB2004859535420004C4F4749432000505A443D
:101DC20045542000564D5F434F4E535420000D0A98
:101DD200004669726D776172652056657273696F2C
:101DE2006E2000496E697469616C697A696E672058
:101DF200507972302D5069657A6F2053656E736F1A
:101E0200722E2E2E004741494E5F460056464F4CD9
:101E12000056434F4D50004C4F4F505F44005452B8
:101E2200475F440048595354004C4F4749430050C0
:101E32005A44455400434F4E53540044454255477B
:101E42000048454C5000546F206368616E676520FE
:101E52006761696E20666163746F723A2047414917
:101E62004E5F46205B696E746567657220666F72AD
:101E7200206761696E207374617465202D2073651B
:101E820065206E6F74652A5D00546F206368616E11
:101E9200676520766F6C7461676520666F6C6C6F26
:101EA20077657220766F6C7461676520286C6F7736
:101EB200207468726573686F6C64293A2056464FC5
:101EC2004C205B666C6F61742076616C75655D0099
:101ED200546F206368616E676520636F6D70617215
:101EE20061746F7220766F6C74616765202868690F
:101EF2006768207468726573686F6C64293A20564B
:101F0200434F4D50205B666C6F61742076616C7537
:101F1200655D00546F206368616E6765206D61695D
:101F22006E206C6F6F7020706572696F643A204C1E
:101F32004F4F505F44205B696E746567657220661F
:101F42006F72206D696C6C697365636F6E64735D2B
:101F520000546F206368616E6765207472696767F9
:101F62006572206163746976652064757261746953
:101F72006F6E3A205452475F44205B696E74656706
:101F8200657220666F72206D696C6C697365636F30
:101F92006E64735D00546F206368616E67652074C0
:101FA2006865206F7574707574206C6F6769633A29
:101FB200204C4F474943205B307C315D0020202874
:101FC2003020666F7220616374697665206C6F776A
:101FD2002C203120666F72206163746976652068F7
:101FE2006967682900546F20656E61626C652070B4
:101FF20069657A6F20706C756767656420646574C3
:10200200656374696F6E3A20505A444554205B30C0
:102012007C315D002020283020666F722064697355
:1020220061626C65642C203120666F7220656E617E
:10203200626C65642900546F206368616E67652075
:1020420041444320687973746572657369732076BD
:10205200616C75653A2048595354205B696E74650A
:1020620067657220696E206D696C6C69766F6C743D
:10207200735D00546F20656E61626C65206F722023
:1020820064697361626C65206465627567206F754F
:10209200747075743A204445425547205B307C3158
:1020A2005D00546F207072696E7420637572726580
:1020B2006E7420636F6E6669673A20434F4E4649DD
:1020C2004700546F2073657420636F6E66696720E2
:1020D200746F2064656661756C74733A2045524171
:1020E200534500546F207072696E7420637572726A
:1020F200656E742073746174653A2053544154457B
:1021020000436F6D6D616E64732061726520656E50
:10211200746572656420696E207468697320666FE5
:10212200726D61743A00434D442056414C00436F36
:102132006D6D616E64732061726520636F6E666996
:10214200726D6564207769746820456E74657220CB
:102152006B6579004578616D706C65733A00474133
:10216200494E5F462033203C7E20736574206761B0
:10217200696E20666163746F7220746F20696E6489
:102182006578203320283678290056464F4C203275
:10219200333530203C7E2073657420746865207668
:1021A20072656620666C6F6F7220746F20322E33F8
:0421B200355600009E
:00000001FF
